:020000040000FA
:0600000002010A0219973B
:03002B00021E03AF
:03003B00021E1C86
:03004300021DAEED
:03005300021A0A84
:03006B00021DD49F
:1000830002184BE5C754F84401F5C7790122000073
:100093000080FB120086B900030200F4E4792178A2
:1000A30008B800028004F709D8FCE479297802B87B
:1000B30000028004F709D8FCE4900281782E7909C4
:1000C3008002F0A3D8FCD9FA900AAEAA82AB83903F
:1000D300013A780379028015E493A3AC82AD838A55
:1000E300828B83F0A3AA82AB838C828D83D8E9D9D8
:1000F300E77582967583E3740212011C758291750C
:100103008300740012011C75D00075813F7518813E
:10011300751902759F00020096C09FF59FE473D086
:100123009F22D083D082C09FE493C0E0740193C028
:10013300E0740293F59F22FF0000B400002800281A
:1001430000283075A000A000A000A000000800084F
:10015300E001F0001000100010001000100010006B
:1001630050005000500010001000D00700000000A5
:1001730000000F00010005003075070010000100AA
:1001830081FF0000FFFF02020208025000A00000EE
:1001930000E80302AE810100009C8102B6810100E8
:1001A30000FD0A02B881010000AE0202B68101001F
:1001B30000FE0A02B281010000C40202B6810100FE
:1001C30000FF0A02AA81010000C60202B6810100F3
:1001D30000000B02A281080000C70202B6810100E1
:1001E30000010B02A481010000020BFF3209320956
:1001F3003209320932093209320932093209320924
:10020300320932093209FFFF01053F10FF000130B7
:10021300750302010600000000000000000000005A
:1002230000000000000000000000000000000000CB
:1002330000FFFF0600800CE80312012561D50212BE
:10024300012578D502120125A7D502120125E0D593
:100253000212012508D60212012536D60212012503
:100263004DD60212012564D6021201257AD6021256
:100273000125A1D602120125B4D602120125CAD640
:1002830002120125F2D602120125B57500120125CD
:10029300B47600120125E976001201250A770012CF
:1002A30001251A77001201253B77001201254778B3
:1002B3000012012514790012012587790012012506
:1002C3000D7A00120125507A00120125877A001257
:1002D30001250D7B00120125DF7B001201253D7CEA
:1002E30000120125557C00120125CF7C0012012547
:1002F300D27C00120125D57C001201257C7D0012E1
:100303000125947D00120125C47D00120125E47DA1
:1003130000120125D27E00120125887F00120125DB
:100323009AB102120125D3B1021201251CB20212A5
:10033300012567B202120125A5B202120125E2B21C
:100343000212012510B302120125B7B302120125CF
:10035300C1B302120125CEB30212012501B4021268
:100363000125C3B402120125CFB402120125E7B45B
:1003730002120125F1B402120125C8DF0212012580
:10038300D6DF02120125EEDF0212012506E002127A
:1003930001253FAF01120125DDAF0112012555B043
:1003A300011201256AB101120125A4B1011201252F
:1003B3004DB20112012522B30112012586B40112A7
:1003C3000125DDB40112012564B5011201254BB6E7
:1003D3000112012598B60112012526B70112012544
:1003E3004AB7011201251FB90112012560B9011293
:1003F300012582B90112012553BA01120125B4C0A6
:100403000212012586C10212012536C202120125FC
:100413004BC30212012571C302120125C7E1021267
:10042300012586B50212012598B502120125BEB534
:1004330002120125E6B602120125F0B602120125C9
:1004430049B80212012504D70212012540D802122D
:10045300012574A101120125D7A101120125E7A1EC
:10046300011201250AA20112012555A2011201253B
:10047300FAA201120125F0A301120125BAA4011267
:10048300012532A60112012574A60112012512A726
:100493000112012538A70112012526A90112012500
:1004A3002BA9011201250CAB0112012560AB01122E
:1004B3000125C2AB01120125EAAB011201258EAC65
:1004C3000112012550AD0112012581AD0112012553
:1004D30084AD01120125CCAD011201250EAE01122E
:1004E300012575AE011201251ACD021201252DCD6C
:1004F3000212012546CD0212012591CD02120125DA
:100503006CCE02120125FBCE0212012546CF021248
:100513000125BF4C00120125F84C00120125444D62
:1005230000120125CF4D00120125084E00120125AE
:100533001C5000120125F85100120125E35300124B
:1005430001251A55001201257A5700120125665814
:1005530000120125AC5900120125B95A00120125D8
:10056300D65A001201250E5B00120125305B0012E2
:100573000125CA5F001201256B6000120125BC60D2
:1005830000120125E36000120125316100120125EB
:1005930091610012012549B90212012553B90212D2
:1005A30001251EBA0212012539BA021201257DBAAC
:1005B30002120125B5BA02120125DEBA0212012583
:1005C30057BB021201256CBB0212012590BB02121C
:1005D3000125A4BB02120125D5BB0212012546BC8D
:1005E300021201258FBC02120125B9BC021201259A
:1005F300DEBC02120125AEAD0212012578AE021255
:1006030001255BAF02120125D1AF0212012513B000
:100613000212012540B10212012598C901120125D8
:10062300C1C901120125DAC9011201251FCB01122B
:100633000125FDCB011201251CCC01120125A9CCFA
:1006430001120125ECCC0112012539CE011201253D
:10065300D8CE0112012557D101120125EED1011285
:100663000125C2D201120125A4D30112012510D5FF
:1006730001120125A3D501120125A9DB02120125CF
:1006830012DC0212012566DC021201258DDC021246
:100693000125CBA00212012538A10212012583A155
:1006A3000212012578A20212012574A30212012568
:1006B3005EA402120125008002120125428002126B
:1006C30001251C8102120125F58102120125F08208
:1006D30002120125CF83021201253B840212012558
:1006E3000285021201256D8502120125D4850212AD
:1006F3000125FF8502120125708602120125038759
:10070300021201256C87021201258187021201253D
:10071300C98702120125E2870212012547880212C6
:1007230001254A880212012520CA0212012548CA5E
:100733000212012586CA0212012544CB02120125A9
:10074300AFCB02120125CBCB02120125F3CB021250
:10075300012523CC0212012532CC02120125ACCC97
:1007630002120125D2CC021201258BE201120125CE
:1007730068E40112012563E60112012536E701123F
:10078300012581E70112012593E701120125D3E732
:100793000112012508E80112012554E8011201257F
:1007A30083E801120125A6E801120125F3E80112ED
:1007B30001257CE90112012589EB0112012574ED64
:1007C30001120125BCED01120125FDED01120125E8
:1007D30049EE011201251AD60112012545D601124F
:1007E30001252CDD0112012550DF011201250BE14A
:1007F3000112012568E201120125901E0012012554
:10080300271F001201256D1F00120125AC200012C5
:100813000125432200120125BD2200120125D82201
:10082300001201254D23001201257C24001201250D
:10083300D72500120125D9260012012536280012DA
:1008430001254F2800120125AC28001201258E290D
:1008530000120125C12900120125312A00120125A8
:10086300AB2A00120125FA2A00120125C62B001219
:100873000125CB2C00120125AA2D00120125352EAE
:1008830000120125A32E00120125172F00120125A6
:10089300402F00120125FF2F00120125793100128C
:1008A3000125963100120125B5310012012546328A
:1008B300001201256B32001201259332001201252B
:1008C3000E3300120125683300120125BC340012D7
:1008D30001257935001201254C3600120125A59317
:1008E30001120125F593011201250194011201253D
:1008F300DE94011201250E95011201254695011280
:100903000125C59501120125FD95011201254F967B
:10091300011201258C9601120125B19801120125BE
:10092300DD9A01120125D89C01120125B39E011203
:100933000125F67F00120125196200120125636269
:1009430000120125426800120125C3690012012526
:100953002270001201251D71001201255A71001227
:1009630001257B7100120125BD7100120125A972B9
:10097300001201259D73001201257A36001201250C
:10098300F24000120125F84000120125044800122C
:1009930001250AC70212012508C8021201255EC8F3
:1009A300021201259CC802120125F9C80212012571
:1009B30076C9021201257FC9021201258BC90212D1
:1009C30001259EC902120125DAC902120125F0C9C7
:1009D3000212012520A5021201252DA502120125CF
:1009E30047A50212012586A502120125C4A50212FC
:1009F300012529A6021201253EA60212012549A6B8
:100A03000212012556A6021201256DA60212012526
:100A13007BA60212012586A60212012592A60212C6
:100A23000125A1A602120125ACA602120125CFA61B
:100A33000212012578A70212012588A702120125B7
:100A4300A2A702120125BFA702120125DBA70212EA
:100A5300012500A8021201250AA8021201251EA8D9
:100A6300021201253DA8021201259EA802120125AA
:100A7300A4A802120125AAA802120125B0A80212F5
:100A83000125BCA802120125EFA8021201258DBC85
:100A9300011201250FBD01120125B8BD0112012567
:100AA30000BF011201250EC101120125F4C101127B
:100AB300012529C2011201254BC201120125EDC2F4
:100AC30001120125BDC401120125E6C4011201254D
:100AD30018C50112012525C50112012570C5011292
:100AE300012594C501120125E5C701120125EFC8AF
:100AF300011201254BC90112012574EE01120125D2
:100B030085EF0112012569F0011201258BF0011215
:100B1300012597F0011201253BF20112012568F22C
:100B2300011201257EF301120125CEF301120125E5
:100B33001DF501120125F2F5011201254EF60112F0
:100B43000125B9F6011201255AF701120125C6F74D
:100B53000112012541F801120125A8D30212012532
:100B6300CDD30212012543D402120125D9F8011273
:100B73000125E2F801120125EBF801120125C3F961
:100B83000112012574FB01120125A4FB01120125A9
:100B9300CFFB01120125FAFB011201252EFC0112E4
:100BA30001256DFC0112012598FC0112012500FDB0
:100BB300011201252BFD011201257AFD01120125E8
:100BC300A5FD01120125D3FD01120125F6FD011238
:100BD300012550E2021201257CE202120125A9E25D
:100BE30002120125B3E202120125C3E2021201251A
:100BF300A49002120125AE9002120125EF90021279
:100C03000125389102120125729102120125C89122
:100C130002120125E991021201259894021201257D
:100C2300A19402120125F594021201251E950212C8
:100C33000125289502120125969502120125269673
:100C430002120125819602120125AF960212012597
:100C5300379702120125769702120125AB970212EC
:100C63000125BD9702120125DC9702120125E597A4
:100C730002120125A79802120125D1DE02120125D5
:100C8300B7D102120125EDD10212012521D20212A0
:100C930001256ED302120125CDE202120125E3E202
:100CA30002120125EDE20212012537E302120125AA
:100CB3006CA9021201257FA90212012543AA02127F
:100CC300012582AA021201259FAA02120125D8AA90
:100CD3000212012525AB0212012557AB0212012591
:100CE3008EAB02120125A1AD0212012534DA0212E4
:100CF300012557DA0212012586DA021201251EDBCD
:100D03000212012560DB02120125C58101120125B2
:100D13006483011201250F84011201258F840112BE
:100D230001251B8501120125F688011201256D8914
:100D330001120125848A01120125BE8A01120125AF
:100D4300FF8A01120125468C011201259C8C011298
:100D53000125E58C01120125548D01120125C08D59
:100D630001120125F18D01120125098E01120125C0
:100D7300228F01120125328F01120125E890011201
:100D83000125FF9001120125319101120125D39212
:100D930001120125679301120125B8E4021201250E
:100DA300E9E30212012528E402120125A5E4021257
:100DB30001259FE002120125AFE002120125C7E0E1
:100DC300021201252FE102120125CFDD02120125B6
:100DD30054DE02120125B8DE02120125BEDC021226
:100DE3000125E0DC0212012541DD0212012591DD1E
:100DF30002120125F37F0012012506BD021201250F
:100E03001ABD0212012594BD0212012578BE0212F9
:100E130001254FC002120125E4C3021201257EC43D
:100E2300021201251AC502120125ABC502120125C2
:100E33005BC60212012569C602120125E7C602122A
:100E43000125FDC60212012507C70212012596FEE0
:100E53000112012517FF0112012522FF01120125AD
:100E63003CFF011201259CD802120125EED8021283
:100E7300012561D902120125CED90212012570CFB5
:100E8300021201259ACF0212012569D0021201250F
:100E930045D1021201256E88021201253A890212F8
:100EA30001257B8902120125B58902120125138AC6
:100EB30002120125678A02120125C58A0212012541
:100EC3005B8B02120125638C02120125ED8D021248
:100ED30001258B8E02120125F28E02120125058F48
:100EE30002120125F98F02120125429002120125F7
:100EF300FA980212012517990212012597990212F5
:100F03000125139B02120125E29B021201254F9F2B
:100F13000212012535A00212012539E10212012531
:100F23009BE10212012532E402120125BEFF0112E8
:100F330001255FE40212012587E402E066701008D0
:100F4300A3E066700A08A3E066700408A3E06622C3
:100F5300C3E7960809E7960809E7960809E7962282
:100F6300C3E09608A3E09608A3E09608A3E09622C0
:100F7300C008C3E096F50808A3E096420808A3E07A
:100F830096420808A3E09645087001D3D0082208CA
:100F93000808EAC0E0EBC0E086F0E7A4FA18098687
:100FA300F0E7A42AFA180986F0E7A42AFA180986B2
:100FB300F0E7A42AFA1986F0E7A4FBE5F02AFA1968
:100FC3000886F0E7A42BFBE5F03AFA190886F0E768
:100FD300A42BFBE5F03AFA18180986F0E7A4C5F04C
:100FE3002BFBE43AFA1908E7C5F0C6A426F6E5F0A8
:100FF3003BFBE43AFA1886F0E7A4F6E5F00826F698
:10100300E43B08F6E43A08F6D0E0FBD0E0FA22E449
:10101300CFC0E0E4CEC0E0E4CDC0E0E4CCC0E075F6
:10102300F020C3E633F608E633F608E633F608E6BF
:1010330033F6181818EC33FCED33FDEE33FEEF33C3
:10104300FFC3EC9709ED9709EE9709EF9719191963
:10105300400FFFEC97FC09ED97FD09EE97FE191978
:1010630006D5F0BEECF709EDF709EEF709EFF7192E
:101073001919D0E0FCD0E0FDD0E0FED0E0FF226003
:1010830016080808C6C313C618C613C618C613C65F
:1010930018C613C6D5E0EA227009080808226016AC
:1010A300181818C6C333C608C633C608C633C608DD
:1010B300C633C6D5E0EA22E627F60809E637F6087E
:1010C30009E637F60809E637F622E026F608A3E034
:1010D30036F608A3E036F608A3E036F622E026F05B
:1010E30008A3E036F008A3E036F008A3E036F022C8
:1010F300C3E697F60809E697F60809E697F608099E
:10110300E697F622C3E096F008A3E096F008A3E082
:1011130096F008A3E096F022E056F608A3E056F610
:1011230008A3E056F608A3E056F622E056F008A31B
:10113300E056F008A3E056F008A3E056F022E0F6EC
:1011430008A3E0F608A3E0F608A3E0F622E6F00819
:10115300A3E6F008A3E6F008A3E6F022E0FAA3E092
:10116300FBA3E0FCA3E0FD22EAF0A3EBF0A3ECF089
:10117300A3EDF022CAC0E0E6F0A308DAFAD0E0FA61
:1011830022CAC0E0E0A3C582CCC582C583CDC58396
:10119300F0A3C582CCC582C583CDC583DAE6D0E092
:1011A300CA22C3E498F8E499F91211E68026C3E44D
:1011B3009AFAE49BFBE920E7E91211E6E498F8E4E4
:1011C30099F922C3E498F8E499F91211E6E498F83E
:1011D300E499F9C3E49AFAE49BFB22EB20E7CFE915
:1011E30020E7E0B90010BB0008E88AF084F8AAF011
:1011F30022E4FBC8FA22EB70227B10C833C8C93340
:10120300C9335007C39AC3DBF280069A50012ADB25
:10121300EAC833F4C8C933F4C9FA2275F008E4C83C
:1012230033C8C933C933C99AC99B5004C92AC93BB6
:10123300D5F0ECFBC833F4C8E4C9FA22600D08C644
:10124300A2E713C618C613C6D5E0F322600C08C67E
:10125300C313C618C613C6D5E0F422700422600D6A
:1012630018C6C333C608C633C6D5E0F418222518FA
:1012730010AF08F518400215198008F5184002153B
:1012830019D2AF22C0D0251810AF08F518500205A7
:10129300198008F51850020519D2AFD0D0222518AD
:1012A300F58210AF08F518400215198008F51840AB
:1012B300021519D2AF851983222518F582E4351951
:1012C300F58322E4732518C582C0E0E51934FFC510
:1012D30083C0E0E518C3958224F810AF088583190D
:1012E3008582188008858319858218D2AFCEF0A332
:1012F300E520F0A37808E608F0A3DEFAEFF0A3E513
:101303008124FAF8E608F0A3E608F0A3E608F0A3C0
:101313000808E608F0A3E608F0A315811581D0E0DC
:10132300FED0E0F8158115811581E8C0E0EEC0E03C
:10133300222518C582C0E0E51934FFC583C0E0E566
:1013430018C3958224F910AF088583198582188004
:1013530008858319858218D2AFCEF0A3E520F0A3C8
:101363007808E608F0A3DEFAEFF0A3E58124FBF8A2
:10137300E608F0A3E608F0A30808E608F0A3E608E9
:10138300F0A315811581D0E0FED0E0F81581158119
:10139300E8C0E0EEC0E022851983851882E0A3FE51
:1013A300E0A3F5207808E0A3F608DFFAE0A3FFE066
:1013B300A3C0E0E0A3C0E0E0A3C0E0E0A3C0E0E09E
:1013C300A3C0E010AF088582188583198008858241
:1013D30018858319D2AFD083D08202012285198365
:1013E300851882E0A3FEE0A3F5207808E0A3F608C1
:1013F300DFFAE0A3FFE0A3C0E0E0A3C0E0E0A3C006
:10140300E0E0A3C0E010AF08858218858319800847
:10141300858218858319D2AFD083D08222C0D0258C
:1014230018C582C0E0E51934FFC583C0E0E518C3E1
:10143300958224F310AF0885831985821880088567
:101443008319858218D2AFC8F0A3E9F0A3EAF0A309
:10145300EBF0A37908E709F0A3D8FAECF0A3EDF0D9
:10146300A3EEF0A3EFF0A3D0E0F0A3D0E0F0A3D07D
:10147300E0F0A3E520F0A3E5F0F0A322851983852E
:101483001882E0C0E0A3E0F9A3E0FAA3E0FBA378AD
:1014930008E0F608A3DFFAE0FCA3E0FDA3E0FEA367
:1014A300E0FFA3E0C0E0A3E0C0E0A3E0F5D0A3E049
:1014B300F520A3E0A3F5F010AF0885831985821802
:1014C3008008858319858218D2AFD082D083D0E07B
:1014D300F8D0E03274048006740280027401C0E024
:1014E300F4041212A1D0E012117722740480047460
:1014F300028000CCC0E0EDC0E0E518C39CCCAD1980
:1015030050011D10AF068C188D1980068C188D198B
:10151300D2AF121184D0E0FDD0E0FC22D083D08280
:10152300ECC0E0EDC0E0E493A3FCE493A3FDED4C39
:10153300600D12156BEC24FFFCED34FFFD80EFE42E
:1015430093A3FCE493A3FDED4C600D1215AAEC24C8
:10155300FFFCED34FFFD80EFD0E0FDD0E0FCE49331
:10156300A3C0E0E493C0E022C0E0C3E49396087410
:1015730001939618400FE49366700808740193660C
:101583001870007019A3A3C3E4939608740193968B
:1015930018A3A3400DD0E0D0E0D0E002155BA3A3D5
:1015A300A3A3A3A3D0E022C0E0C0F088F0E4936635
:1015B30070080874019366187000A8F0A3A3700B59
:1015C300D0F0D0E0D0E0D0E002155BA3A3D0F0D000
:0215D300E02214
:1015D80074F5121334EAFEEBFFEE2434F8EF34000E
:1015E800F988088909EE2435F582EF3400F583E09F
:1015F800F8EE2437F582EF3400F583E0F50AEC8540
:101608000AF0A4FCAAF0850AF0EDA42AFDE82CF85B
:10161800E43DF97A257B001211E6EA8508828509FE
:1016280083F05407F87401B800028004C333D8FC6F
:10163800C0E0E0131313541FF8EE28F8EF3400F954
:10164800E8245DF582E93400F583D0E0F8E05860DD
:1016580008EE2434F582EF801EEE2436F582EF344E
:1016680000F583E0F5F0EA84A8F0EE28F8EF3400FE
:10167800F9E82438F582E93400F583E0F97F0402BB
:1016880013E074F5121334EAFEEBFFEE2434F5820E
:10169800EF3400F583E0C0E0EE2435F582EF340046
:1016A800F583D0E0F08E828F83A3A3A3A3A3A3A383
:1016B800C082C0838E828F83A3A3A3A3A3E0F8A3D1
:1016C800E0F9D083D082E0C398F508A3E099F50942
:1016D800EE2480F582EF3400F583E064017069EE52
:1016E8002481F582EF3400F583E0F8A3E0F98E82D7
:1016F8008F83A3A3A3A3A3A3A3E0FCA3E0FD8E82EF
:101708008F83A3A3A3A3A3E0FAA3E0FBC3EA9CEB04
:101718009D5027C3EC98ED99402EC3EA98EB995059
:10172800277CF97D04EEFAEFFB120890EE2480F591
:1017380082EF3400F583E4F0800EC3EA98EB994019
:10174800E0C3EC98ED9950D9EE2434F8EF3400F961
:10175800E8FCE9FDEE2435F582EF3400F583E0F886
:10176800EE2437F582EF3400F583E0F50AE50885C5
:101778000AF0A4F508AAF0850AF0E509A42AF509F3
:10178800E82508F8E43509F97A257B001211E6EA1C
:101798008C828D83F05407F87401B800028004C36A
:1017A80033D8FCC0E0E0131313541FF8EE28F8EF09
:1017B8003400F9E8245DF582E93400F583D0E0F8D7
:1017C800E0586008EE2434F582EF801EEE2436F5EA
:1017D80082EF3400F583E0F5F0EA84A8F0EE28F80B
:1017E800EF3400F9E82438F582E93400F583E0F9AC
:1017F800121DA0021685C082C083851882851983B0
:10180800E0F8A3E0F9C3EA9CEB9D5012C3EC98ED15
:10181800994019C3EA98EB99501279018010C3EAEC
:1018280098EB9940F5C3EC98ED9950EE7900D08388
:10183800D08222EAC39CFAEB9DFB22008521878592
:1018480022C622C0E0C0D0E8C0E0E9C0E0EAC0E0BB
:10185800EBC0E0ECC0E0EDC0E0C008C009C00AC0C1
:101868000BC082C083C0F0759B00906182E0A2E645
:101878004003021929E591A2E6400302192975914E
:10188800BF9003BEE0640570081209B01209BC805D
:10189800031209B6752100120A10E99003BFF07906
:1018A80000120A041208067A017B009003BDE0F9D1
:1018B800120C50907803E06442600302197290059C
:1018C8005BE014F06003021972C2AF1218D60078F8
:1018D8002AD0E0F618D0E0F6E59F5407F970059095
:1018E800812080039081247808121141E9C4C0E066
:1018F8007829E65508F50808E65509F509740B78BE
:101908000812124FD0E02508F8906270E0A2E74074
:10191800F8E8C333906272F0906270E0D2E0F08031
:1019280049E0A2E55024E591A2E5501E7591DF90AB
:1019380003BEE0640D70139003E0E004F0642870C7
:1019480002E4F07A00E0F9120A82906181E0A2E3F1
:101958005009E5E9A2E3500375E9F7A3E0A2E750CF
:1019680009E591A2E7500375917FD0F0D083D0822A
:10197800D00BD00AD009D008D0E0FDD0E0FCD0E0F0
:10198800FBD0E0FAD0E0F9D0E0F8D0D0D0E032C017
:10199800E0C0D0C082C083906183E0A2E05009E536
:1019A800BFA2E0500375BFFEE0A2E15009E5BFA267
:1019B800E1500375BFFDE0A2E25009E5BFA2E25085
:1019C8000375BFFBE0A2E35009E5BFA2E35003752E
:1019D800BFF7E0A2E45009E5BFA2E4500375BFEFEA
:1019E800E0A2E55009E5BFA2E5500375BFDFE0A21C
:1019F800E65009E5BFA2E6500375BFBFD083D08289
:101A08008088C0E0C0D0E8C0E0E9C0E0EAC0E0EB10
:101A1800C0E0ECC0E0EDC0E0C0F0E5A7A2E6500FE2
:101A2800E5A1A2E6500953A7BF75A1BF121A6FE539
:101A3800A7A2E5500CE5A1A2E5500653A7DF75A1C2
:101A4800DFE5A7A2E15009E5A1A2E1500375A1FDD8
:101A5800E5A7A2E2500CE5A1A2E2500653A7FB7548
:101A6800A1FBD0F002198074F8121334752101908B
:101A780003BEE06406701512095C8A828B83A3A3F7
:101A8800A3A3A3A3E0FAA3E0FB12099EA2AFE43349
:101A9800FED2AF9003C4E0640170187A207B0090F6
:101AA80003BDE0F9120CD47A207B009003BDE0F965
:101AB800120C56906182E0D2E6F090055AE060215F
:101AC80085C62280169003C3E064017008E5C654F9
:101AD800F84405F5C653BEFC12184474016521602C
:101AE800E4EEA2E092AF7F010213E0008E238F2480
:101AF800858228858327851882851983E0CEA3E00F
:101B0800CF852882852783EBC9EAC8EDCBECCA7557
:101B1800F010C3E833C8E933C9EA33CAEB33CBC39F
:101B2800EA9EF526EB9FF525B35004AB25AA26ECD3
:101B380033CCED33CDD5F0DAAE23AF242274F112D5
:101B480013348A088B098C0A8D0B740F1212BC7817
:101B58000C121141908198780812111B9081987885
:101B68000C12111B7808790C120F5350157808794C
:101B78000C1210F39081407808120F734015790108
:101B88008013780C79081210F3908140780C120FAA
:101B98007340EB79007F080213E074ED1213348A66
:101BA800088B098C0A8D0B74131212BC780C121155
:101BB80041908198780812111B908198780C121125
:101BC8001B780C7908120F5340117808790C121001
:101BD800F3AA08AB09AC0AAD0B8022751000751189
:101BE800007512007513017810790C1210F3781033
:101BF80079081210BAAA10AB11AC12AD137F0C02FF
:101C080013E090819878081211418A828B837808B2
:101C180012112E7F040213E074F51213348C828D96
:101C28008378081211418A828B837808121107EA97
:101C38002404F8EB3400F98C828D83A3A3A3A3E0DA
:101C4800FCA3E0FD88828983C3E09CF0A3E09DF0BB
:101C580088828983C3E09420A3E0944E4022908137
:101C68008078081211418A828B8378081210E08AE2
:101C7800828B83A3A3A3A3E02420F0A3E0344EF037
:101C8800808074F5121334E9FE900510E0FAA3E0A1
:101C9800FBEEC333F8E433F974A428F58274803971
:101CA800F583E02AF508A3E03BF50978081214DB70
:101CB80090817C12115F121AF474021212878A083A
:101CC8008B098C0A8D0B74107808121082AA08AB45
:101CD800097F040213E074F11213348A0C8B0D8C03
:101CE8000E8D0F740F1212BCE0FAA3E0FB741112F0
:101CF80012BCE0F508A3E0F50974131212BCE0FE6B
:101D0800A3E0FF78081214DBEA2401F508EB34009D
:101D1800F509E4F50AF50B780C7908120F92908111
:101D28004C7808121141780C7908120F92AA0CAB62
:101D38000DAC0EAD0F121AF474021212878B09EA59
:101D4800450960047A0180027A00EC2AFCED34002F
:101D5800FDECF8EDF97A717B021211E68808890921
:101D6800E4F50AF50B8E828F837808121150ECF88F
:101D7800EDF97A717B021211E68A088B09740578ED
:101D88000812125E8E828F83A3A3A3A3E508F0A393
:101D9800E509F07F080213E0C082C083E990600083
:101DA800F0D083D08222C0E074F2121420A2AFE4F3
:101DB80033FED2AFC2C0E5D1A2E4500653D1EF1230
:101DC8000E48EEA2E092AF7F0102147FC0E074F2E9
:101DD800121420A2AFE433FED2AFE589A2E0400698
:101DE800E589A2E15003120DEE758900758900C2DC
:101DF800C5EEA2E092AF7F0102147FC0E0C0D0E838
:101E0800C0E0E5A8D2AFC2C7A2E792AFD0E0F8D051
:101E1800D0D0E032C0E0C0D0E8C0E0E9C0E0C008FF
:101E2800C009C082C083A2AFE433F9D2AF9009F8E9
:101E3800E0F8A3E0687008539AFBA374018026C2F7
:101E4800E99009F8E0F50874012508F07478250888
:101E5800F58274093400F583E0F5C19009F8E0C310
:101E680094804002E4F0E9A2E092AFD083D082D01F
:0E1E780009D008D0E0F9D0E0F8D0D0D0E032A8
:101E8800FFFFFFFFFFFFFFFFC082C08390619074D8
:101E980004F0A37448F0A37402F09061807440F0D9
:101EA8009061BC7403F09061877419F09062657456
:101EB8001BF090619C740DF090619A7433F0A374D8
:101EC80055F09061A0743AF0900558E064017009EB
:101ED800C2919003C2746780059003C27461F09048
:101EE8001E8EE493906186F0901E88E493F4602738
:101EF800E493540FF8906185E0686012E5C6548059
:101F08004449F5C6E59E547F644970F8E8F053C625
:101F180080E59E547F70FA7905120A640220A5C0F4
:101F280082C083E5A8F853A87E906181E4F0A3F00D
:101F3800A3F0C2BA539AFEC289759B00C2C275E962
:101F48000075910075BF0075A91175B9059061817B
:101F5800F0A374C0F0A3E4F0D2BA439A0174805895
:101F680042A80220A5C082C08374F812127190039F
:101F7800C0E0F8A3E0F9E849700302209B9003C091
:101F8800E0544060237908851882851983AA82ABBA
:101F9800831208EA851882851983AA82AB83120501
:101FA800DE9003C0E054BFF0E054806010790C7AF2
:101FB8007C7B051208EA9003C0E0547FF0E0A2E0C1
:101FC800503190619A7433F0A37455F09061A07405
:101FD8003AF0900558E064017009C2919003C27408
:101FE8006780059003C27461F01205E49003C0E0B5
:101FF80054FEF0E05402603190619A743FF0A3748B
:102008005AF09061A0747FF0900558E0640170095F
:10201800D2919003C2747180059003C2746AF01261
:1020280005E49003C0E054FDF0E054046013901EF2
:102038008CE493906186F01205EA9003C0E054FBAB
:10204800F0E054086013901E8DE493906186F012BE
:1020580005EA9003C0E054F7F0E054106013901EB6
:102068008EE493906186F01205EA9003C0E054EF85
:10207800F0E05420600A1205EA9003C0E054DFF053
:10208800A3E05401600D1208121205F09003C1E09C
:1020980054FEF074081212878003F0A3F0D083D0A6
:1020A8008202012274EC1212C874F412127185189B
:1020B80082851983AC82AD8375838175825C7404D3
:1020C800121184901E8C93F46003022239907808D0
:1020D800E0C39402500302221974041212BCAC82A9
:1020E800AD837583817582127408121184851882F4
:1020F80085198385821285831374041212BCAC82FD
:10210800AD83750EFF750FFF7FFF7E00750C487558
:102118000D78801574086E70030221AC74096E7016
:10212800030221AC740A6E607B850C82850D83786E
:10213800081211418C828D83A909E50AC9F8881013
:1021480074187808121082E5104508F8C3E098A3BF
:10215800E099850C82850D83780812114140188C0E
:10216800828D8374187808121082E5104508F8E00B
:10217800C398F8A3E0801C74187808121082E51040
:102188004508FAE9FB8C828D83E0F8A3E0F9EAC3FD
:1021980098F8EB99F9C3E8950EE9950F5006880E63
:1021A800890FEEFF0EE50C2404F50CE50D3400F55F
:1021B8000DEEC39413500302211C74FF650E7004C6
:1021C80074FF650F60238F087402780812125E741A
:1021D800482508F58274783509F583780812114185
:1021E800851282851383E508F0EC24020C0CED348B
:1021F80000FD851282851383A3858212858313745B
:102208000C1212BCE5826C7003E5836D6003022139
:102218000A75080175090078081214DB7402121295
:10222800BCAC82AD837AA37B07120DD07402121264
:1022380087740C1212877F0C02139AC082C0839095
:1022480061AE7468F0A3746AF090624574FBF0A301
:1022580004F053F4FD43FE029005587401F09061B8
:10226800A0E0643A90619A70237433F0A37455F037
:102278009061A0743AF0740164017009C2919003EE
:10228800C2746780289003C274618021743FF0A3F0
:10229800745AF09061A0747FF0740164017009D2DF
:1022A800919003C2747180059003C2746A0220A4DD
:1022B8007F0402139AC082C08390050AE06401700B
:1022C8000A90050FE06004790C800279000220A5CD
:1022D800C082C08375E1F190050DE0605514600877
:1022E8001460591460518059120824900503E0F9CC
:1022F8007A047B051209E690815812115F120A1CB4
:1023080090814412115F1209F290050EE0F912094A
:10231800FE7901120A58900501E02416F8A3E0346A
:1023280000F988828983743CF0A37408F07900026C
:1023380020A512082A80B412083080AF120836800F
:10234800AA791280EA74F41212C875D90D9004F2B1
:10235800E0A2E0E4331313F8900503E0C4333354E8
:10236800C0484401F5D97801790588828983A3A3F7
:10237800A3E0F5D988828983A3A882A983E86407A2
:102388007003E9640570E378F2790488828983A38D
:10239800E0F5D988828983A3A882A983E864F870C4
:1023A80003E9640470E575E1959004F2E0F97AF3C5
:1023B8007B041209EC900B6374D6F0A37407F0A3A6
:1023C8007432F0A37409F0A37432F0A37409F0A373
:1023D8007432F0A37409F0A374DCF0A37407F0A3BB
:1023E8007432F0A37409F0A374F4F0A37407F090A6
:1023F8000B717432F0A37409F0A37432F0A374095A
:10240800F0A37432F0A37409F0A37432F0A3740932
:10241800F0A37432F0A37409F0A37432F0A3740922
:10242800F0900501E0F8A3E0F5838882A3A378087B
:1024380012114190815478081210CD908198780833
:1024480012111B900501E0240EF8A3E03400F9886E
:102458008289837808121150900501E02414F8A3AA
:10246800E03400F9888289837413F09003BE740203
:10247800F00222B8C082C083900513E02407F5D982
:10248800900503E0C4333354C0F5D9780179058841
:10249800828983A3A3A3E0F5D988828983A3A8822C
:1024A800A983E864077003E9640570E3900513E005
:1024B800601F78017905FAE82413F582E93400F5FC
:1024C80083E0F5D988828983A3A882A9831AEA7050
:1024D800E6900533E02407F5D9900503E0C43333CB
:1024E80054C04404F5D97801790588828983A3A367
:1024F800A3E0F5D988828983A3A882A983E8640721
:102508007003E9640570E3900533E0601F78017992
:1025180005FAE82433F582E93400F583E0F5D98833
:10252800828983A3A882A9831AEA70E675E1959047
:102538000B6374E2F0A37407F0A37432F0A3740978
:10254800F0A37432F0A37409F0A37432F0A37409F1
:10255800F0A374DCF0A37407F0A37432F0A3740939
:10256800F0A374F4F0A37407F0900B717432F0A325
:102578007409F0A37432F0A37409F0A37432F0A3C1
:102588007409F0A37432F0A37409F0A37432F0A3B1
:102598007409F0A37432F0A37409F09081801211C9
:1025A8005F900501E0240EF8A3E03400F9888289E1
:1025B8008312116B900501E02414F8A3E03400F9AC
:1025C800888289837412F09003BE74010220A4C02B
:1025D80082C083900513E02407F5D9900503E0C471
:1025E800333354C04402F5D9780179058882898348
:1025F800A3A3A3E0F5D988828983A3A882A983E845
:1026080064077003E9640570E3900513E0601F78C0
:10261800017905FAE82413F582E93400F583E0F539
:10262800D988828983A3A882A9831AEA70E675E10A
:1026380095900B6374EEF0A37407F0A374EEF0A307
:102648007407F0A374EEF0A37407F0A374EEF0A37C
:102658007407F0A374EEF0A37407F0A374EEF0A36C
:102668007407F0A374F4F0A37407F0900B7174323C
:10267800F0A37409F0A37432F0A37409F0A37432C0
:10268800F0A37409F0A37432F0A37409F0A37432B0
:10269800F0A37409F0A37432F0A37409F090818058
:1026A80012115F900501E0240EF8A3E03400F988C8
:1026B80082898312116B900501E02414F8A3E03499
:1026C80000F9888289837414F09003BE7404022090
:1026D800A4C082C083900513E02407F5D9900503B0
:1026E800E0C4333354C04406F5D9780179058882AB
:1026F8008983A3A3A3E0F5D988828983A3A882A9A3
:1027080083E864077003E9640570E3900513E060EB
:102718001F78017905FAE82413F582E93400F58376
:10272800E0F5D988828983A3A882A9831AEA70E68A
:10273800900533E02407F5D9900503E0C4333354FA
:10274800C04404F5D97801790588828983A3A3A3B5
:10275800E0F5D988828983A3A882A983E8640770F1
:1027680003E9640570E3900533E0601F780179059B
:10277800FAE82433F582E93400F583E0F5D9888254
:102788008983A3A882A9831AEA70E675E195900B5C
:102798006374E8F0A37407F0A37432F0A37409F02B
:1027A800A37432F0A37409F0A37432F0A37409F08F
:1027B800A37432F0A37409F0A37432F0A37409F07F
:1027C800A374F4F0A37407F0900B717432F0A3743F
:1027D80009F0A37432F0A37409F0A37432F0A3745F
:1027E80009F0A37432F0A37409F0A37432F0A3744F
:1027F80009F0A37432F0A37409F090818012115F7C
:10280800900501E0240EF8A3E03400F9888289835A
:1028180012116B900501E02414F8A3E03400F98844
:102828008289837415F09003BE74030220A4C082C9
:10283800C083900501E0F8A3E0F5838882A3A3A3F1
:10284800A3A3A3E40220A274F71212C89003ECE039
:10285800F875F004A4C8AAF02AF974EE28F87403ED
:1028680039F9E82405FAE93400FB8A828B83E0FC15
:10287800A3E0FD88828983A3A3A3A3A3A3A3A3A3FF
:10288800ECF0A3EDF088828983A3A3A3A3A3A3A359
:10289800E024FFF8A3E034FFF98A828B83E8F0A3F1
:1028A800E9022AF474F71212C8EAFEEBFF9061D02D
:1028B800E0600302298975D90E75D90375D904EE2C
:1028C800248CF582EF3400F583E5822408F8E5834B
:1028D8003400F9E0F5D9A3E865827003E9658370EF
:1028E800F2EE2484F582EF3400F583E5822404F8BF
:1028F800E5833400F9E0F5D9A3E865827003E9655A
:102908008370F275E1957908EE248CFAEF3400FBB8
:102918001208DE7904EE2484FAEF3400FB1208DE94
:102928007C00EEF8EFF9ECFAC3E49AFA95E0FBEED6
:102938002AFAEF3BFBEA248BF582EB3400F583E0BF
:10294800C0E0E824ABF582E93400F583D0E0F00C70
:1029580088828983A3A882A983ECC3940840C7EE20
:102968002470F582EF3400F583E0F8A3E0F9EE2453
:1029780072F582EF3400F583E8F0A3E9F07901807D
:10298800027900022AF5C082C08375D90275D9037D
:1029980075D90575E195EA2470F582EB3400F58365
:1029A800E0F8A3E0F9EA2472F582EB3400F583E855
:1029B800F0A3E9F079010220A574F61212C8EAFE24
:1029C800EBFF90055C7406F075085C7509057808DE
:1029D8001214DB7C0179031209267402121287751E
:1029E800D90675D90375825C758305E0F5D9A3E529
:1029F8008264617004E583640570F075E195900365
:102A0800BEE06408701EEE2470F582EF3400F58392
:102A1800E0F8A3E0F9EE2472F582EF3400F583E8DC
:102A2800F0A3E9F07901022BC174F61212C8EAFE8C
:102A3800EBFF9061D0E07066780190055C740BF054
:102A48009003BEE06407701975085C75090578087D
:102A58001214DB7C0179031209267402121287789A
:102A680005740128F5D975D90375825C758305E865
:102A7800FAE0F5D9A31AEA70F875E195EE2470F535
:102A880082EF3400F583E0F8A3E0F9EE2472F582D2
:102A9800EF3400F583E8F0A3E9F0790180027900CA
:102AA800022BC174F71212C8EAFEEBFF75D9037541
:102AB800D90375D90DEE24DEF582EF3400F583E0F5
:102AC800F5D975E1957904120A22EE2470F582EFA2
:102AD8003400F583E0F8A3E0F9EE2472F582EF34D0
:102AE80000F583E8F0A3E9F079018001F07F0102A5
:102AF800139A74F61212C8EAFEEBFF9061D0E0F860
:102B08007480C398FAEE2483F582EF3400F583E0ED
:102B18006004780480027800E8240BF8EAC398502F
:102B280003022BBF7D0990055CEDF0EE24E3F8EF7E
:102B38003400F97A5D7B057C0888828983E08A8283
:102B48008B83F088828983A3A882A9838A828B8356
:102B5800A3AA82AB831CEC70E0EE2483F582EF34E9
:102B680000F583E0601D75085C7509057808121486
:102B7800DB7C097903EEFAEFFB12092674021212C4
:102B8800877D0D74012DF5D975D90375825C758320
:102B9800058D08E0F5D9A31508E50870F675E195E7
:102BA8007904120A22EE241DF582EF3400F583E43D
:102BB800F0A3F07901800279007F0202139A74F67B
:102BC8001212C8EAFEEBFF9061D0E0F87480C39857
:102BD800FAEE2483F582EF3400F583E0600478048C
:102BE80080027800E82408F8EAC3985003022CC64B
:102BF8007D0690055C740CF09003DBE090055DF0B9
:102C08007ADC7B03785E79057C028A828B83E08894
:102C1800828983F08A828B83A3AA82AB8388828984
:102C280083A3A882A9831CEC70E07ADE7B037C0274
:102C38008A828B83E088828983F08A828B83A3AA25
:102C480082AB8388828983A3A882A9831CEC70E065
:102C5800EE2483F582EF3400F583E0601D75085C8F
:102C680075090578081214DB7C067903EEFAEFFB88
:102C780012092674021212877D0A74012DF5D9757E
:102C8800D90375825C7583058D08E0F5D9A315080D
:102C9800E50870F675E1957904120A22EE2470F5BC
:102CA80082EF3400F583E0F8A3E0F9EE2472F582B0
:102CB800EF3400F583E8F0A3E9F0790180027900A8
:102CC800022BC174F61212C8EAFEEBFF9061D0E045
:102CD800F87480C398FAEE2483F582EF3400F58304
:102CE800E06004780480027800E82404F8EAC398D5
:102CF8005003022DA5780290055CE8F0EE24F5F566
:102D080082EF3400F583E090055DF0EE2483F582D0
:102D1800EF3400F583E0601B75085C7509057808D9
:102D28001214DB7C027903EEFA12092674021212DD
:102D3800877806740128F5D975D90375825C75837F
:102D4800058808E0F5D9A31508E50870F675E1953A
:102D5800EE2474F582EF3400F583E4F0EE2480F578
:102D680082EF3400F583E4F0EE241DF582EF3400A1
:102D7800F583E4F0A3F07904120A22EE240DF5821B
:102D8800EF3400F583E0F8A3E0F9EE2472F582EF62
:102D98003400F583E8F0A3E9F079018002790002B4
:102DA8002BC174F61212C89061D0E0F87480C398F1
:102DB800FCEA2483F582EB3400F583E060047804B0
:102DC80080027800E82404F8ECC398405B7902900C
:102DD800055C7407F0EA24F6F582EB3400F583E02D
:102DE80090055DF0EA2483F582EB3400F583E0601A
:102DF8001875085C75090578081214DB7C0209123D
:102E0800092674021212877906740129F5D975D931
:102E18000375825C758305E9F8E0F5D9A318E870B5
:102E2800F875E195790180027900022BC174F512D9
:102E380012C8E9FCA2AFE433F50AC2AF7D008001F5
:102E48000DEA246FF582EB3400F583E0F8EDC398C2
:102E5800501A8D08EA2508F8EB3400F9E8246BF5D8
:102E680082E93400F583E06C70D68024EA246FF898
:102E7800EB3400F9E0FEEA2EFAEB3400FBEA246BAF
:102E8800F582EB3400F583ECF088828983E004F066
:102E9800E50AA2E092AF7F0302139A74F61212C8F1
:102EA800A2AFE433FDC2AFEA246FF582EB3400F53C
:102EB80083E014F07C0060368C08EA2508F8EB34CF
:102EC80000F9E8246CF582E93400F583E0C0E0E815
:102ED800246BF582E93400F583D0E0F00CEA246F26
:102EE800F582EB3400F583E0F8ECC39840CAEA2495
:102EF8006EF582EB3400F58374FFF0EA246AF582FC
:102F0800EB3400F583E4F0EDA2E092AF022BC1C0F0
:102F180082C083E5A8F8C2AFEA246BF582EB3400DF
:102F2800F583E9F0EA246AF582EB3400F583E4F0EE
:102F3800E8A2E792AF0220A574F31212C8EAFEEBEA
:102F4800FFECFAEDFB8A828B83A3A3A3A3E0541FB3
:102F5800F0EE2436F582EF3400F583E4F0F50AEE5E
:102F6800FCEFFD8A828B83E0C0E0EC245DF582ED06
:102F78003400F583D0E0F0750B00E50A33333354A1
:102F8800F8F50C8A828B83E0F508750900E50B7863
:102F98000812123FE508A2E0502FEE2436F8EF346D
:102FA80000F988828983E0F508EE2508F508EF34F2
:102FB80000F509E5082438F582E5093400F583E5CC
:102FC8000CF088828983E004F0050B050CE50BC33F
:102FD800940840AF050A8A828B83A3AA82AB838CAC
:102FE800828D83A3AC82AD83E50AC39405500302A6
:102FF8002F6B7F0502139A74F71212C89003EAE048
:10300800640170077A007B000231767E009003F03D
:10301800E070F17401F0A3E4F0A3F090045004F020
:10302800900453E4F0A3F090045604F09003F3E402
:10303800F0A3F0A3F0A3F09003FD04F0900423E4C0
:10304800F090817412115F90040612116B90040ABB
:10305800E4F0A3F0A3F090046EF0900462F0900402
:10306800577480F0A3E4F090045DF0900455F0905C
:1030780004D9F0A3F0A3F0A3F0A3F0A3F0A3F0A366
:10308800F09004E2F0900471F09004C1F0A3F09085
:10309800817412115F9004C312116B908174121124
:1030A8005F9004C712116B9004CDE4F09004CFF048
:1030B8009004CBF09004E5F0A3F0A3F0A3F0A3F004
:1030C800A3F0A3F0A3F078EA7903E8246FF582E986
:1030D8003400F58374FFF00E88828983A3A882A93F
:1030E80083EEC3940440E37AEA7B0378F979048891
:1030F800828983E0C0E0EA2461F582EB3400F5833D
:10310800D0E0F088828983A3A882A9838A828B83EE
:10311800A3AA82AB83E864FE7003E9640470D07AE2
:10312800EA7B0378D1790388828983A3E0C0E0EA47
:1031380024E7F582EB3400F583D0E0F088828983B8
:10314800A3A882A9838A828B83A3AA82AB83E8641B
:10315800D97003E9640370CF9003EAE004F06401D6
:1031680070089003F2E09003ECF07AEE7B03022AF9
:10317800F5C082C0839003F1E4F09003F0F090036F
:10318800EAF0A3F0A374FFF075E1F10220A5C08274
:10319800C083780079009003F1E0600478EE790349
:1031A80088828983A3A3A3A3E0F90220A574F61259
:1031B80012C8EAFEEBFF8E828F83A3A3A3E0600F01
:1031C8008E828F83A3A3A3E4F09003EBE014F09026
:1031D80003EAE014F070069003EC74FFF08E828F1F
:1031E80083A3A3E4F09004FEE0700D9003EBE06489
:1031F8000170057900120A04EE2465F582EF3400A7
:10320800F583E0F8A3E0F9E8496029EE2465F8EFD2
:103218003400F9880889098882F583E0FCA3E0FD79
:103228009003ECE0FA7B0012061485088285098376
:10323800E4F0A3F0EEFAEFFB120956022BC174F783
:103248001212C8EAFEEBFF8E828F83A3A3A3A3E02A
:10325800FA7B00120656EEFAEFFB1208A812093E96
:10326800022AF5C082C08378D1790388828983A332
:10327800E4F088828983A3A882A983E864D97003CB
:10328800E9640370E69003D20225D274F61212C8DC
:10329800EAFEEBFFEC2403F8ED3400F9880889090D
:1032A800EC2407F8ED3400F9E8FCE9FD8C828D8305
:1032B800E0F8A3E0F9850882850983E0FAA3E0FB3A
:1032C8001211E6EE240DF582EF3400F583E8F0A341
:1032D800E9F08C828D83E0F8A3E0F98508828509FE
:1032E80083E0FAA3E0FB1211E68B09EA45096013B3
:1032F800EE240DF582EF3400F583E02401F0A3E01D
:103308003400F0022BC174F61212C8EAFEEBFFEE8D
:10331800242EF582EF3400F583E0FCA3E0FD78006D
:1033280079FAECFAEDFB1211E6EE2470F582EF342F
:1033380000F583E8F0A3E9F0780079FAECFAEDFB00
:103348001211E68B09EA45096013EE2470F582EF45
:103358003400F583E02401F0A3E03400F0022BC12F
:1033680074F01212C8EAFEEBFF74101212BC78084F
:103378001211411209C88A0C8B0D8C0E8D0F908189
:1033880048780C1210CD908198780C12111B780C8B
:103398001214D78E828F83E0F8A3E0F5838882A386
:1033A800A312115F121B457404121287E96003020D
:1033B80034B58E828F83E02402F8A3E03400F9E864
:1033C800FAE9FB8A828B8378081210E0908198785A
:1033D800081211418A828B83780812112EEE240B71
:1033E800F582EF3400F583C082C0838E828F83A379
:1033F800A3A3A3A3E02401F8A3E03400F9D083D069
:1034080082E0687003A3E069700579010234B78E21
:10341800828F83A3A3A3A3A3A3A3E02401F0A3E023
:103428003400F0EE2474F582EF3400F583E0640193
:103438007036EE2475F582EF3400F583E0F8A3E0EA
:10344800F98E828F83A3A3A3A3A3A3A3E068700329
:10345800A3E0697013EE2475F582EF3400F583E07C
:103468002401F0A3E03400F0EE2480F582EF34006C
:10347800F583E064017036EE2481F582EF3400F5BF
:1034880083E0F8A3E0F98E828F83A3A3A3A3A3A369
:10349800A3E0687003A3E0697013EE2481F582EF5E
:1034A8003400F583E02401F0A3E03400F079007FD4
:1034B8000802139A74F71212C89003ECE0F875F03A
:1034C80004A4C8AAF02AF974EE28FE740339FF8010
:1034D80028EE2465F8EF3400F988828983E0FCA39C
:1034E800E0FD88828983E4F0A3F08E828F83A3A312
:1034F800A3A3E0FA7B00120614EE2465F582EF34EC
:1035080000F583E0F8A3E0F9E849604FEE2464F59C
:1035180082EF3400F583E0F50878081214DFEE2412
:1035280063F582EF3400F583E0F9EE2465F582EF68
:103538003400F583E0FCA3E0FDEEFAEFFB1208D2BD
:103548007401121287E96089EE2465F582EF340070
:10355800F583E0F8A3E0F9E84970137C007D008E5C
:10356800828F83A3A3A3A3E0FA7B00120614022A86
:10357800F574F21212C8EAFEEBFF890A740E1212F1
:10358800BCE0FAEE2462F582EF3400F583E06401D2
:1035980060030236459061D0E0F87480C398F50C5A
:1035A800EE2483F582EF3400F583E060047804802C
:1035B8000278008908E928F8E43400F9E8240208C8
:1035C80008E93400F9E50C98E499A2D265D03340B3
:1035D80068EA7005750B028003750B01E0603975A8
:1035E800090078081214DB7A5C7B0512090874025A
:1035F80012128775085C75090578081214DBAC0A85
:10360800A90BEEFAEFFB1209267402121287740452
:10361800250AF50A7C5C7D057401250AF5D9850B18
:10362800D9E50A600D8C828D83F8E0F5D9A318E8F6
:1036380070F875E195790080067907800279FF7F37
:103648000602139AC082C083E960208C828D83E0D1
:103658008A828B83F08C828D83A3AC82AD838A822D
:103668008B83A3AA82AB8319E970E0ECFAEDFB0225
:1036780020A574EA1212C8907803E06442705E9044
:10368800055BE014F07056C2AF12369400782AD069
:10369800E0F618D0E0F6E59F5407F9700590812010
:1036A80080039081247808121141E9C4C0E0782988
:1036B800E65508F50808E65509F509740B78081267
:1036C800124FD0E02508F8906270E0A2E740F8E8D1
:1036D800C333906272F0906270E0D2E0F09003EC35
:1036E800E0F47003023A9DE0F875F004A4C8AAF06B
:1036F8002AF974EE28FE740339FFEE2402F582EFEE
:103708003401F583E0F8A3E0F9E849601EEE2402ED
:10371800F582EF3401F583E0FAA3E0FBEE2401F52E
:1037280082EF3401F583E0F9120C508E828F83A367
:10373800A3A3A3A3A3A3E0F8A3E0F98E828F83A396
:10374800A3A3A3A3E8F0A3E9F0906054E09003C515
:10375800F0906055E09003C6F0906056E09003C783
:10376800F0906057E09003C8F0906058E09003C96B
:10377800F0906059E09003CAF090605AE09003CB53
:10378800F090605BE09003CCF090605CE0FC90030C
:10379800CDF090605DE0FB9003CEF090605EE0FDC0
:1037A8009003CFF090605FE0FA9003D0F09003CBE5
:1037B800E08C082508F8E43400F98D08E82508F8B5
:1037C800E93400F98B08E82508F8E93400F98A0893
:1037D800E82508FAE93400FBEE24F7F582EF340017
:1037E800F583E02AF0A3E03BF08C08EE24F9F5829B
:1037F800EF3400F583E02508F0A3E03400F0EE2470
:10380800FBF582EF3400F583E02401F0A3E03400F7
:10381800F0EE24FFF582EF3400F583E0F8A3E0F939
:10382800E8496042906000E0C333FCE433FDE82CD3
:10383800F582E93DF583E02AF0A3E03BF0906000D3
:10384800E0FA9003CDE0FCEAC333FAE433FBE82A5C
:10385800F8E93BF9E8244AF582E93400F583E02CDD
:10386800F0A3E03400F09003CBE070119003CEE0B9
:10387800700BA3E07007A3E0700302397D8E828F7E
:1038880083A3A3A3A3A3E0F8A3E0F9EE240DF58294
:10389800EF3400F583E028F8A3E039F9EE240BF5BE
:1038A80082EF3400F583E8F0A3E9F0EE240FF58207
:1038B800EF3400F583E4F0EE241CF582EF3400F5D4
:1038C80083E06401701EEE2420F582EF3400F58356
:1038D800E0F8A3E0F9EE241DF582EF3400F583E863
:1038E800F0A3E9F09003C6E06052EE241CF582EFE5
:1038F8003400F5837401F0EE246AF582EF3400F5A4
:1039080083E07038EE2474F582EF3400F583E070BC
:103918002BEE2480F582EF3400F583E0701EEE2450
:1039280020F582EF3400F583E0F8A3E0F9EE241DDA
:10393800F582EF3400F583E8F0A3E9F0906062E0E7
:103948007003023A308E828F83E0F8A3E0F9E8240E
:1039580006FCE93400FDE82402FAE93400FB120908
:10396800C28E828F83E02412F8A3E03400F98882A3
:103978008983023A3A9003CDE0603AEE240FF5824B
:10398800EF3400F583E4F0EE241CF582EF3400F503
:1039980083E064017040EE2420F582EF3400F58363
:1039A800E0F8A3E0F9EE241DF582EF3400F583E892
:1039B800F0A3E98020EE24FDF582EF3400F583E0E2
:1039C8002401F0A3E03400F0EE241DF582EF34006A
:1039D800F583E4F0A3F0EE240BF582EF3400F583D1
:1039E800E0F8A3E0F98E828F83A3A3A3A3A3E068E2
:1039F8007003A3E06960030238ECEE240FF582EF50
:103A08003400F583E060128E828F83A3A3A3A3A35F
:103A1800E064057002A3E0600B7908EEFAEFFB1290
:103A280008AE8071793E80F3EE241DF582EF3400F4
:103A3800F583E4F0A3F0906060E0C0E0EE2469F55F
:103A480082EF3400F583D0E0F09003CBE0F8EE2469
:103A580067F582EF3400F583E028023B9D90055915
:103A6800E064017035120A70EE2467F582EF3400C5
:103A7800F583E070069060607480F0EEFAEFFB1258
:103A8800098CE96401600E1208CC120986E9640108
:103A9800600312093E7F0E02139AEE2483F582EF2B
:103AA8003400F583E06004780480027800E50CC3F4
:103AB80098F91206088A0A8B0BEA450B60A7EE24D0
:103AC80083F582EF3400F583E070048A088B09E5FA
:103AD8000C6012850882850983F512E5D9F0A315D3
:103AE80012E51270F6EE2483F582EF3400F583E0D8
:103AF800603774FC250CF50C78081214DBAC0CA9A3
:103B08000DEEFAEFFB12092C7402121287E97019F4
:103B18007403650D7003023BDDE50A24FBFAE50B2F
:103B280034FFFB120C92023BDD7403650D70030237
:103B38003BE2850C0E750F00780E1214DBAC08AD55
:103B480009AA0AAB0B1209087402121287EE24693B
:103B5800F582EF3400F583E064807004747F80019F
:103B6800E0F50878081214DFE50DF5087808121456
:103B7800DFA90CAC0AAD0B9003ECE0FA7B0012064F
:103B88000E7402121287120A7CEE2467F582EF3453
:103B980000F583E014F0E07003023A7D75085C7567
:103BA8000905750A00750B00E5D914F50CE5D9541B
:103BB80003F50D60207403650D7003023AD7E50C18
:103BC8007003023A65EE2468F582EF3400F583E06D
:103BD8006003023A65793D023A23850882850983A4
:103BE800E0F8A3858208858309603B147003023DD1
:103BF800DA1470030240CE147003023E3824FD70BC
:103C080003023F58147003023B8E147003023FAE48
:103C180024FE7003023F67147003023FA914700367
:103C2800024043024052EE2477F510EF3400F511BC
:103C3800E0851082851183F0850882850983A38534
:103C48008208858309EE2478F50EEF3400F50F79A4
:103C580002AC08AD09AA0EFB1208D88A088B09EE37
:103C6800247AF50CEF3400F50D7902AC08AD09AAF9
:103C78000CFB1208D88A088B097902AC08AD09EE4A
:103C8800247CFAEF3400FB1208D88A088B09EE244A
:103C98007EF50AEF3400F50B7902AC08AD09AA0AE3
:103CA800FB1208D88A088B09851082851183E0C326
:103CB80033F0850E82850F83E0F8A3E0F9E8C3337B
:103CC800F8E933F9850E82850F83E8F0A3E9F085DA
:103CD8000C82850D83E0F8A3E0F9E8C333F8E933F3
:103CE800F9850C82850D83E8F0A3E9F0850A8285C1
:103CF8000B83E0F50CA3E0F50D7404780C12125E4A
:103D0800850A82850B83E50CF0A3E50DF0EE24759A
:103D1800F50AEF3400F50B7902AC08AD09AA0AFBE5
:103D28001208D8850A82850B83C082C0838E828F51
:103D380083A3A3A3A3A3E0F8A3E0F9D083D082E0F0
:103D4800C398F8A3E099F9C3E894FFE9947F400584
:103D58007928023A23EE247CF582EF3400F583E0DB
:103D68002401F508A3E03400F509E4F50AF50BEEA3
:103D7800247AF582EF3400F583E0F8A3E0F9E8C38C
:103D880033F8E933F9880C890DE4F50EF50F780856
:103D9800790C120F92EE247EF582EF3400F583E061
:103DA800F50CA3E0F50D780C7908120F534005794E
:103DB8003B023A23EE2474F582EF3400F583740154
:103DC800F0EE241DF582EF3400F583E4F0A3F00251
:103DD8003B8EEE2481F50AEF3400F50B7402C0E047
:103DE8007905AC08AD097AF97B041208D8EAFCEB2E
:103DF800FDD0E0F9AA0AAB0B1208D8850A82850B18
:103E080083C082C0838E828F83A3A3A3A3A3E0F879
:103E1800A3E0F9D083D082E0C398F8A3E099F9C36E
:103E2800E894FFE9947F4003023D58EE24808087A0
:103E3800EE24E2F582EF3400F583E07039EEF8EF16
:103E4800F97AD17B038A828B83A3E0C0E0E824E37C
:103E5800F582E93400F583D0E0F08A828B83A3AA47
:103E680082AB8388828983A3A882A983EA64D970F4
:103E780003EB640370CFEE24E3F582EF3400F5839F
:103E8800E0A2E0EE401824DEF582EF3400F58374FA
:103E98001AF0790DEEFAEFFB12087E023B8E2462CF
:103EA800F582EF3400F583E4F0EE2468F582EF3410
:103EB80000F583E4F0EE24E1F582EF3400F5837435
:103EC80001F07908AC08AD09EE249CFAEF3400FB48
:103ED8001208D88A088B097902AC08AD09EE24A427
:103EE800FAEF3400FB1208D88A088B09EE2494F5FF
:103EF8000AEF3400F50B7908AC08AD09AA0AFB12E1
:103F080008D88A088B097908AA0AAB0B1208DEEED2
:103F18002488F50AEF3400F50B7904AC08AD09AA3A
:103F28000AFB1208D87904AA0AAB0B1208DEEE24A1
:103F38008CFAEF3400FB1208F0EE2484FAEF340018
:103F4800FB1208F69003C0E04480F07904023E9C1E
:103F5800EE24DFF582EF3400F5837401023DD6EEDE
:103F68002462F582EF3400F583E4F0EE2468F582EC
:103F7800EF3400F583E4F0EE24D3F582EF3400F556
:103F880083E4F0EE24DDF582EF3400F5837401F06C
:103F9800EE24D4F582EF3400F583E4F0790B023E89
:103FA8009CEE24E080ADEEF8EFF97AD17B038A82AB
:103FB8008B83A3E0C0E0E824E3F582E93400F583CD
:103FC800D0E0F08A828B83A3AA82AB83888289831C
:103FD800A3A882A983EA64D97003EB640370CFEEC7
:103FE800F8EFF97AD17B038A828B83A3C082C083DE
:103FF800850882850983E0D083D082FCE05CC0E03C
:10400800E824E3F582E93400F583D0E0F0850882FE
:10401800850983A38582088583098A828B83A3AA5D
:1040280082AB8388828983A3A882A983EA64D97032
:1040380003EB640370B17909023E9CEE24EBF58230
:10404800EF3400F583E064017011EE24F6F582EF99
:104058003400F583E8F07907023E9C8508828509DB
:1040680083E0C0E0EE24EEF582EF3400F583D0E083
:10407800F0850882850983A38582088583097402EF
:10408800C0E0F9AC08AD09EE24EFFAEF3400FB12FA
:1040980008D8EAFCEBFDD0E0F9EE24F1FAEF3400A1
:1040A800FB1208D8EE24EBF582EF3400F583740197
:1040B800F0EE24EDF582EF3400F583E06003023B77
:1040C8008E790C023E9CEE24F5F8EF3400F9E08876
:1040D800828983F0EE24F4F582EF3400F5837401CD
:1040E800F088828983E0F9023A2353BFEF02012264
:1040F80074F01212C89003ECE0F875F004A4C8AA92
:10410800F02AF974EE28FE740339FF9061D0E0605C
:104118000FEE241DF582EF3400F583E4F0A38053FD
:10412800EE246AF582EF3400F583E07047EE2474DC
:10413800F582EF3400F583E0703AEE2480F582EFE3
:104148003400F583E0702DEE241CF582EF3400F581
:1041580083E06401701EEE2420F582EF3400F583BD
:10416800E0F8A3E0F9EE241DF582EF3400F583E8CA
:10417800F0A3E9F08E828F83A3A3A3A3A3E0F8A3FF
:10418800E0F9EE241DF582EF3400F583E028F8A36A
:10419800E039F9E8240108E93400F9EE2407F50AC2
:1041A800EF3400F50B850A82F583E8F0A3E9F0EE19
:1041B800240BF582EF3400F583C3E098A3E099500F
:1041C800358E828F83A3A3A3A3A3A3A3C082C08396
:1041D800EE240BF582EF3400F583E0F8A3E0F9D084
:1041E80083D082E0C398F8A3E099F9C3E894AAE9D8
:1041F80094105035803BEE240BF582EF3400F583A4
:10420800C082C0838E828F83A3A3A3A3A3A3A3E0AA
:10421800F8A3E0F9D083D082E0C398F8A3E099F935
:10422800C3E894ABE994105008900500E06401706D
:1042380030EE241DF582EF3400F583E4F0A3F08E10
:10424800828F83A3A3A3A3A3E02401F8A3E03400EF
:10425800F98E828F83A3A3A3A3A3A3A3E8F0A3E962
:10426800F0EE2474F582EF3400F583E06401600316
:104278000244E0EE2475F582EF3400F5831214F25F
:104288008E828F83A3A3A3A3A3A3A3E0FCA3E0FD33
:104298008E828F83A3A3A3A3A3E0FAA3E0FB121744
:1042A800FE7402121287E970030244E0EE2475F8E6
:1042B800EF3400F9880889098882F583E0F8A3E0DB
:1042C800F9850A82850B83E8F0A3E9F0EE2477FCF0
:1042D800EF3400FDEEFAEFFB1208BAEE247CF5820B
:1042E800EF3400F583E0F8A3E0F9EE2420F582EF3F
:1042F8003400F583E8F0A3E9F0EE241CF582EF34EE
:1043080000F583E4F0EE241DF582EF3400F583E434
:10431800F0A3F0EE240FF582EF3400F5837401F07A
:10432800850A82850B83E0F8A3E0F9EE240DF58277
:10433800EF3400F583E028F8A3E039F9EE240BF513
:1043480082EF3400F583E8F0A3E9F08E828F83A32F
:10435800A3A3A3A3E0FCA3E0FD850882850983E06D
:10436800FAA3E0FB12183B8A088B09EE242EF5828B
:10437800EF3400F583E0FAA3E0FBE4F50AF50B8AD5
:104388000C8B0DF50EF50F7808790C120F92EE24B0
:1043980078F582EF3400F583E0F50CA3E0F50D78AD
:1043A80008790C1210BAEE247AF582EF3400F583FE
:1043B800E06A7003A3E06B7044EE247EF582EF346C
:1043C80000F583E0F8A3E0F9EE2432F582EF34003B
:1043D800F583E0687003A3E0697022EE247CF5821F
:1043E800EF3400F583E0F8A3E0F9EE2430F582EF2E
:1043F8003400F583E0687003A3E0696052EE247E20
:10440800F582EF3400F583E0F50CA3E0F50D7404B4
:10441800780C12124F780C1214DBEE247CF582EF24
:104428003400F5831214F2EE247AF582EF3400F5A5
:1044380083E0FCA3E0C313FDEC13FC8E828F83A3FF
:10444800A3A3A3E0FA7B0012065C7404121287EEA1
:104458002477F582EF3400F583E0C0E0EE242BF5F5
:1044680082EF3400F583D0E0F0EE247AF582EF3461
:1044780000F583E0F8A3E0F9EE242EF582EF34008E
:10448800F583E8F0A3E9F0EE247CF582EF3400F53B
:1044980083E0F8A3E0F9EE2430F582EF3400F583E9
:1044A800E8F0A3E9F0EE247EF582EF3400F583E02E
:1044B800F8A3E0F9EE2432F582EF3400F583E8F052
:1044C800A3E9F0EEFAEFFB1208C0EE2474F582EFD0
:1044D8003400F583E4F08016EE242EF582EF3400E4
:1044E800F583E0F508A3E0F509E4F50AF50BEE24F9
:1044F80018F582EF3400F5837808120F3E701EEE2F
:10450800241FF582EF3400F583E0F8EE241DF582D0
:10451800EF3400F583E0687002A3E06039EE2412FE
:10452800F50CEF3400F50D780C1214DBEE2410F5C1
:1045380082EF3400F5831214F2EE241DF582EF3475
:1045480000F5831214F2AA08AB09AC0AAD0B121CD1
:10455800DE7406121287EE2418F582EF3400F58314
:104568007808121150EE241DF582EF3400F583E02F
:10457800C0E0EE241FF582EF3400F583D0E0F0EEC2
:104588002412FCEF3400FD8E828F83E02402FAA30C
:10459800E03400FB121C20906062E060147C0C7D0B
:1045A800818E828F83E02402FAA3E03400FB121C80
:1045B800208E828F83E0F8A3E0F988828983A3A301
:1045C800E82408FCE93400FD74061211848E828FF9
:1045D80083E02402F8A3E03400F9E8FAE9FBEE24CA
:1045E8001DF582EF3400F583E0F50CA3E0F50DE44A
:1045F800F50EF50F908184780C1210CD780C79089F
:10460800120F928A828B83780C1210E0908198782E
:104618000C1211418A828B83780C12112E9004FEA1
:10462800E06401600302475A7901120A048E828FFE
:1046380083E0F8A3E0F990818012115FE8240EF579
:1046480082E93400F58312116BE82412F8E934008A
:10465800F9E8FAE9FBEE2412F582EF3400F58378E5
:1046680008121141E50875F0E2A4C508A8F075F034
:1046780004A428F875F0E2E509A428F5098A828BD4
:1046880083E02508F0A3E03509F0EE2416F582EF63
:104698003400F583E0F508A3E0F5097404780812FE
:1046A800124FE5082401F8E5093400F98A828B8362
:1046B800E028F0A3E039F0906062E08E828F83708A
:1046C800030247C6E02412F8A3E03400F98882897F
:1046D80083E02410F0A3E03401F0EE240FF582EF1C
:1046E8003400F583E06031EE242BF582EF3400F5D9
:1046F80083E0F875F071A4C8AAF075F002A42AF94D
:104708008E828F83E02412FAA3E03400FB8A828B26
:1047180083E028F0A3E039F08E828F83E02414F838
:10472800A3E03400F9888289837410F08E828F8325
:10473800E02416F8A3E03400F9888289837442F0F3
:10474800A37408F0EEFAEFFB12168A79007F0802CC
:10475800139A9081787808120F735003024635EE49
:10476800241DF582EF3400F583E0F8A3E0F9E84969
:10477800600302463578081214D7EEFAEFFB1208E8
:10478800C67404121287E964016003024635EE24F8
:104798000FF582EF3400F583E060128E828F83A3D9
:1047A800A3A3A3A3E064057002A3E06004790880D2
:1047B80002793EEEFAEFFB1208AE7901808FE02411
:1047C80012F8A3E03400F988828983E02410F8A362
:1047D800E034FFF97A717B021211E688088909EE44
:1047E800242EF582EF3400F583E0F8A3E0F9C3E561
:1047F8000898E5099950030246E280B174F612124E
:10480800C8EAFEEBFF803B9003C8E07003024B341C
:10481800EEFAEFFB120884EE24A4F508EF3400F555
:104828000978081214DBEE249CFCEF3400FD8E821C
:104838008F83A3A3A3A3E0FA7B0012066874021275
:104848001287EE246FF582EF3400F583E0607CEE8A
:10485800246BF582EF3400F583E024FE603224FEF9
:10486800606D1470030248F21470030249D3147087
:1048780003024CAD24FE7003024B6824FE70030251
:104888004A9E147003024BC0147003024AF380B2AC
:10489800EE246AF582EF3400F583E0640170199024
:1048A80003C7E07003024B347916EEFAEFFB1208E7
:1048B800AE79017F0202139AEEFAEFFB120872EE4C
:1048C800246AF582EF3400F583E9F0790080E4EE9C
:1048D800246AF582EF3400F583E06401700302482E
:1048E8000FEEFAEFFB12084880D5EE246AF582EF46
:1048F8003400F583E0640170579003C8E06033EE3C
:104908002483F582EF3400F5837401F090817412EA
:10491800115FEE24D5F582EF3400F58312116B9008
:10492800817412115FEE24D9F582EF3400F58312F9
:10493800116BEE24DFF582EF3400F583E06401604B
:1049480003024B347906EEFAEFFB12088A02484A52
:10495800EE24D3F582EF3400F583E064017028EE8D
:10496800FAEFFB12084EE964017019EE24DFF582B4
:10497800EF3400F583E4F0EE246AF582EF3400F5B5
:10498800837401F00248D3EE24D4F582EF3400F5A5
:1049980083E060F0EE24B3F508EF3400F5097808F9
:1049A8001214DBEE248CFCEF3400FDEE24C3FAEF86
:1049B8003400FB1208FC7402121287EE24D3F5822D
:1049C800EF3400F5837401F002484AEE246AF58258
:1049D800EF3400F583E064016003024A949003C851
:1049E800E07003024B34EE2420F582EF3400F583A7
:1049F800E0F8A3E0F9EE241DF582EF3400F583E832
:104A0800F0A3E9F0EEFAEFFB120884EE2462F582D7
:104A1800EF3400F5837401F0EE2468F582EF34007A
:104A2800F5837401F0EE24DDF582EF3400F583E0C0
:104A38006401701379008E828F83A3A3A3A3E0FA85
:104A48007B0012067480137C0179008E828F83A309
:104A5800A3A3A3E0FA7B0012066EEE24DDF582EF35
:104A68003400F583E4F0EE24E1F582EF3400F583B9
:104A7800E4F0EE24E0F582EF3400F583E4F0EE2470
:104A8800DFF582EF3400F583E40249CFEEFAEFFB5D
:104A98001208540248C7EE246AF582EF3400F58301
:104AA800E064017019EE24E0F582EF3400F583E04C
:104AB80064017078EEFAEFFB12088402484AEEFAB5
:104AC800EFFB12085AE9640160030248D3EE24E0C0
:104AD800F582EF3400F583E4F0EE2483F582EF34B9
:104AE80000F583E4F0EE246A0249C6EE246AF582F2
:104AF800EF3400F583E06401705C9003C8E0602641
:104B0800EE2483F582EF3400F583E4F0EE2462F5B9
:104B180082EF3400F5837401F0EE2468F582EF34F7
:104B280000F5837401F09003C7E07088EE2472F8F2
:104B3800EF3400F988828983E024FFF0A3E034FF92
:104B4800F088828983E0F8A3E0F9E8496003024825
:104B5800D379220248B2EEFAEFFB1208600248C786
:104B6800EE246AF582EF3400F583E0640170349036
:104B780003C8E060B7EE24E2F582EF3400F58374F1
:104B880001F0EE2420F582EF3400F583E0F8A3E08D
:104B9800F9EE241DF582EF3400F583E8F0A3E9F07F
:104BA800024ABCEEFAEFFB120866EE246AF582EFC1
:104BB8003400F583E902498BEE246AF582EF34006C
:104BC800F583E064016003024C96EE24EBF582EF76
:104BD8003400F583E064017051EE24ECF582EF3483
:104BE80000F583E064016003024ABCEE24F1F5821B
:104BF800EF3400F5831214F2EE24EFF582EF34005F
:104C0800F5831214F2EE24EEF582EF3400F583E01A
:104C1800FC8E828F83A3A3A3A3E0FA7B0079001202
:104C280006627404121287024ABCEE2472F8EF344A
:104C380000F988828983E024FFF0A3E034FFF0883C
:104C4800828983E0F8A3E0F9E84960030248D3EEDB
:104C580024F1F582EF3400F5831214F2EE24EFF517
:104C680082EF3400F5831214F2EE24EEF582EF346D
:104C780000F583E0FC8E828F83A3A3A3A3E0FA7BD5
:104C88000079221206627404121287024B59EE242C
:104C9800EDF582EF3400F5837401F0EEFAEFFB12C4
:104CA800086C0248C7EEFAEFFB120878E964016065
:104CB800030248D3024ABC74F71212C8E99002DC16
:104CC800F07C147D037AFF7BFF1205849002DD746B
:104CD800FFF0A3F0A3E4F0A3F0790512051E9002FB
:104CE800DCE0F91204587A907B0512072E025B0962
:104CF80074F41212C88A088B09EB54806030900251
:104D0800DCE0F9120C388A0A8B0BAE0AAF0BEE4FB7
:104D180060138E828F83E064B0700312052AEEFA66
:104D2800EFFB120C26AA08E5096480FB80047A00D0
:104D38007B00024DCAF0A3125F47A32274F212123D
:104D4800C8890AE975F017A4FEAFF09002E1E4F013
:104D58009002DF124DC4600A120C929002DFE4F058
:104D6800A3F0EEFAEFFB120C8C8A088B09EA4509CE
:104D7800602FEEFCEFFD7900120C0E9002DFE508C3
:104D8800F0A3E509F07B008008124DAEE4F0A3F033
:104D98000BEBC3950A40F2E50A9002E1F079008036
:104DA80002791302614FEB75F017A4F8A9F090028D
:104DB800DFE028FAA3E0398A82F58322125745EA10
:104DC8004B227F0402139AC082C0839002E2124EE3
:104DD80002601C88828983A3A3E06A7003A3E06B46
:104DE8008882898370E8A3A3A3A312574180047A19
:104DF800007B00D083D08202012212615CE8492244
:104E080074EE1212C874FC121271EAFEEBFF8518D8
:104E180082851983E4F0A3F0EE2402125A93EE245B
:104E280005125F4EEE2404F50EEF1253BAE024FE8D
:104E3800603924FC604624FE605224FE605E24FE35
:104E48007003024F1B24FE7003024F7F24FE700381
:104E5800024F8E24FE7003024F9D24FC7003024F04
:104E6800AC24FE7003024FBB024FF89002FB74178C
:104E7800F0A3E412500D120242024FF88518828501
:104E88001983AC82AD83120530024FC8851882851C
:104E98001983AC82AD83120536024FC8850C08858C
:104EA8000D0974021212BCAC82AD83850882850993
:104EB800831257411204768A0C8B0DAC0CAD0DECA5
:104EC8004D603BE4F50CF50D780C1214DB750CFB0A
:104ED800750D02780C1214DB750CFC750D02780C3C
:104EE8001214DB74081212BC1214F212618012122E
:104EF80087E9F50C700B12573712025A800F750CA0
:104F080001850882850983124FFB125AB3850C0864
:104F1800024FCB74021212BCAC82AD83850C828521
:104F28000D8312550C603C850C82850D83A3A3125A
:104F380014F27510FB75110278101214DB7510FC51
:104F480075110278101214DB74081212BC1214F2D4
:104F5800126180121287E9F509700B125737120295
:104F680060800F750901850C82850D83124FFB1235
:104F78005AB3850908804C851882851983AC82AD9F
:104F88008312053C803A851882851983AC82AD83EB
:104F9800120542802B851882851983AC82AD831255
:104FA8000548801C851882851983AC82AD8312055B
:104FB8004E800D851882851983AC82AD8312055405
:104FC800E9F508E50860298E828F83A3E064146000
:104FD8001F850E82850F83E09002FB125005126137
:104FE800589002FC125AB3E508A312500D12023C65
:104FF8000259A212615C85188285198322F08518EE
:105008008285198322F07CFB7D02850A82850B83C9
:105018001257452274EE1212C874FC1212718A0AD1
:105028008B0B8C0E8D0FEA2405F508EB3400F5097F
:105038007C157D0079007AFB7B02120C0EE50824B2
:1050480002F50CE509125F5185188285198385825E
:105058001085831178101214DB850882850983A3D3
:10506800A3A3A31255031214DBE5082405F510E5E4
:10507800093400F51178101214DB850C82850D8334
:1050880012585812047074061212878A108B11AEC7
:1050980010AF11E50A2402F50AE50B125A96EE4FF5
:1050A80070030251DA801774021212BC1257418839
:1050B800828983EAF0A3EBF09002FBE004F090020F
:1050C800FBE0C3940540030251DAE4F510F51178CA
:1050D800101214DB7510E475110278101214DB75C8
:1050E80010E575110278101214DB74061212BC1246
:1050F80014F27910EEFCEFFD126182121287E9704A
:105108005E850882850983A3A3A3A3A3A3A3E0F8CC
:105118009002E4E06870481255031214DB7CE57DC8
:1051280002E5082408FAE5093400FB120C087402A9
:10513800121287E960298E828F83A3A3A3A3125733
:10514800419002FBE0F5107402781012125E74FCB4
:105158002510F58274023511F583EAF0A3EBF0749B
:10516800021212BC85821085831178101214DB7428
:10517800021212BC1214F2850C82850D8312576735
:105188001212878A108B11AE10AF119002FBE0F556
:10519800107511007402781012125E74FB2510F855
:1051A80074023511F988828983A3124DC4700302F1
:1051B80050A6E82403080808E93400F9EE4F600314
:1051C8000250AF8882898374FFF0A3F09002FBE05D
:1051D80004F09002FBE0600A12573712024E790081
:1051E800800B850882850983125AAA790A0259A276
:1051F80074EA1212C874FE1212718C128D13EA240A
:1052080005F50CEB12616A125F7A750800750900E2
:10521800EA2402F510EB3400F5118518828519830C
:1052280085820A85830B780A1214DB850C82850D2A
:1052380083A3A3A3A31253D01214DBE50C2405F512
:105248000AE50D125A96780A1214DB850C82850D30
:10525800831253D412047074061212878A0A8B0BB5
:10526800EA450B7003025375EA2404F50EEB12535A
:10527800BA125F7A8A828B83A3A3A3E0F98510828E
:1052880085118312574B6003025375E4F514F51525
:1052980078141214DB7514E475150278141214DBF3
:1052A8007514E575150278141214DB74061212BC15
:1052B8001214F27913AC0AAD0B8510828511831292
:1052C8006188121287E9F50960030253759002E4B8
:1052D800E0F8E5087009E024029002FCF0801490E0
:1052E80002FCE0FCE82402FAE43400FBEA6C7001FA
:1052F800EB707E850882AA821254FA94141254F232
:10530800506B850E82850F83E0C0E074FD2A12532E
:10531800B1D0E0F00508850E82850F83A3E0C0E0D8
:1053280085080A74FD250A1253B1D0E0F0050890EB
:1053380002E41253D01214DB7CE57D0285080A745E
:10534800FD250A1253C41212879002E4E02508F5DD
:105358000874FF6E700374FF6F6012EE24010EEF85
:105368003400FFE508C394145003025222E5086094
:105378001312575585108285118312574112025412
:1053880079008014E509700375090A85128285136E
:1053980083EEF0A3EFF0A90974021212877F0E02C0
:1053A800139A85080C74FD250CF58274023400F5F7
:1053B80083223400F50F850E82F58322FA740234B5
:1053C80000FB120BF6740222125FB022A3A3125341
:1053D800DA22125AA1FDEEFAEFFB2274EE1212C87D
:1053E80074FE1212718C0E8D0FEA2405F50CEB1267
:1053F8005F51750B009002FBE4F0F50AEA2402F510
:1054080008EB3400F50980449002FBE0FA9002E4CE
:10541800E0F81254FA94171254F2400D9002FBE08F
:10542800F87416C3989002E4F01255031214DB7C4A
:10543800E57D0274FC2AFA74021253C7121287908F
:1054480002E4E0F89002FBE028F0050AE50C2416D7
:10545800F582E50D1253B5E0F8E50AC3985074904B
:1054680002FBE0C39416506BE50AC333F8E433F942
:10547800E50C28FEE50D39FF851882851983AC8275
:10548800AD838E828F8312550C7008750B01125AEA
:10549800A68050E4F510F51178101214DB7510E4AD
:1054A80075110278101214DB7510E5751102781069
:1054B8001214DB74061212BC1214F27916850882D3
:1054C800850983126188121287E9F50B700302546B
:1054D8001080BB7CFB7D02850882850983125741B9
:1054E800120266A90B74020259A4E99400C365D09C
:1054F8003322EA28F8E43400F9E822E0F5107511BF
:10550800007810221259998A108B11AC10AD11EC49
:105518004D2274EA1212C874FC1212718A0C8B0D97
:105528008C128D13EA2405F50AEB125A96750800B9
:10553800750900E50A2402F510E50B3400F511742D
:10554800021212BC85820E85830F780E1214DB8539
:105558000A82850B83A3A3A3A3125F561214DBE56B
:105568000A2405F50EE50B3400F50F780E1214DB4E
:10557800851082851183125A9C12573B120470744D
:10558800061212878A0E8B0FAE0EAF0FE50C24029F
:10559800F50EE50D3400F50F80388882898374FF95
:1055A800F005081253AA74FFF005089002E4E0F52C
:1055B8000C750D00780C1214DB7CE57D0285080C57
:1055C80074FD250C1253C41212879002E4E02508DA
:1055D800F508EE4F60278E828F83A3A3A3E0F98599
:1055E8000E82850F8312574BEE2404125F4EE9603A
:1055F80027850C82850D8312572D125AB3E5087042
:1056080003025713125755850E82850F831257418F
:1056180012026C7900025728E4F514F51578141273
:1056280014DB7514E475150278141214DB7514E58F
:1056380075150278141214DB74081212BC1214F2D5
:105648007911EEFCEFFD850E82850F8312618812B9
:105658001287E9F509709A850882AA82EA9002E41D
:105668007009E024049002FCF08025E0F89002FC28
:10567800E0F514E82404FCE43400FDEC6514700142
:10568800ED70811254FA94121254F2400302560C2F
:10569800850C82850D83E0C0E074FD2A1253B1D0D9
:1056A800E0F00508850C82850D83A3E0C0E0125365
:1056B800AAD0E012577085820C85830D780C1214DD
:1056C800DB74041212BC1214F28510828511831245
:1056D80057671212878A0C8B0DAE0CAF0D85080C1C
:1056E80074FD250CF874023400F9EE4F700302556E
:1056F800A2851882851983E088828983125770A34E
:10570800E0C0E01253AAD0E00255B0E50970037575
:10571800090A850A82850B8312572D125AB3A909E3
:1057280074040253A212615C851282851383227C61
:10573800FB7D02850A82850B8312574522E0FAA376
:10574800E0FB2212574512045EE9F509229002FC9B
:10575800E0F5F0E508849002FBF07CFB7D02221264
:1057680053DA12047C740422F0050885188285191E
:10577800832274EC1212C874FE1212718A088B0903
:105788008C0E8D0FEA2405FEEB3400FF125983EED0
:105798002418125F4EEA450B700302582612596C02
:1057A800502912584B8A108B11EA4511606B7912F7
:1057B800AC0AAD0B85088285098312574185108292
:1057C8008511831212C6E9F50A7058E4F50AF50B3B
:1057D800780A1214DB8E828F83A3A3E0F50A780A75
:1057E8001214DBEE2403125A93780A1214DB8E8209
:1057F8008F831258581205727406121287E9F50A37
:105808007021850C82850D83E0701F8508828509CB
:10581800831257411202728011750A0E8009750AA7
:10582800018004E50A6003125AA6850C82850D835F
:10583800E0600479008002A90A74021212877F0CC2
:1058480002139A8518828519831257451205662214
:10585800125AA1FD8508828509831257452274EEE4
:105868001212C874FE1212718A088B098C0C8D0DE5
:10587800EA2405FEEB3400FF750E00125983EA4551
:105888000B700302594A12596C502C12584B8A0E4D
:105898008B0FEA450F604A7912AC0AAD0B85088276
:1058A800850983125741850E82850F831212C6E936
:1058B800F50E600302594D850882850983125B281D
:1058C800AA0AFB12595E70147AFF7BFF12595E60B8
:1058D8006C88828983E50AF0A3E50BF0750A0080DD
:1058E80007750E0E805F050A9002E1E0FAE50AC32B
:1058F8009A504AE50A75F017A4FAABF088828983B2
:10590800A3A3E02AFAA3E03BFB8A828B83125A9C6A
:10591800EC4D70D2750A17750B00780A1214DBEE7D
:10592800FCEFFD120BF67402121287EEFCEFFD85F8
:1059380008828509831257411202788014750E096E
:105948008003750E01126154850C82850D83125AED
:10595800B3A90E0254ED12055A8A108B11A810A98A
:1059680011E84922E5082402F508E5093400F5099B
:105978008A828B83A3A3A3E0A2E5228518828519D6
:1059880083AC82AD838E828F831259998A0A8B0BDE
:1059980022E0FAA3E0FB1204762274041212877F35
:1059A8000A02139A74EC1212C88C108D11EA24059D
:1059B800F50CEB125F51750F00EA2402F50AEB12A1
:1059C8005A96850A82F58312574112620E700302B5
:1059D8005A88750E008071850C82850D83E06401FC
:1059E800704F8E828F83A3A31214F28E828F83A3AB
:1059F800A3A3A3E0F51275130078121214DBEE24AA
:105A080005F512EF3400F51378121214DB12573B28
:105A18001205727406121287E9F50F6014850C825C
:105A2800850D83E4F0126154851082851183125A22
:105A3800B37C177D007900EEFAEFFB120C0E8E8214
:105A48008F83E4F0A3F0050E9002E1E0F8E50EC3C1
:105A580098501EE50E75F017A4F8A9F08508828500
:105A68000983A3A3126174125A9CEC4D6003025976
:105A7800DF85088285098374FFF0A3F0E50F7006BF
:105A880012573B12027EA90F025846F50AEF34005E
:105A9800F50B22A3125AA1FD22E0FCA3E0228E827C
:105AA8008F8312615C850E82850F83E8F0A3E9F08D
:105AB80022C082C0839002DDE06A7003A3E06B70AD
:105AC800067ADD7B0280047A007B00024DFB74F7C6
:105AD8001212C87F00EF75F003A4F8A9F0EC28F8BB
:105AE800ED39F988828983E06A7003A3E06B700658
:105AF800E8FAE9FB800B0FEFC3940240D87A007BE9
:105B0800007F0102139A74F61212C812605F7006C1
:105B18007A007B008007A3A3A3A312574102612048
:105B2800E0F50AA3E0F50B2274E81212C874FB1220
