:020000040000FA
:0600000002010A02228F3A
:03002B000226CCDE
:03003B000226E5B5
:030043000226A6EC
:0300530002230283
:03007B0002274F0A
:10008300022143E5C754F84401F5C7790122000072
:100093000080FB120086B900030200F4E4792178A2
:1000A30008B800028004F709D8FCE479297802B87B
:1000B30000028004F709D8FCE490028178217909D1
:1000C3008002F0A3D8FCD9FA900AA1AA82AB83904C
:1000D300013A784B79028015E493A3AC82AD838A0D
:1000E300828B83F0A3AA82AB838C828D83D8E9D9D8
:1000F300E7758267758385740312011C7582917598
:100103008300740012011C75D00075813F7518813E
:10011300751902759F00020096C09FF59FE473D086
:100123009F22D083D082C09FE493C0E0740193C028
:10013300E0740293F59F22FF0000B400002800281A
:1001430000283075A000A000A000A000000800084F
:10015300E001F0001000100010001000100010006B
:1001630050005000500010001000D00700000000A5
:1001730000000F00010005003075070010000100AA
:1001830081FF0000FFFF02020208025000A00000EE
:1001930000E80302C782010000B48202D182010099
:1001A30000F00A02BF82010000AE0202D182010008
:1001B30000F10A02BD82010000C40202D1820100E3
:1001C30000F20A02C382010000C60202D1820100CA
:1001D30000F30A02D582080000C70202D18201009F
:1001E30000F40A02CD82010000F50AFF7A097A09B8
:1001F3007A097A097A097A097A097A097A097A09E4
:100203007A097A097A09FFFF01053F10FF000130DF
:10021300750302010600000000000000000000005A
:1002230000000000000000000000000000000000CB
:1002330000FFFF0600800CE80330313233343536DB
:1002430037383941424344454600286E756C6C206B
:10025300706F696E74657229003F3F3F0000008034
:100263007F0000803FF9021550B743BA51000020C8
:100273004100E7DB2E0000A0401000000008000052
:100283000012012551F40212012568F4021201251E
:1002930097F402120125D0F402120125F8F4021298
:1002A300012526F5021201253DF50212012554F51B
:1002B300021201256AF50212012591F502120125A8
:1002C300A4F502120125BAF502120125E2F5021284
:1002D3000125658A02120125648B02120125998B7F
:1002E30002120125BA8B02120125CA8B02120125C3
:1002F300EB8B02120125F78C02120125C48D021229
:100303000125378E02120125BD8E02120125008FB1
:1003130002120125378F02120125BD8F021201251A
:100323008F9002120125ED90021201250591021210
:1003330001257F91021201258291021201258591E7
:10034300021201252C920212012544920212012568
:1003530074920212012594920212012582930212D1
:100363000125389402120125B3CD02120125ECCDEB
:100373000212012535CE0212012580CE021201257B
:10038300BECE02120125FBCE0212012529CF021295
:100393000125D0CF02120125DACF02120125E7CFC2
:1003A300021201251AD002120125DCD00212012506
:1003B300E8D00212012500D1021201250AD102124E
:1003C300012518FF0212012526FF021201253EFF17
:1003D3000212012556FF02120125ABC001120125AD
:1003E30049C101120125C1C101120125D6C2011261
:1003F300012510C301120125B9C3011201258EC4C1
:1004030001120125F2C50112012549C60112012578
:10041300D0C601120125B7C70112012504C8011274
:10042300012592C801120125B6C8011201258BCA04
:1004330001120125CCCA01120125EECA01120125C0
:10044300BFCB01120125D6E002120125A8E1021259
:10045300012558E2021201256DE30212012593E3FF
:100463000212012598830312012556D90212012590
:1004730068D9021201258ED902120125B6DA0212B9
:100483000125C0DA0212012519DC021201258CF7BD
:1004930002120125C8F802120125E0B2011201255A
:1004A30043B30112012553B30112012576B301129F
:1004B3000125C1B30112012566B4011201255CB502
:1004C3000112012526B6011201259EB7011201254D
:1004D300E0B7011201257EB801120125A4B801126B
:1004E300012592BA0112012597BA0112012578BCA0
:1004F30001120125CCBC011201252EBD01120125DB
:1005030056BD01120125FABD01120125BCBE01121F
:100513000125EDBE01120125F0BE0112012538BFF0
:10052300011201257ABF01120125E1BF0112012544
:1005330016EA0212012529EA0212012542EA0212F1
:1005430001258DEA0212012568EB02120125F7EB62
:100553000212012542EC02120125C35500120125A6
:10056300FC5500120125485600120125D3560012EE
:1005730001250C5700120125205900120125FC5AB0
:1005830000120125E75C001201251E5E0012012501
:100593007E60001201256A6100120125B06200121B
:1005A3000125BD6300120125DA63001201251264DF
:1005B30000120125346400120125CE6800120125C2
:1005C3006F6900120125C06900120125E769001255
:1005D3000125356A00120125956A0012012519DDEE
:1005E3000212012523DD02120125EEDD021201258F
:1005F30009DE021201254DDE0212012585DE0212FB
:100603000125AEDE0212012527DF021201253CDFA0
:100613000212012560DF0212012574DF0212012597
:10062300A5DF0212012516E0021201255FE0021286
:10063300012589E002120125AEE0021201259FD1B6
:100643000212012569D2021201254CD3021201259F
:10065300C2D30212012504D40212012531D502129C
:10066300012504DB011201252DDB0112012546DBE7
:10067300011201258BDC0112012569DD011201251F
:1006830088DD0112012515DE0112012558DE011254
:100693000125A5DF0112012544E001120125C3E272
:1006A300011201255AE3011201252EE4011201254D
:1006B30010E5011201257CE6011201250FE7011265
:1006C3000125FCFB0212012565FC02120125B9FC80
:1006D30002120125E0FC02120125DDC002120125F0
:1006E3004AC10212012595C1021201258AC20212D2
:1006F300012586C30212012570C402120125A394A9
:1007030002120125E59402120125BF95021201256B
:1007130098960212012593970212012572980212EC
:100723000125DE9802120125A59902120125109ACE
:1007330002120125779A02120125A29A02120125BB
:10074300139B02120125A69B021201250F9C021284
:100753000125249C021201256C9C02120125859C13
:1007630002120125EA9C02120125ED9C02120125C9
:100773001CE70212012544E70212012582E7021257
:10078300012540E802120125ABE802120125C7E862
:1007930002120125EFE8021201251FE902120125C9
:1007A3002EE902120125A8E902120125CEE902125F
:1007B3000125F7F301120125D4F501120125CFF725
:1007C30001120125A2F801120125EDF801120125FC
:1007D300FFF8011201253FF90112012574F90112F5
:1007E3000125C0F901120125EFF90112012512FAC1
:1007F300011201255FFA01120125E8FA0112012510
:10080300F5FC01120125E0FE0112012528FF01126A
:10081300012569FF01120125B5FF0112012586E7B4
:1008230001120125B1E70112012598EE01120125FC
:10083300BCF00112012577F201120125D4F3011254
:1008430001259427001201252B2800120125712868
:1008530000120125B02900120125472B00120125A2
:10086300C12B00120125DC2B00120125512C001293
:100873000125802D00120125DB2E00120125DD2F1D
:10088300001201253A3100120125533100120125CE
:10089300B03100120125923200120125C532001237
:1008A3000125353300120125AF3300120125FE3334
:1008B30000120125CA3400120125CF35001201258B
:1008C300AE3600120125393700120125A737001271
:1008D30001251B3800120125443800120125033974
:1008E300001201257D3A001201259A3A00120125D2
:1008F300B93A001201254A3B001201256F3B001251
:100903000125973B00120125123C001201256C3C86
:1009130000120125C03D001201257D3E0012012574
:10092300503F0012012511A50112012561A50112F5
:1009330001256DA5011201254AA6011201257AA6FA
:1009430001120125B2A60112012531A701120125C9
:1009530069A701120125BBA701120125F8A70112FE
:1009630001251DAA0112012549AC0112012544AE3E
:10097300011201251FB001120125F67F0012012586
:100983001D6B00120125676B0012012546710012D1
:100993000125C77200120125267900120125217A4B
:1009A300001201255E7A001201257F7A00120125CB
:1009B300C17A00120125AD7B00120125A17C001232
:1009C30001257E3F00120125F64900120125FC494D
:1009D3000012012508510012012506E40212012527
:1009E30004E5021201255AE50212012598E50212D7
:1009F3000125F5E50212012572E6021201257BE6C7
:100A03000212012587E6021201259AE60212012548
:100A1300D6E602120125ECE60212012532C50212C6
:100A230001253FC50212012559C50212012598C5AA
:100A330002120125D6C5021201253BC60212012569
:100A430050C6021201255BC60212012568C60212B6
:100A530001257FC6021201258DC60212012598C603
:100A630002120125A4C602120125B3C602120125F2
:100A7300BEC602120125E1C6021201258AC702126F
:100A830001259AC702120125B4C702120125D1C755
:100A930002120125EDC70212012512C80212012517
:100AA3001CC80212012530C8021201254FC80212C8
:100AB3000125B0C802120125B6C802120125BCC81F
:100AC30002120125C2C802120125CEC80212012555
:100AD30001C902120125F9CD011201257BCE0112B4
:100AE300012524CF011201256CD0011201257AD2F0
:100AF3000112012560D30112012595D301120125AD
:100B0300B7D30112012559D40112012529D60112A7
:100B1300012552D60112012584D60112012591D651
:100B230001120125DCD60112012500D7011201258E
:100B330051D9011201255BDA01120125B7DA01123D
:100B43000125008002120125118102120125F58180
:100B530002120125178202120125238202120125A6
:100B6300C78302120125F483021201250A850212AA
:100B730001255A8502120125A986021201257E87C5
:100B830002120125DA870212012545880212012586
:100B9300E68802120125528902120125CD8902122B
:100BA300012598F202120125BDF20212012533F349
:100BB300021201256EB50212012577B50212012535
:100BC30080B50212012558B60212012509B8021296
:100BD300012539B80212012564B8021201258FB824
:100BE30002120125C3B80212012502B9021201251E
:100BF3002DB90212012595B902120125C0B90212BD
:100C030001250FBA021201253ABA0212012568BA68
:100C1300021201258BBA0212012521840312012538
:100C23004D84031201257A8403120125848403125F
:100C330001259484031201252BBB02120125E9BB74
:100C430002120125CDBC02120125DFBC02120125CF
:100C530051BE0212012597BE02120125A6BE021241
:100C6300012582BF021201259CBF02120125D0BFBC
:100C73000212012561C00212012547A502120125B6
:100C830051A50212012592A502120125DBA502122C
:100C9300012515A6021201256BA6021201258CA6B9
:100CA300021201253BA90212012544A902120125C2
:100CB30098A902120125C1A902120125CBA902128A
:100CC300012539AA02120125C9AA0212012524AB62
:100CD3000212012552AB02120125DAAB02120125E1
:100CE30019AC021201254EAC0212012560AC0212AE
:100CF30001257FAC0212012588AC021201254AAD01
:100D030002120125008003120125A7F0021201251A
:100D1300DDF00212012511F1021201255EF2021229
:100D230001259E8403120125B48403120125BE8488
:100D3300031201250885031201257EC9021201252C
:100D430091C90212012555CA0212012594CA021241
:100D53000125B1CA02120125EACA0212012537CBC5
:100D63000212012569CB02120125A0CB0212012533
:100D730024F90212012547F90212012576F902121C
:100D830001250EFA0212012526FA0212012568FA3C
:100D930002120125E282011201258184011201253B
:100DA3002C8501120125AC8501120125388601121B
:100DB3000125138A011201258A8A01120125A18BBB
:100DC30001120125DB8B011201251C8C0112012567
:100DD300638D01120125B98D01120125028E0112C5
:100DE3000125718E01120125DD8E011201250E8F61
:100DF30001120125268F011201253F9001120125C1
:100E03004F90011201250592011201251C92011236
:100E130001254E9201120125F093011201258494BC
:100E230001120125F780031201250E81031201250A
:100E3300AE8103120125BA8503120125F985031238
:100E430001258E86031201250383031201251383D3
:100E5300031201252883031201258E830312012522
:100E630016FE021201259BFE02120125FFFE02124D
:100E73000125B1FA02120125F5FA0212012518FB28
:100E8300021201258CFB0212012511FD021201251C
:100E930033FD0212012587FD02120125D8FD02123E
:100EA3000125EFFF02120125BA8103120125C98131
:100EB300031201251482031201258BD50212012589
:100EC3001BD602120125A4D60212012540D7021215
:100ED3000125D1D70212012581D8021201258FD80D
:100EE300021201250DD90212012520D90212012572
:100EF30036D90212012540D90212012553D9021213
:100F03000125B97E00120125C07E00120125447F10
:100F1300001201254F7F001201255A7F001201257F
:100F2300747F00120125F4F50212012546F6021220
:100F33000125B9F60212012526F7021201256CECF0
:100F43000212012596EC0212012565ED021201251C
:100F530041EE02120125119D02120125DD9D0212AF
:100F630001251E9E02120125589E02120125B69EDE
:100F7300021201250A9F02120125689F0212012510
:100F8300FE9F0212012506A10212012590A2021260
:100F930001252EA30212012595A302120125A8A360
:100FA300021201259CA402120125E5A402120125C7
:100FB3009DAD02120125BAAD021201253AAE02120D
:100FC3000125B6AF0212012585B002120125F2B345
:100FD30002120125D8B402120125B3EE0212012533
:100FE30009EF02120125A7EF0212012563F0021295
:100FF30001253986031201256382031201258D829F
:1010030003120125038603120125668603120125B7
:10101300E0FF01120125C29401120125E09901E0CC
:1010230066701008A3E066700A08A3E066700408FF
:10103300A3E06622C008C3E096F50808A3E0964241
:101043000808A3E096420808A3E0964208A2D265E6
:10105300D033E5087001D3D00822C3E7960809E727
:10106300960809E7960809E79622C3E09608A3E0E5
:101073009608A3E09608A3E09622C008C3E096F57D
:101083000808A3E096420808A3E096420808A3E0F4
:101093009645087001D3D00822080808E630E71106
:1010A3001219581210B4080808C64480C618181834
:1010B30022181818E9799EC608CAC608CBC608CCF8
:1010C300C6C370207996CACBCC7019798ECBCC70FD
:1010D300137986CC700EF9802ACA33CACB33CBCCB2
:1010E30033CC331930E7F2CCCBCA3350147004EA53
:1010F30030E00DE4CA3ACACB3BCBCC3CCC5002091E
:10110300C3E913C6CC182313C6CB18C6CA18C6F92D
:101113002212115420F01430E72B74FFFCFBFA74F5
:101123007F8022E4FCFBFA7480801AB48008BC0040
:10113300F2BB00EF800F50EBF9E4C39AFAE49BFB98
:10114300E49CFCE499C6CC18C6CB18C6CA18C6F9E9
:1011530022E4C9C608CAC608CBC6D3330308CCC623
:101163003392F0C3947F402E94184019C9B90704F1
:10117300CACBCC225025C309CA33CACB33CBCC3319
:10118300CC33D9F422F4600DC9CCC313CB13CBCA2F
:1011930013CAD9F6CC22E4FCFBFA2214FCFBFA2294
:1011A300E6C33318461846184622E7C333194719CE
:1011B30047194722181818E6084608700AE608C3B4
:1011C300337005E633F4220822191919E709470990
:1011D300700AE709C3337005E733F4220922E608EE
:1011E3004608C3134608336002E633F422E709478F
:1011F30009C3134709336002E733F4221211E16094
:10120300251211F060201211A370030211AD08081A
:1012130008E76670101819E766700A1819E7667010
:10122300041819E76622F4221211E1601C1211F06E
:1012330060171211A370071211AD7001D322C0D031
:101243001211AD7006D0D0B322C32233D0D05014C4
:1012530030E0F6C3E7960809E7960809E796080918
:10126300E796B32220E0D5E6970809E6970809E652
:10127300970809E697B3221211E1601B1211F0607F
:10128300161211A370071211AD600CB322C0D01255
:1012930011AD7005D0D022C32233D0D0501330E02B
:1012A300EBC3E7960809E7960809E7960809E79666
:1012B3002220E0E4E6970809E6970809E69708097B
:1012C300E69722001211E1604F1211F06012E75409
:1012D3008066F61211B770111211AD703B0909093E
:1012E300F4F618F618F618F6221211CC701512112E
:1012F300A308080860EAE6447FF618768018E4F647
:1013030018F6221211A360161211AD7012E4F6083A
:10131300F608F608E65480F609090918181822EAAF
:10132300C0E0EBC0E0ECC0E0EDC0E0E687F0A4FB7A
:10133300ACF008E687F0A42CFCE435F0FA1809E6D3
:1013430087F0A42C4B60027401CA35F0FCE433FB34
:1013530009E687F0D2F7A42CCB35F0FC1908E68711
:10136300F0A42BCC35F0FBE433FD0819E687F0D26B
:10137300E7A42C4ACB35F0CD3400FC09E687F0D244
:10138300E7A42DCC35F0FDE433FA0918E687F0D253
:10139300F7A42CCD35F0CA3400FC08E687F0D2E779
:1013A300D2F7A42ACC35F07A7E20E70B0ACB33CBD5
:1013B300CD33CDCC33CC33CB3350147004ED30E08C
:1013C3000ED2F1E4CD3DCDCC3CCC3B5005DA05C289
:1013D300F1EB547FC63308E63392F0FBE73309E7BA
:1013E30033C39A502D2B70190C0D4C4D70151806E4
:1013F300E608C333700D20F10AA2F013F6E4188057
:101403000B4024E4F630F002768018F618F618F64E
:101413008024D33B14501074FFA2F013F618768087
:10142300E418F618F6800FA2F013F618E63303F665
:1014330018ECF618EDF6D0E0FDD0E0FCD0E0FBD0E0
:10144300E0FA221211F060461211E1603DE9687082
:1014530008F618F618F618F622748067F712147A4D
:10146300090909748067F7221211E1601D1211F056
:101473007005191919801A1211B7701F1211CCC3F4
:101483007003E6673319191940071818182208085A
:101493000874FFF618F618F618F6221211CC601726
:1014A3001211AD702192F01211A37019501720F090
:1014B30014080808090909E7F61819E7F61819E7DF
:1014C300F61819E7F6221211A360E6E869701F08FF
:1014D30008E62480F608E436F618547FB47F0CE659
:1014E30054806007F6E418F618F622181822E9C6A5
:1014F300CC08C6CD08C6CE08C6CFC0E0E8C0E0EA37
:10150300C0E0EBC0E009E9F809E7FA09E7FBE6F90F
:1015130018E6F8C3EC98ED99EE9AEBC2E7F5F0EF15
:10152300C2E795F0500E600CEBCFFBEACEFAE9CDA3
:10153300F9E8CCF8EAA2E7D2E7FAEB33FB13F5F0CC
:10154300EEA2E7D2E7FEEF33FFC5F013A2E730E6E2
:1015530001B313C5F0C3C0E0C0F07F00C39BFB60C1
:101563005B9418600C401AD0E023F9D0E0F802161F
:10157300498AF0E9486003D2F0E4AFF0FAF9F88061
:101583003BEB30E40D89F0EA6003D2F0E4AFF0F90D
:10159300CAF8EB30E30D88F0EF6002D2F0AFF0E46D
:1015A300CAC9F8EB54076014FBC3EA13FAE913F949
:1015B300E813F8EF135002D2E0FFDBEDD0E0C0E018
:1015C30030E739C3E49FFFF5F0EC98FC42F0ED9966
:1015D300FD42F0EE9AFE42F0D0E0F9D0E0F8E5F0FB
:1015E300607AE923F9EE20E742D8028067C3EF333C
:1015F300FFEC33FCED33FDEE33FE80EAEC28FCED2B
:1016030039FDEE3AFED0E023F9D0E0F84002801B2A
:10161300C3EE13FEED13FDEC13FCEF135002D2E007
:10162300FF08B800067F7F74FF802EEF3350178CBE
:10163300F020F00260100CBC000C0DBD00080EBEC3
:10164300000408E860DFE933E813FFEE2313FE4FDD
:101653004D4C8008E95480FFE4FEFDFCEE33EF338C
:10166300F47004FCFD7E80D0E0FBD0E0FAD0E0F81B
:10167300D0E0CFC618CEC618CDC618CCC6F92212F4
:1016830011E17004181818221211F0700D74FFF68E
:101693001819F61819F61819F622E7548066F61287
:1016A30011A3700F1211AD70F014F608F608F608C6
:1016B300F680D11211AD700CF608F608768008E6B4
:1016C300447F80EC1211CF700C1211BA60BFE65444
:1016D30080F6E480BB1211BA700519191980A5E8C8
:1016E30069700C763F18768018F618F6E8F922E64A
:1016F300CDC0E018ECC0E0E633CD33CDD313F6E72D
:1017030019FCE7191933CC33C3947F400ECD9D5098
:101713002408E65480F6E418F6800FF4043D1450D0
:101723001408E6447FF6187680E418F618F6D0E03D
:10173300FCD0E0FD22CCD313CCFD18E4C6CBC0E033
:1017430018E4C6CAC0E00808ED08C633E613F61865
:10175300E433C675F003C3CA97CA09CB97CB199C68
:1017630040047D08802EBD000302182B16B6FF052A
:101773000606081618C3CA33CACB33CB33CA27CAE3
:1017830009CB37CB193CC37D08803E187D0820E781
:101793005CC633C6CA33CACB33CB33DDF1D5F0EBEA
:1017A30030E77BCA97CA09CB974ACB199C406F4B4A
:1017B3007025E620E0218066187D08C3CA97CA0910
:1017C300CB97CB199CD3C633C6CA33CACB33CB33DF
:1017D30050C9DDE7D5F0E1D3E4C636C608C636C640
:1017E30008C636C608C636C61818188031C3CA9745
:1017F300CA09CB97CB199CB34097C633C6CA33CA21
:10180300CB33CB33DD34D5F02EC6A2E0C640C8CAF5
:1018130027CA09CB37194A70BECB3CB480B9080834
:10182300E63308E633601F181818D0E0FAD0E0FB5F
:10183300D0E0FCD0E0FD22187D08CA27CA09CB37C7
:10184300CB193CD3808013F618E4B67F11F618B693
:10185300FF0EF618C60470D20808768080CAF61800
:10186300F618F680C5080808EAC0E0EBC0E086F089
:10187300E7A4FA180986F0E7A42AFA180986F0E71C
:10188300A42AFA180986F0E7A42AFA1986F0E7A42D
:10189300FBE5F02AFA190886F0E7A42BFBE5F03AFA
:1018A300FA190886F0E7A42BFBE5F03AFA181809B1
:1018B30086F0E7A4C5F02BFBE43AFA1908E7C5F074
:1018C300C6A426F6E5F03BFBE43AFA1886F0E7A453
:1018D300F6E5F00826F6E43B08F6E43A08F6D0E02D
:1018E300FBD0E0FA22E4CFC0E0E4CEC0E0E4CDC018
:1018F300E0E4CCC0E075F020C3E633F608E633F647
:1019030008E633F608E633F6181818EC33FCED3323
:10191300FDEE33FEEF33FFC3EC9709ED9709EE9726
:1019230009EF97191919400FFFEC97FC09ED97FD83
:1019330009EE97FE191906D5F0BEECF709EDF70984
:10194300EEF709EFF7191919D0E0FCD0E0FDD0E06C
:10195300FED0E0FF22181818E4C396F608E496F6C2
:1019630008E496F608E496F622C6F4C608C6F4C65A
:1019730008C6F4C608C6F4C6226016080808C6C31B
:1019830013C618C613C618C613C618C613C6D5E0A1
:10199300EA227009080808226016181818C6C3330B
:1019A300C608C633C608C633C608C633C6D5E0EA7A
:1019B30022E627F60809E637F60809E637F60809A6
:1019C300E637F622E026F608A3E036F608A3E0366B
:1019D300F608A3E036F622E026F008A3E036F00886
:1019E300A3E036F008A3E036F022C3E697F6080931
:1019F300E697F60809E697F60809E697F622C3E0A4
:101A030096F008A3E096F008A3E096F008A3E0960A
:101A1300F022E056F608A3E056F608A3E056F608CF
:101A2300A3E056F622E056F008A3E056F008A3E040
:101A330056F008A3E056F022E0F608A3E0F608A368
:101A4300E0F608A3E0F622E6F008A3E6F008A3E632
:101A5300F008A3E6F022E0FAA3E0FBA3E0FCA3E096
:101A6300FD22EAF0A3EBF0A3ECF0A3EDF022CAC051
:101A7300E0E6F0A308DAFAD0E0FA22CAC0E0E0A375
:101A8300C582CCC582C583CDC583F0A3C582CCC531
:101A930082C583CDC583DAE6D0E0CA22C3E498F8D1
:101AA300E499F9121AE08026C3E49AFAE49BFBE96D
:101AB30020E7E9121AE0E498F8E499F922C3E498DC
:101AC300F8E499F9121AE0E498F8E499F9C3E49A6E
:101AD300FAE49BFB22EB20E7CFE920E7E0B9001013
:101AE300BB0008E88AF084F8AAF022E4FBC8FA22D3
:101AF300EB70227B10C833C8C933C9335007C39A6C
:101B0300C3DBF280069A50012ADBEAC833F4C8C962
:101B130033F4C9FA2275F008E4C833C8C933C933AA
:101B2300C99AC99B5004C92AC93BD5F0ECFBC833F9
:101B3300F4C8E4C9FA22600D08C6A2E713C618C6A2
:101B430013C6D5E0F322600C08C6C313C618C61328
:101B5300C6D5E0F422700422600D18C6C333C6084C
:101B6300C633C6D5E0F41822251810AF08F518407F
:101B73000215198008F51840021519D2AF22C0D0FA
:101B8300251810AF08F518500205198008F51850EC
:101B9300020519D2AFD0D0222518F58210AF08F56F
:101BA30018400215198008F51840021519D2AF859F
:101BB3001983222518F582E43519F58322E4732568
:101BC30018C582C0E0E51934FFC583C0E0E518C33A
:101BD300958224F810AF08858319858218800885BB
:101BE3008319858218D2AFCEF0A3E520F0A378083D
:101BF300E608F0A3DEFAEFF0A3E58124FAF8E6089D
:101C0300F0A3E608F0A3E608F0A30808E608F0A3AB
:101C1300E608F0A315811581D0E0FED0E0F8158128
:101C230015811581E8C0E0EEC0E0222518C582C009
:101C3300E0E51934FFC583C0E0E518C3958224F9B4
:101C430010AF0885831985821880088583198582DA
:101C530018D2AFCEF0A3E520F0A37808E608F0A3EE
:101C6300DEFAEFF0A3E58124FBF8E608F0A3E6082B
:101C7300F0A30808E608F0A3E608F0A31581158190
:101C8300D0E0FED0E0F815811581E8C0E0EEC0E0B9
:101C930022851983851882E0A3FEE0A3F520780846
:101CA300E0A3F608DFFAE0A3FFE0A3C0E0E0A3C0EF
:101CB300E0E0A3C0E0E0A3C0E0E0A3C0E010AF0811
:101CC3008582188583198008858218858319D2AF88
:101CD300D083D082020122851983851882E0A3FE76
:101CE300E0A3F5207808E0A3F608DFFAE0A3FFE01D
:101CF300A3C0E0E0A3C0E0E0A3C0E0E0A3C0E01025
:101D0300AF08858218858319800885821885831911
:101D1300D2AFD083D08222C0D02518C582C0E0E5DF
:101D23001934FFC583C0E0E518C3958224F310AFCF
:101D3300088583198582188008858319858218D2BE
:101D4300AFC8F0A3E9F0A3EAF0A3EBF0A37908E7A7
:101D530009F0A3D8FAECF0A3EDF0A3EEF0A3EFF0B3
:101D6300A3D0E0F0A3D0E0F0A3D0E0F0A3E520F00F
:101D7300A3E5F0F0A322851983851882E0C0E0A3D0
:101D8300E0F9A3E0FAA3E0FBA37808E0F608A3DFF9
:101D9300FAE0FCA3E0FDA3E0FEA3E0FFA3E0C0E0C4
:101DA300A3E0C0E0A3E0F5D0A3E0F520A3E0A3F512
:101DB300F010AF08858319858218800885831985FB
:101DC3008218D2AFD082D083D0E0F8D0E03274044E
:101DD3008006740280027401C0E0F404121B9BD0DD
:101DE300E0121A71227404800474028000CCC0E0F3
:101DF300EDC0E0E518C39CCCAD1950011D10AF0632
:101E03008C188D1980068C188D19D2AF121A7ED0BA
:101E1300E0FDD0E0FC22D083D082ECC0E0EDC0E056
:101E2300E493A3FCE493A3FDED4C600D121E65EC5B
:101E330024FFFCED34FFFD80EFE493A3FCE493A3C4
:101E4300FDED4C600D121EA4EC24FFFCED34FFFDF0
:101E530080EFD0E0FDD0E0FCE493A3C0E0E493C0C6
:101E6300E022C0E0C3E49396087401939618400FF0
:101E7300E49366700808740193661870007019A3E0
:101E8300A3C3E49396087401939618A3A3400DD0BB
:101E9300E0D0E0D0E0021E55A3A3A3A3A3A3D0E008
:101EA30022C0E0C0F088F0E49366700808740193E0
:101EB30066187000A8F0A3A3700BD0F0D0E0D0E0B8
:0C1EC300D0E0021E55A3A3D0F0D0E02216
:101ED00074F5121C2EEAFEEBFFEE2434F8EF34000A
:101EE000F988088909EE2435F582EF3400F583E09E
:101EF000F8EE2437F582EF3400F583E0F50AEC853F
:101F00000AF0A4FCAAF0850AF0EDA42AFDE82CF85A
:101F1000E43DF97A257B00121AE0EA8508828509FA
:101F200083F05407F87401B800028004C333D8FC6E
:101F3000C0E0E0131313541FF8EE28F8EF3400F953
:101F4000E8245DF582E93400F583D0E0F8E05860DC
:101F500008EE2434F582EF801EEE2436F582EF344D
:101F600000F583E0F5F0EA84A8F0EE28F8EF3400FD
:101F7000F9E82438F582E93400F583E0F97F0402BA
:101F80001CDA74F5121C2EEAFEEBFFEE2434F58207
:101F9000EF3400F583E0C0E0EE2435F582EF340045
:101FA000F583D0E0F08E828F83A3A3A3A3A3A3A382
:101FB000C082C0838E828F83A3A3A3A3A3E0F8A3D0
:101FC000E0F9D083D082E0C398F508A3E099F50941
:101FD000EE2480F582EF3400F583E064017069EE51
:101FE0002481F582EF3400F583E0F8A3E0F98E82D6
:101FF0008F83A3A3A3A3A3A3A3E0FCA3E0FD8E82EE
:102000008F83A3A3A3A3A3E0FAA3E0FBC3EA9CEB03
:102010009D5027C3EC98ED99402EC3EA98EB995058
:10202000277CF97D04EEFAEFFB1208D8EE2480F548
:1020300082EF3400F583E4F0800EC3EA98EB994018
:10204000E0C3EC98ED9950D9EE2434F8EF3400F960
:10205000E8FCE9FDEE2435F582EF3400F583E0F885
:10206000EE2437F582EF3400F583E0F50AE50885C4
:102070000AF0A4F508AAF0850AF0E509A42AF509F2
:10208000E82508F8E43509F97A257B00121AE0EA18
:102090008C828D83F05407F87401B800028004C369
:1020A00033D8FCC0E0E0131313541FF8EE28F8EF08
:1020B0003400F9E8245DF582E93400F583D0E0F8D6
:1020C000E0586008EE2434F582EF801EEE2436F5E9
:1020D00082EF3400F583E0F5F0EA84A8F0EE28F80A
:1020E000EF3400F9E82438F582E93400F583E0F9AB
:1020F000122698021F7DC082C083851882851983AD
:10210000E0F8A3E0F9C3EA9CEB9D5012C3EC98ED14
:10211000994019C3EA98EB99501279018010C3EAEB
:1021200098EB9940F5C3EC98ED9950EE7900D08387
:10213000D08222EAC39CFAEB9DFB22008521878591
:1021400022C622C0E0C0D0E8C0E0E9C0E0EAC0E0BA
:10215000EBC0E0ECC0E0EDC0E0C008C009C00AC0C0
:102160000BC082C083C0F0759B00906182E0A2E644
:102170004003022221E591A2E6400302222175914B
:10218000BF9003BEE0640570081209F8120A0480CB
:10219000031209FE752100120A58E99003BFF07975
:1021A00000120A4C12084E7A017B009003BDE0F940
:1021B000120CDA907803E06442600302226A900510
:1021C0005BE014F0600302226AC2AF1221CE0078F5
:1021D0002AD0E0F618D0E0F6E59F5407F970059094
:1021E000829480039082007808121A3BE9C4C0E010
:1021F0007829E65508F50808E65509F509740B78BD
:1022000008121B49D0E02508F8906270E0A2E74070
:10221000F8E8C333906272F0906270E0D2E0F08030
:1022200049E0A2E55024E591A2E5501E7591DF90AA
:1022300003BEE0640D70139003E0E004F0642870C6
:1022400002E4F07A00E0F9120ACA906181E0A2E3A8
:102250005009E5E9A2E3500375E9F7A3E0A2E750CE
:1022600009E591A2E7500375917FD0F0D083D08229
:10227000D00BD00AD009D008D0E0FDD0E0FCD0E0EF
:10228000FBD0E0FAD0E0F9D0E0F8D0D0D0E032C016
:10229000E0C0D0C082C083906183E0A2E05009E535
:1022A000BFA2E0500375BFFEE0A2E15009E5BFA266
:1022B000E1500375BFFDE0A2E25009E5BFA2E25084
:1022C0000375BFFBE0A2E35009E5BFA2E35003752D
:1022D000BFF7E0A2E45009E5BFA2E4500375BFEFE9
:1022E000E0A2E55009E5BFA2E5500375BFDFE0A21B
:1022F000E65009E5BFA2E6500375BFBFD083D08288
:102300008088C0E0C0D0E8C0E0E9C0E0EAC0E0EB0F
:10231000C0E0ECC0E0EDC0E0C0F0E5A7A2E6500FE1
:10232000E5A1A2E6500953A7BF75A1BF122367E537
:10233000A7A2E5500CE5A1A2E5500653A7DF75A1C1
:10234000DFE5A7A2E15009E5A1A2E1500375A1FDD7
:10235000E5A7A2E2500CE5A1A2E2500653A7FB7547
:10236000A1FBD0F002227874F8121C2E7521019086
:1023700003BEE0640670151209A48A828B83A3A3AE
:10238000A3A3A3A3E0FAA3E0FB1209E6A2AFE43300
:10239000FED2AF9003C4E0640170187A207B0090F5
:1023A00003BDE0F9120D5E7A207B009003BDE0F9D9
:1023B000120CE0906182E0D2E6F090055AE06021D4
:1023C00085C62280169003C3E064017008E5C654F8
:1023D000F84405F5C653BEFC12213C74016521602A
:1023E000E4EEA2E092AF7F01021CDA008E238F247C
:1023F000858228858327851882851983E0CEA3E00E
:10240000CF852882852783EBC9EAC8EDCBECCA7556
:10241000F010C3E833C8E933C9EA33CAEB33CBC39E
:10242000EA9EF526EB9FF525B35004AB25AA26ECD2
:1024300033CCED33CDD5F0DAAE23AF242274F112D4
:102440001C2E8A088B098C0A8D0B740F121BB67810
:102450000C121A3B9081B07808121A159081B0784E
:102460000C121A157808790C12105D50157808793D
:102470000C1219ED9081A4780812107D4015790195
:102480008013780C79081219ED9081A4780C121041
:102490007D40EB79007F08021CDA74ED121C2E8A55
:1024A000088B098C0A8D0B7413121BB6780C121A48
:1024B0003B9081B07808121A159081B0780C121AEE
:1024C00015780C790812105D40117808790C1219F2
:1024D000EDAA08AB09AC0AAD0B802275100075118E
:1024E000007512007513017810790C1219ED78102F
:1024F00079081219B4AA10AB11AC12AD137F0C02FB
:102500001CDA9081B07808121A3B8A828B83780893
:10251000121A287F04021CDA74F5121C2E8C828D8C
:10252000837808121A3B8A828B837808121A01EA90
:102530002404F8EB3400F98C828D83A3A3A3A3E0D9
:10254000FCA3E0FD88828983C3E09CF0A3E09DF0BA
:1025500088828983C3E09420A3E0944E4022908235
:102560008C7808121A3B8A828B8378081219DA8ACF
:10257000828B83A3A3A3A3E02420F0A3E0344EF036
:10258000808074F5121C2EE9FE900510E0FAA3E09D
:10259000FBEEC333F8E433F9740B28F58274813908
:1025A000F583E02AF508A3E03BF5097808121DD56C
:1025B000908288121A591223EC7402121B818A0825
:1025C0008B098C0A8D0B7410780812197CAA08AB41
:1025D000097F04021CDA74F1121C2E8A0C8B0D8CFC
:1025E0000E8D0F740F121BB6E0FAA3E0FB741112EC
:1025F0001BB6E0F508A3E0F5097413121BB6E0FE64
:10260000A3E0FF7808121DD5EA2401F508EB340099
:10261000F509E4F50AF50B780C7908121868908131
:10262000987808121A3B780C7908121868AA0CAB33
:102630000DAC0EAD0F1223EC7402121B818B09EA54
:10264000450960047A0180027A00EC2AFCED34002E
:10265000FDECF8EDF97A717B02121AE0880889091D
:10266000E4F50AF50B8E828F837808121A4AECF88B
:10267000EDF97A717B02121AE08A088B09740578E9
:1026800008121B588E828F83A3A3A3A3E508F0A38F
:10269000E509F07F08021CDAC082C083E99060007F
:1026A000F0D083D08222C0E074F2121D1AA2AFE4EF
:1026B00033FED2AFC2C0E5D1A2E4500653D1EF122F
:1026C0000EFCEEA2E092AF7F01021D79C0E0C0D007
:1026D000E8C0E0E5A8D2AFC2C7A2E792AFD0E0F869
:1026E000D0D0D0E032C0E0C0D0E8C0E0E9C0E0C067
:1026F00008C009C082C083A2AFE433F9D2AF900909
:10270000EBE0F8A3E0687008539AFBA374018026FD
:10271000C2E99009EBE0F50874012508F0746B2517
:1027200008F58274093400F583E0F5C19009EBE007
:10273000C394804002E4F0E9A2E092AFD083D0825B
:10274000D009D008D0E0F9D0E0F8D0D0D0E032C045
:10275000E074F2121D1AA2AFE433FED2AFE58AA2F2
:10276000E34006E58AA2E1500B120E9C758A0075C3
:102770008A00C2EBE58AA2E05008120C3E758A007E
:10278000C2EBEEA2E092AF7F01021D79FFFFFFFFD7
:10279000FFFFFFFFC082C0839061907404F0A374B8
:1027A00048F0A37402F09061807440F09061BC74B2
:1027B00003F09061877419F0906265741BF090616A
:1027C0009C740DF090619A7433F0A37455F090618D
:1027D000A0743AF0900558E064017009C29190032A
:1027E000C2746780059003C27461F0902792E493ED
:1027F000906186F090278CE493F46027E493540F63
:10280000F8906185E0686012E5C654804449F5C6D9
:10281000E59E547F644970F8E8F053C680E59E5405
:102820007F70FA7905120AAC0229A9C082C083E53B
:10283000A8F853A87E906181E4F0A3F0A3F0C2BA97
:10284000539AFEC289759B00C2C275E9007591005A
:1028500075BF0075A91175B905906181F0A374C0A9
:10286000F0A3E4F0D2BA439A0174805842A8022936
:10287000A9C082C08374F8121B6B9003C0E0F8A358
:10288000E0F9E849700302299F9003C0E0544060DA
:10289000237908851882851983AA82AB83120932AD
:1028A000851882851983AA82AB831206269003C0FD
:1028B000E054BFF0E054806010790C7A7C7B051204
:1028C00009329003C0E0547FF0E0A2E05031906103
:1028D0009A7433F0A37455F09061A0743AF09005A7
:1028E00058E064017009C2919003C274678005903A
:1028F00003C27461F012062C9003C0E054FEF0E0B5
:102900005402603190619A743FF0A3745AF0906160
:10291000A0747FF0900558E064017009D291900393
:10292000C2747180059003C2746AF012062C900381
:10293000C0E054FDF0E054046013902790E49390BD
:102940006186F01206329003C0E054FBF0E05408B8
:102950006013902791E493906186F0120632900301
:10296000C0E054F7F0E054106013902792E4939085
:102970006186F01206329003C0E054EFF0E054207C
:10298000600A1206329003C0E054DFF0A3E0540165
:10299000600D12085A1206389003C1E054FEF0741C
:1029A00008121B818003F0A3F0D083D082020122A1
:1029B00074EC121BC274F4121B6B85188285198388
:1029C000AC82AD837583817582A87404121A7E90DF
:1029D000279093F46003022B3D907808E0C39402A3
:1029E0005003022B1D7404121BB6AC82AD83758399
:1029F0008175827F7408121A7E85188285198385F5
:102A000082128583137404121BB6AC82AD83750EDB
:102A1000FF750FFF7FFF7E00750C48750D788015E0
:102A200074086E7003022AB074096E7003022AB033
:102A3000740A6E607B850C82850D837808121A3BC0
:102A40008C828D83A909E50AC9F888107418780862
:102A500012197CE5104508F8C3E098A3E099850CAD
:102A600082850D837808121A3B40188C828D8374FE
:102A700018780812197CE5104508F8E0C398F8A307
:102A8000E0801C7418780812197CE5104508FAE9F2
:102A9000FB8C828D83E0F8A3E0F9EAC398F8EB9908
:102AA000F9C3E8950EE9950F5006880E890FEEFFE1
:102AB0000EE50C2404F50CE50D3400F50DEEC39481
:102AC000135003022A2074FF650E700474FF650F13
:102AD00060238F0874027808121B5874482508F583
:102AE0008274783509F5837808121A3B851282853D
:102AF0001383E508F0EC24020C0CED3400FD851284
:102B000082851383A3858212858313740C121BB6EE
:102B1000E5826C7003E5836D6003022A0E7508017F
:102B20007509007808121DD57402121BB6AC82AD6F
:102B3000837AE47B09120E667402121B81740C12F4
:102B40001B817F0C021C94C082C0839061AE7468AC
:102B5000F0A3746AF090624574FBF0A304F053F4A0
:102B6000FD43FE029005587401F09061A0E0643AC4
:102B700090619A70237433F0A37455F09061A0743F
:102B80003AF0740164017009C2919003C2746780C5
:102B9000289003C274618021743FF0A3745AF090AE
:102BA00061A0747FF0740164017009D2919003C236
:102BB000747180059003C2746A0229A87F04021C04
:102BC00094C082C08390050AE06401700A90050FEA
:102BD000E06004790C800279000229A9C082C083D8
:102BE00075E1F190050DE06055146008146059140A
:102BF0006051805912086C900503E0F97A047B0556
:102C0000120A2E9081A0121A59120A649081EC12B5
:102C10001A59120A3A90050EE0F9120A4679011281
:102C20000AA0900501E02416F8A3E03400F9888298
:102C300089837484F0A37408F079000229A912082A
:102C40007280B412087880AF12087E80AA79128050
:102C5000EA74F4121BC275D90D9004F2E0A2E0E40C
:102C6000331313F8900503E0C4333354C0484401D0
:102C7000F5D97801790588828983A3A3A3E0F5D9E2
:102C800088828983A3A882A983E864077003E96422
:102C90000570E378F2790488828983A3E0F5D98806
:102CA000828983A3A882A983E864F87003E9640495
:102CB00070E575E1959004F2E0F97AF37B04120A6D
:102CC00034900B56741EF0A37408F0A3747AF0A32A
:102CD0007409F0A3747AF0A37409F0A3747AF0A3D2
:102CE0007409F0A37424F0A37408F0A3747AF0A319
:102CF0007409F0A3743CF0A37408F0900B64747A28
:102D0000F0A37409F0A3747AF0A37409F0A3747AA1
:102D1000F0A37409F0A3747AF0A37409F0A3747A91
:102D2000F0A37409F0A3747AF0A37409F09005017C
:102D3000E0F8A3E0F5838882A3A37808121A3B90F9
:102D4000819C78081219C79081B07808121A1590E2
:102D50000501E0240EF8A3E03400F9888289837825
:102D600008121A4A900501E02414F8A3E03400F98F
:102D7000888289837413F09003BE7402F0022BBC26
:102D8000C082C083900513E02407F5D9900503E0C5
:102D9000C4333354C0F5D97801790588828983A377
:102DA000A3A3E0F5D988828983A3A882A983E864D4
:102DB000077003E9640570E3900513E0601F780174
:102DC0007905FAE82413F582E93400F583E0F5D9B2
:102DD00088828983A3A882A9831AEA70E6900533C2
:102DE000E02407F5D9900503E0C4333354C044040C
:102DF000F5D97801790588828983A3A3A3E0F5D961
:102E000088828983A3A882A983E864077003E964A0
:102E10000570E3900533E0601F78017905FAE82436
:102E200033F582E93400F583E0F5D988828983A3FC
:102E3000A882A9831AEA70E675E195900B56742A68
:102E4000F0A37408F0A3747AF0A37409F0A3747A61
:102E5000F0A37409F0A3747AF0A37409F0A37424A6
:102E6000F0A37408F0A3747AF0A37409F0A3743C7F
:102E7000F0A37408F0900B64747AF0A37409F0A3C3
:102E8000747AF0A37409F0A3747AF0A37409F0A320
:102E9000747AF0A37409F0A3747AF0A37409F0A310
:102EA000747AF0A37409F090828C121A599005017B
:102EB000E0240EF8A3E03400F988828983121A65B1
:102EC000900501E02414F8A3E03400F98882898396
:102ED0007412F09003BE74010229A8C082C08390CE
:102EE0000513E02407F5D9900503E0C4333354C03B
:102EF0004402F5D97801790588828983A3A3A3E0E8
:102F0000F5D988828983A3A882A983E8640770031E
:102F1000E9640570E3900513E0601F78017905FA14
:102F2000E82413F582E93400F583E0F5D988828935
:102F300083A3A882A9831AEA70E675E195900B56DF
:102F40007436F0A37408F0A37436F0A37408F0A3E9
:102F50007436F0A37408F0A37436F0A37408F0A3D9
:102F60007436F0A37408F0A37436F0A37408F0A3C9
:102F7000743CF0A37408F0900B64747AF0A37409A5
:102F8000F0A3747AF0A37409F0A3747AF0A374091F
:102F9000F0A3747AF0A37409F0A3747AF0A374090F
:102FA000F0A3747AF0A37409F090828C121A5990ED
:102FB0000501E0240EF8A3E03400F9888289831229
:102FC0001A65900501E02414F8A3E03400F9888222
:102FD00089837414F09003BE74040229A8C082C0CF
:102FE00083900513E02407F5D9900503E0C433333B
:102FF00054C04406F5D97801790588828983A3A352
:10300000A3E0F5D988828983A3A882A983E864070D
:103010007003E9640570E3900513E0601F7801799F
:1030200005FAE82413F582E93400F583E0F5D98840
:10303000828983A3A882A9831AEA70E6900533E007
:103040002407F5D9900503E0C4333354C04404F594
:10305000D97801790588828983A3A3A3E0F5D9886B
:10306000828983A3A882A983E864077003E96405C1
:1030700070E3900533E0601F78017905FAE82433A6
:10308000F582E93400F583E0F5D988828983A3A825
:1030900082A9831AEA70E675E195900B567430F0B8
:1030A000A37408F0A3747AF0A37409F0A3747AF0FF
:1030B000A37409F0A3747AF0A37409F0A3747AF0EE
:1030C000A37409F0A3747AF0A37409F0A3743CF01C
:1030D000A37408F0900B64747AF0A37409F0A374DD
:1030E0007AF0A37409F0A3747AF0A37409F0A374BE
:1030F0007AF0A37409F0A3747AF0A37409F0A374AE
:103100007AF0A37409F090828C121A59900501E0AC
:10311000240EF8A3E03400F988828983121A65909E
:103120000501E02414F8A3E03400F988828983744F
:1031300015F09003BE74030229A8C082C0839005D5
:1031400001E0F8A3E0F5838882A3A3A3A3A3A3E4EB
:103150000229A674F7121BC29003ECE0F875F00484
:10316000A4C8AAF02AF974EE28F8740339F9E824FF
:1031700005FAE93400FB8A828B83E0FCA3E0FD883A
:10318000828983A3A3A3A3A3A3A3A3A3ECF0A3ED8A
:10319000F088828983A3A3A3A3A3A3A3E024FFF8B9
:1031A000A3E034FFF98A828B83E8F0A3E90233F8C5
:1031B00074F7121BC2EAFEEBFF9061D0E0600302DD
:1031C000328D75D90E75D90375D904EE248CF5822C
:1031D000EF3400F583E5822408F8E5833400F9E054
:1031E000F5D9A3E865827003E9658370F2EE248463
:1031F000F582EF3400F583E5822404F8E58334009A
:10320000F9E0F5D9A3E865827003E9658370F2758A
:10321000E1957908EE248CFAEF3400FB1209267947
:1032200004EE2484FAEF3400FB1209267C00EEF849
:10323000EFF9ECFAC3E49AFA95E0FBEE2AFAEF3BD9
:10324000FBEA248BF582EB3400F583E0C0E0E82450
:10325000ABF582E93400F583D0E0F00C88828983F5
:10326000A3A882A983ECC3940840C7EE2470F5821A
:10327000EF3400F583E0F8A3E0F9EE2472F582EF75
:103280003400F583E8F0A3E9F079018002790002C7
:1032900033F9C082C08375D90275D90375D9057514
:1032A000E195EA2470F582EB3400F583E0F8A3E0C1
:1032B000F9EA2472F582EB3400F583E8F0A3E9F033
:1032C00079010229A974F6121BC2EAFEEBFF9005F0
:1032D0005C7406F075085C7509057808121DD57CCC
:1032E00001790312096E7402121B8175D90675D912
:1032F0000375825C758305E0F5D9A3E5826461708E
:1033000004E583640570F075E1959003BEE0640800
:10331000701EEE2470F582EF3400F583E0F8A3E030
:10332000F9EE2472F582EF3400F583E8F0A3E9F0BA
:1033300079010234C574F6121BC2EAFEEBFF9061FC
:10334000D0E07066780190055C740BF09003BEE0ED
:103350006407701975085C7509057808121DD57C1D
:1033600001790312096E7402121B81780574012819
:10337000F5D975D90375825C758305E8FAE0F5D94E
:10338000A31AEA70F875E195EE2470F582EF340027
:10339000F583E0F8A3E0F9EE2472F582EF3400F54E
:1033A00083E8F0A3E9F07901800279000234C57462
:1033B000F7121BC2EAFEEBFF75D90375D90375D965
:1033C0000DEE24DEF582EF3400F583E0F5D975E1EA
:1033D000957904120A6AEE2470F582EF3400F583C1
:1033E000E0F8A3E0F9EE2472F582EF3400F583E80B
:1033F000F0A3E9F079018001F07F01021C9474F6DA
:10340000121BC2EAFEEBFF9061D0E0F87480C39813
:10341000FAEE2483F582EF3400F583E0600478044B
:1034200080027800E8240BF8EAC39850030234C302
:103430007D0990055CEDF0EE24E3F8EF3400F97AB5
:103440005D7B057C0888828983E08A828B83F08893
:10345000828983A3A882A9838A828B83A3AA82AB51
:10346000831CEC70E0EE2483F582EF3400F583E0FA
:10347000601D75085C7509057808121DD57C0979F1
:1034800003EEFAEFFB12096E7402121B817D0D74BC
:10349000012DF5D975D90375825C7583058D08E01A
:1034A000F5D9A31508E50870F675E1957904120AB7
:1034B0006AEE241DF582EF3400F583E4F0A3F07981
:1034C00001800279007F02021C9474F6121BC2EA8A
:1034D000FEEBFF9061D0E0F87480C398FAEE24838D
:1034E000F582EF3400F583E0600478048002780010
:1034F000E82408F8EAC39850030235CA7D0690050F
:103500005C740CF09003DBE090055DF07ADC7B03EB
:10351000785E79057C028A828B83E088828983F0D9
:103520008A828B83A3AA82AB8388828983A3A882A1
:10353000A9831CEC70E07ADE7B037C028A828B8399
:10354000E088828983F08A828B83A3AA82AB8388F6
:10355000828983A3A882A9831CEC70E0EE2483F502
:1035600082EF3400F583E0601D75085C750905780D
:1035700008121DD57C067903EEFAEFFB12096E7472
:1035800002121B817D0A74012DF5D975D90375824C
:103590005C7583058D08E0F5D9A31508E50870F67C
:1035A00075E1957904120A6AEE2470F582EF340011
:1035B000F583E0F8A3E0F9EE2472F582EF3400F52C
:1035C00083E8F0A3E9F07901800279000234C57440
:1035D000F6121BC2EAFEEBFF9061D0E0F87480C3E4
:1035E00098FAEE2483F582EF3400F583E0600478E6
:1035F0000480027800E82404F8EAC39850030236F5
:10360000A9780290055CE8F0EE24F5F582EF34002D
:10361000F583E090055DF0EE2483F582EF3400F54C
:1036200083E0601B75085C7509057808121DD57C60
:10363000027903EEFA12096E7402121B8178067485
:103640000128F5D975D90375825C7583058808E072
:10365000F5D9A31508E50870F675E195EE2474F523
:1036600082EF3400F583E4F0EE2480F582EF34003D
:10367000F583E4F0EE241DF582EF3400F583E4F0E9
:10368000A3F07904120A6AEE240DF582EF3400F5F6
:1036900083E0F8A3E0F9EE2472F582EF3400F583BD
:1036A000E8F0A3E9F07901800279000234C574F6EC
:1036B000121BC29061D0E0F87480C398FCEA2483A6
:1036C000F582EB3400F583E0600478048002780032
:1036D000E82404F8ECC398405B790290055C740719
:1036E000F0EA24F6F582EB3400F583E090055DF016
:1036F000EA2483F582EB3400F583E0601875085CFA
:103700007509057808121DD57C020912096E74022C
:10371000121B817906740129F5D975D90375825C6C
:10372000758305E9F8E0F5D9A318E870F875E19517
:103730007901800279000234C574F5121BC2E9FCDC
:10374000A2AFE433F50AC2AF7D0080010DEA246F19
:10375000F582EB3400F583E0F8EDC398501A8D083C
:10376000EA2508F8EB3400F9E8246BF582E9340027
:10377000F583E06C70D68024EA246FF8EB3400F90E
:10378000E0FEEA2EFAEB3400FBEA246BF582EB3420
:1037900000F583ECF088828983E004F0E50AA2E07A
:1037A00092AF7F03021C9474F6121BC2A2AFE433E3
:1037B000FDC2AFEA246FF582EB3400F583E014F02C
:1037C0007C0060368C08EA2508F8EB3400F9E82420
:1037D0006CF582E93400F583E0C0E0E8246BF58203
:1037E000E93400F583D0E0F00CEA246FF582EB3485
:1037F00000F583E0F8ECC39840CAEA246EF582EB4A
:103800003400F58374FFF0EA246AF582EB3400F5A6
:1038100083E4F0EDA2E092AF0234C5C082C083E53C
:10382000A8F8C2AFEA246BF582EB3400F583E9F027
:10383000EA246AF582EB3400F583E4F0E8A2E7922B
:10384000AF0229A974F3121BC2EAFEEBFFECFAEDFA
:10385000FB8A828B83A3A3A3A3E0541FF0EE24363C
:10386000F582EF3400F583E4F0F50AEEFCEFFD8A13
:10387000828B83E0C0E0EC245DF582ED3400F583BB
:10388000D0E0F0750B00E50A33333354F8F50C8AB9
:10389000828B83E0F508750900E50B7808121B3967
:1038A000E508A2E0502FEE2436F8EF3400F98882C4
:1038B0008983E0F508EE2508F508EF3400F509E501
:1038C000082438F582E5093400F583E50CF0888298
:1038D0008983E004F0050B050CE50BC3940840AFA9
:1038E000050A8A828B83A3AA82AB838C828D83A3F1
:1038F000AC82AD83E50AC39405500302386F7F059F
:10390000021C9474F7121BC29003EAE06401700772
:103910007A007B00023A7A7E009003F0E070F17446
:1039200001F0A3E4F0A3F090045004F0900453E4F9
:10393000F0A3F090045604F09003F3E4F0A3F0A396
:10394000F0A3F09003FD04F0900423E4F09081B81C
:10395000121A59900406121A6590040AE4F0A3F0B2
:10396000A3F090046EF0900462F09004577480F01D
:10397000A3E4F090045DF0900455F09004D9F0A316
:10398000F0A3F0A3F0A3F0A3F0A3F0A3F09004E25F
:10399000F0900471F09004C1F0A3F09081B8121A75
:1039A000599004C3121A659081B8121A599004C72D
:1039B000121A659004CDE4F09004CFF09004CBF09F
:1039C0009004E5F0A3F0A3F0A3F0A3F0A3F0A3F01C
:1039D000A3F078EA7903E8246FF582E93400F583EF
:1039E00074FFF00E88828983A3A882A983EEC39412
:1039F0000440E37AEA7B0378F9790488828983E0DA
:103A0000C0E0EA2461F582EB3400F583D0E0F08871
:103A1000828983A3A882A9838A828B83A3AA82AB8B
:103A200083E864FE7003E9640470D07AEA7B03786B
:103A3000D1790388828983A3E0C0E0EA24E7F58294
:103A4000EB3400F583D0E0F088828983A3A882A9B3
:103A5000838A828B83A3AA82AB83E864D97003E94B
:103A6000640370CF9003EAE004F0640170089003EF
:103A7000F2E09003ECF07AEE7B030233F9C082C0EF
:103A8000839003F1E4F09003F0F09003EAF0A3F0E8
:103A9000A374FFF075E1F10229A9C082C083780008
:103AA00079009003F1E0600478EE790388828983DD
:103AB000A3A3A3A3E0F90229A974F6121BC2EAFE8C
:103AC000EBFF8E828F83A3A3A3E0600F8E828F8390
:103AD000A3A3A3E4F09003EBE014F09003EAE01456
:103AE000F070069003EC74FFF08E828F83A3A3E442
:103AF000F09004FEE0700D9003EBE0640170057936
:103B000000120A4CEE2465F582EF3400F583E0F8EC
:103B1000A3E0F9E8496029EE2465F8EF3400F9885C
:103B20000889098882F583E0FCA3E0FD9003ECE0BE
:103B3000FA7B0012065C850882850983E4F0A3F015
:103B4000EEFAEFFB12099E0234C574F7121BC2EAAB
:103B5000FEEBFF8E828F83A3A3A3A3E0FA7B001268
:103B6000069EEEFAEFFB1208F01209860233F9C046
:103B700082C08378D1790388828983A3E4F0888224
:103B80008983A3A882A983E864D97003E9640370D8
:103B9000E69003D2022ED674F6121BC2EAFEEBFFA9
:103BA000EC2403F8ED3400F988088909EC2407F8BF
:103BB000ED3400F9E8FCE9FD8C828D83E0F8A3E0A8
:103BC000F9850882850983E0FAA3E0FB121AE0EE8A
:103BD000240DF582EF3400F583E8F0A3E9F08C8240
:103BE0008D83E0F8A3E0F9850882850983E0FAA3D4
:103BF000E0FB121AE08B09EA45096013EE240DF58B
:103C000082EF3400F583E02401F0A3E03400F002F9
:103C100034C574F6121BC2EAFEEBFFEE242EF582C9
:103C2000EF3400F583E0FCA3E0FD780079FAECFACC
:103C3000EDFB121AE0EE2470F582EF3400F583E814
:103C4000F0A3E9F0780079FAECFAEDFB121AE08BB8
:103C500009EA45096013EE2470F582EF3400F5831C
:103C6000E02401F0A3E03400F00234C574F0121B2C
:103C7000C2EAFEEBFF7410121BB67808121A3B1250
:103C80000A108A0C8B0D8C0E8D0F908194780C127B
:103C900019C79081B0780C121A15780C121DD18EAC
:103CA000828F83E0F8A3E0F5838882A3A3121A59D8
:103CB00012243D7404121B81E96003023DB98E8217
:103CC0008F83E02402F8A3E03400F9E8FAE9FB8AE4
:103CD000828B8378081219DA9081B07808121A3B27
:103CE0008A828B837808121A28EE240BF582EF342F
:103CF00000F583C082C0838E828F83A3A3A3A3A376
:103D0000E02401F8A3E03400F9D083D082E06870A9
:103D100003A3E06970057901023DBB8E828F83A306
:103D2000A3A3A3A3A3A3E02401F0A3E03400F0EE37
:103D30002474F582EF3400F583E064017036EE24DC
:103D400075F582EF3400F583E0F8A3E0F98E828FF9
:103D500083A3A3A3A3A3A3A3E0687003A3E0697054
:103D600013EE2475F582EF3400F583E02401F0A30F
:103D7000E03400F0EE2480F582EF3400F583E06457
:103D8000017036EE2481F582EF3400F583E0F8A36C
:103D9000E0F98E828F83A3A3A3A3A3A3A3E06870FB
:103DA00003A3E0697013EE2481F582EF3400F583FC
:103DB000E02401F0A3E03400F079007F08021C94B5
:103DC00074F7121BC29003ECE0F875F004A4C8AAC3
:103DD000F02AF974EE28FE740339FF8028EE24657A
:103DE000F8EF3400F988828983E0FCA3E0FD888243
:103DF0008983E4F0A3F08E828F83A3A3A3A3E0FAC8
:103E00007B0012065CEE2465F582EF3400F583E05A
:103E1000F8A3E0F9E849604FEE2464F582EF34003E
:103E2000F583E0F5087808121DD9EE2463F582EFDA
:103E30003400F583E0F9EE2465F582EF3400F58374
:103E4000E0FCA3E0FDEEFAEFFB12091A7401121B6D
:103E500081E96089EE2465F582EF3400F583E0F8AE
:103E6000A3E0F9E84970137C007D008E828F83A364
:103E7000A3A3A3E0FA7B0012065C0233F974F212EA
:103E80001BC2EAFEEBFF890A740E121BB6E0FAEEC3
:103E90002462F582EF3400F583E064016003023FA1
:103EA000499061D0E0F87480C398F50CEE2483F556
:103EB00082EF3400F583E0600478048002780089A2
:103EC00008E928F8E43400F9E824020808E9340095
:103ED000F9E50C98E499A2D265D0334068EA700500
:103EE000750B028003750B01E060397509007808D5
:103EF000121DD57A5C7B051209507402121B817564
:103F0000085C7509057808121DD5AC0AA90BEEFAF4
:103F1000EFFB12096E7402121B817404250AF50A64
:103F20007C5C7D057401250AF5D9850BD9E50A600D
:103F30000D8C828D83F8E0F5D9A318E870F875E14F
:103F400095790080067907800279FF7F06021C942C
:103F5000C082C083E960208C828D83E08A828B835B
:103F6000F08C828D83A3AC82AD838A828B83A3AADB
:103F700082AB8319E970E0ECFAEDFB0229A974EA3F
:103F8000121BC2907803E06442705E90055BE014FF
:103F9000F07056C2AF123F9800782AD0E0F618D0E1
:103FA000E0F6E59F5407F9700590829480039082B3
:103FB000007808121A3BE9C4C0E07829E65508F5F4
:103FC0000808E65509F509740B7808121B49D0E07A
:103FD0002508F8906270E0A2E740F8E8C3339062E9
:103FE00072F0906270E0D2E0F09003ECE0F47003C5
:103FF0000243A1E0F875F004A4C8AAF02AF974EE0F
:1040000028FE740339FFEE2402F582EF3401F583B4
:10401000E0F8A3E0F9E849601EEE2402F582EF34EF
:1040200001F583E0FAA3E0FBEE2401F582EF340111
:10403000F583E0F9120CDA8E828F83A3A3A3A3A3E6
:10404000A3A3E0F8A3E0F98E828F83A3A3A3A3A385
:10405000E8F0A3E9F0906054E09003C5F09060555B
:10406000E09003C6F0906056E09003C7F090605770
:10407000E09003C8F0906058E09003C9F090605958
:10408000E09003CAF090605AE09003CBF090605B40
:10409000E09003CCF090605CE0FC9003CDF0906089
:1040A0005DE0FB9003CEF090605EE0FD9003CFF00A
:1040B00090605FE0FA9003D0F09003CBE08C08258D
:1040C00008F8E43400F98D08E82508F8E93400F927
:1040D0008B08E82508F8E93400F98A08E82508FA89
:1040E000E93400FBEE24F7F582EF3400F583E02A93
:1040F000F0A3E03BF08C08EE24F9F582EF3400F5F4
:1041000083E02508F0A3E03400F0EE24FBF582EF15
:104110003400F583E02401F0A3E03400F0EE24FF46
:10412000F582EF3400F583E0F8A3E0F9E849604256
:10413000906000E0C333FCE433FDE82CF582E93DF8
:10414000F583E02AF0A3E03BF0906000E0FA9003F2
:10415000CDE0FCEAC333FAE433FBE82AF8E93BF9A3
:10416000E8244AF582E93400F583E02CF0A3E0343A
:1041700000F09003CBE070119003CEE0700BA3E051
:104180007007A3E070030242818E828F83A3A3A3F2
:10419000A3A3E0F8A3E0F9EE240DF582EF3400F5D7
:1041A00083E028F8A3E039F9EE240BF582EF340020
:1041B000F583E8F0A3E9F0EE240FF582EF3400F583
:1041C00083E4F0EE241CF582EF3400F583E0640113
:1041D000701EEE2420F582EF3400F583E0F8A3E0B2
:1041E000F9EE241DF582EF3400F583E8F0A3E9F041
:1041F0009003C6E06052EE241CF582EF3400F58394
:104200007401F0EE246AF582EF3400F583E0703833
:10421000EE2474F582EF3400F583E0702BEE2480F9
:10422000F582EF3400F583E0701EEE2420F582EF76
:104230003400F583E0F8A3E0F9EE241DF582EF34B5
:1042400000F583E8F0A3E9F0906062E070030243B8
:10425000348E828F83E0F8A3E0F9E82406FCE93489
:1042600000FDE82402FAE93400FB120A0A8E828F6C
:1042700083E02412F8A3E03400F9888289830243A2
:104280003E9003CDE0603AEE240FF582EF3400F566
:1042900083E4F0EE241CF582EF3400F583E0640142
:1042A0007040EE2420F582EF3400F583E0F8A3E0BF
:1042B000F9EE241DF582EF3400F583E8F0A3E980E0
:1042C00020EE24FDF582EF3400F583E02401F0A315
:1042D000E03400F0EE241DF582EF3400F583E4F0C5
:1042E000A3F0EE240BF582EF3400F583E0F8A3E0B1
:1042F000F98E828F83A3A3A3A3A3E0687003A3E036
:104300006960030241F0EE240FF582EF3400F5837B
:10431000E060128E828F83A3A3A3A3A3E064057041
:1043200002A3E0600B7908EEFAEFFB1208F6807149
:10433000793E80F3EE241DF582EF3400F583E4F03E
:10434000A3F0906060E0C0E0EE2469F582EF3400F5
:10435000F583D0E0F09003CBE0F8EE2467F582EF30
:104360003400F583E0280244A1900559E06401700F
:1043700035120AB8EE2467F582EF3400F583E07059
:10438000069060607480F0EEFAEFFB1209D4E964E5
:1043900001600E1209141209CEE9640160031209CA
:1043A000867F0E021C94EE2483F582EF3400F583A1
:1043B000E06004780480027800E50CC398F91206E6
:1043C000508A0A8B0BEA450B60A7EE2483F582EF37
:1043D0003400F583E070048A088B09E50C601285CF
:1043E0000882850983F512E5D9F0A31512E512704C
:1043F000F6EE2483F582EF3400F583E0603774FC39
:10440000250CF50C7808121DD5AC0CA90DEEFAEFB1
:10441000FB1209747402121B81E970197403650D93
:1044200070030244E1E50A24FBFAE50B34FFFB12BA
:104430000D1C0244E17403650D70030244E6850C13
:104440000E750F00780E121DD5AC08AD09AA0AAB87
:104450000B1209507402121B81EE2469F582EF34AD
:1044600000F583E064807004747F8001E0F50878D3
:1044700008121DD9E50DF5087808121DD9A90CAC54
:104480000AAD0B9003ECE0FA7B00120656740212A0
:104490001B81120AC4EE2467F582EF3400F583E035
:1044A00014F0E0700302438175085C750905750A14
:1044B00000750B00E5D914F50CE5D95403F50D6032
:1044C000207403650D70030243DBE50C70030243A7
:1044D00069EE2468F582EF3400F583E0600302435F
:1044E00069793D024327850882850983E0F8A38521
:1044F0008208858309603B1470030246DE14700352
:104500000249D214700302473C24FD700302485C48
:104510001470030244921470030248B224FE700324
:1045200002486B1470030248AD147003024947023D
:104530004956EE2477F510EF3400F511E08510822E
:10454000851183F0850882850983A3858208858388
:1045500009EE2478F50EEF3400F50F7902AC08ADC2
:1045600009AA0EFB1209208A088B09EE247AF50CA1
:10457000EF3400F50D7902AC08AD09AA0CFB120965
:10458000208A088B097902AC08AD09EE247CFAEF89
:104590003400FB1209208A088B09EE247EF50AEF0D
:1045A0003400F50B7902AC08AD09AA0AFB12092008
:1045B0008A088B09851082851183E0C333F0850E4C
:1045C00082850F83E0F8A3E0F9E8C333F8E933F913
:1045D000850E82850F83E8F0A3E9F0850C82850DB6
:1045E00083E0F8A3E0F9E8C333F8E933F9850C82F6
:1045F000850D83E8F0A3E9F0850A82850B83E0F559
:104600000CA3E0F50D7404780C121B58850A828502
:104610000B83E50CF0A3E50DF0EE2475F50AEF34FD
:1046200000F50B7902AC08AD09AA0AFB1209208536
:104630000A82850B83C082C0838E828F83A3A3A34B
:10464000A3A3E0F8A3E0F9D083D082E0C398F8A355
:10465000E099F9C3E894FFE9947F40057928024383
:1046600027EE247CF582EF3400F583E02401F50881
:10467000A3E03400F509E4F50AF50BEE247AF5829F
:10468000EF3400F583E0F8A3E0F9E8C333F8E93349
:10469000F9880C890DE4F50EF50F7808790C1218DD
:1046A00068EE247EF582EF3400F583E0F50CA3E09C
:1046B000F50D780C790812105D4005793B0243270F
:1046C000EE2474F582EF3400F5837401F0EE241DBE
:1046D000F582EF3400F583E4F0A3F0024492EE2477
:1046E00081F50AEF3400F50B7402C0E07905AC08DF
:1046F000AD097AF97B04120920EAFCEBFDD0E0F960
:10470000AA0AAB0B120920850A82850B83C082C0DE
:10471000838E828F83A3A3A3A3A3E0F8A3E0F9D0A1
:1047200083D082E0C398F8A3E099F9C3E894FFE945
:10473000947F400302465CEE24808087EE24E2F5FD
:1047400082EF3400F583E07039EEF8EFF97AD17B2F
:10475000038A828B83A3E0C0E0E824E3F582E93496
:1047600000F583D0E0F08A828B83A3AA82AB838892
:10477000828983A3A882A983EA64D97003EB6403C6
:1047800070CFEE24E3F582EF3400F583E0A2E0EE93
:10479000401824DEF582EF3400F583741AF0790DA9
:1047A000EEFAEFFB1208C60244922462F582EF345F
:1047B00000F583E4F0EE2468F582EF3400F583E43D
:1047C000F0EE24E1F582EF3400F5837401F079080E
:1047D000AC08AD09EE249CFAEF3400FB1209208AE4
:1047E000088B097902AC08AD09EE24A4FAEF340075
:1047F000FB1209208A088B09EE2494F50AEF340095
:10480000F50B7908AC08AD09AA0AFB1209208A0841
:104810008B097908AA0AAB0B120926EE2488F50A3F
:10482000EF3400F50B7904AC08AD09AA0AFB1209B4
:10483000207904AA0AAB0B120926EE248CFAEF3475
:1048400000FB120938EE2484FAEF3400FB12093E13
:104850009003C0E04480F079040247A0EE24DFF525
:1048600082EF3400F58374010246DAEE2462F582A9
:10487000EF3400F583E4F0EE2468F582EF3400F5C0
:1048800083E4F0EE24D3F582EF3400F583E4F0EE18
:1048900024DDF582EF3400F5837401F0EE24D4F5C5
:1048A00082EF3400F583E4F0790B0247A0EE24E0B8
:1048B00080ADEEF8EFF97AD17B038A828B83A3E097
:1048C000C0E0E824E3F582E93400F583D0E0F08A23
:1048D000828B83A3AA82AB8388828983A3A882A9BF
:1048E00083EA64D97003EB640370CFEEF8EFF97AD2
:1048F000D17B038A828B83A3C082C0838508828593
:104900000983E0D083D082FCE05CC0E0E824E3F5DA
:1049100082E93400F583D0E0F0850882850983A31D
:104920008582088583098A828B83A3AA82AB8388C8
:10493000828983A3A882A983EA64D97003EB640304
:1049400070B179090247A0EE24EBF582EF3400F54F
:1049500083E064017011EE24F6F582EF3400F583F4
:10496000E8F079070247A0850882850983E0C0E066
:10497000EE24EEF582EF3400F583D0E0F085088276
:10498000850983A38582088583097402C0E0F9AC98
:1049900008AD09EE24EFFAEF3400FB120920EAFC1F
:1049A000EBFDD0E0F9EE24F1FAEF3400FB12092020
:1049B000EE24EBF582EF3400F5837401F0EE24ED84
:1049C000F582EF3400F583E06003024492790C0233
:1049D00047A0EE24F5F8EF3400F9E088828983F0EF
:1049E000EE24F4F582EF3400F5837401F0888289B7
:1049F00083E0F902432753BFEF02012274F0121B38
:104A0000C29003ECE0F875F004A4C8AAF02AF97487
:104A1000EE28FE740339FF9061D0E0600FEE241D94
:104A2000F582EF3400F583E4F0A38053EE246AF5B9
:104A300082EF3400F583E07047EE2474F582EF34A2
:104A400000F583E0703AEE2480F582EF3400F583C0
:104A5000E0702DEE241CF582EF3400F583E0640154
:104A6000701EEE2420F582EF3400F583E0F8A3E019
:104A7000F9EE241DF582EF3400F583E8F0A3E9F0A8
:104A80008E828F83A3A3A3A3A3E0F8A3E0F9EE246F
:104A90001DF582EF3400F583E028F8A3E039F9E84A
:104AA000240108E93400F9EE2407F50AEF3400F593
:104AB0000B850A82F583E8F0A3E9F0EE240BF5827A
:104AC000EF3400F583C3E098A3E09950358E828FD0
:104AD00083A3A3A3A3A3A3A3C082C083EE240BF547
:104AE00082EF3400F583E0F8A3E0F9D083D082E0D0
:104AF000C398F8A3E099F9C3E894AAE99410503553
:104B0000803BEE240BF582EF3400F583C082C08336
:104B10008E828F83A3A3A3A3A3A3A3E0F8A3E0F9AA
:104B2000D083D082E0C398F8A3E099F9C3E894ABAE
:104B3000E994105008900500E064017030EE241DE7
:104B4000F582EF3400F583E4F0A3F08E828F83A327
:104B5000A3A3A3A3E02401F8A3E03400F98E828F7D
:104B600083A3A3A3A3A3A3A3E8F0A3E9F0EE247473
:104B7000F582EF3400F583E064016003024DE4EE5A
:104B80002475F582EF3400F583121DEC8E828F833D
:104B9000A3A3A3A3A3A3A3E0FCA3E0FD8E828F8322
:104BA000A3A3A3A3A3E0FAA3E0FB1220F6740212CE
:104BB0001B81E97003024DE4EE2475F8EF3400F92F
:104BC000880889098882F583E0F8A3E0F9850A82DC
:104BD000850B83E8F0A3E9F0EE2477FCEF3400FDC9
:104BE000EEFAEFFB120902EE247CF582EF3400F5B9
:104BF00083E0F8A3E0F9EE2420F582EF3400F5839A
:104C0000E8F0A3E9F0EE241CF582EF3400F583E42C
:104C1000F0EE241DF582EF3400F583E4F0A3F0EE0E
:104C2000240FF582EF3400F5837401F0850A828544
:104C30000B83E0F8A3E0F9EE240DF582EF3400F5E4
:104C400083E028F8A3E039F9EE240BF582EF340075
:104C5000F583E8F0A3E9F08E828F83A3A3A3A3A337
:104C6000E0FCA3E0FD850882850983E0FAA3E0FB70
:104C70001221338A088B09EE242EF582EF3400F5D9
:104C800083E0FAA3E0FBE4F50AF50B8A0C8B0DF543
:104C90000EF50F7808790C121868EE2478F582EF7B
:104CA0003400F583E0F50CA3E0F50D7808790C12DB
:104CB00019B4EE247AF582EF3400F583E06A7003CC
:104CC000A3E06B7044EE247EF582EF3400F583E0C0
:104CD000F8A3E0F9EE2432F582EF3400F583E068C2
:104CE0007003A3E0697022EE247CF582EF3400F5B6
:104CF00083E0F8A3E0F9EE2430F582EF3400F58389
:104D0000E0687003A3E0696052EE247EF582EF3420
:104D100000F583E0F50CA3E0F50D7404780C121B8C
:104D200049780C121DD5EE247CF582EF3400F58312
:104D3000121DECEE247AF582EF3400F583E0FCA33B
:104D4000E0C313FDEC13FC8E828F83A3A3A3A3E027
:104D5000FA7B001206A47404121B81EE2477F582FC
:104D6000EF3400F583E0C0E0EE242BF582EF340051
:104D7000F583D0E0F0EE247AF582EF3400F583E09D
:104D8000F8A3E0F9EE242EF582EF3400F583E8F085
:104D9000A3E9F0EE247CF582EF3400F583E0F8A37C
:104DA000E0F9EE2430F582EF3400F583E8F0A3E972
:104DB000F0EE247EF582EF3400F583E0F8A3E0F90D
:104DC000EE2432F582EF3400F583E8F0A3E9F0EE4B
:104DD000FAEFFB120908EE2474F582EF3400F58334
:104DE000E4F08016EE242EF582EF3400F583E0F532
:104DF00008A3E0F509E4F50AF50BEE2418F582EFB7
:104E00003400F5837808121022701EEE241FF582FC
:104E1000EF3400F583E0F8EE241DF582EF3400F561
:104E200083E0687002A3E06039EE2412F50CEF34E1
:104E300000F50D780C121DD5EE2410F582EF34002C
:104E4000F583121DECEE241DF582EF3400F583127C
:104E50001DECAA08AB09AC0AAD0B1225D6740612DC
:104E60001B81EE2418F582EF3400F5837808121ABE
:104E70004AEE241DF582EF3400F583E0C0E0EE2415
:104E80001FF582EF3400F583D0E0F0EE2412FCEF42
:104E90003400FD8E828F83E02402FAA3E03400FB0D
:104EA000122518906062E060147C887D818E828F6C
:104EB00083E02402FAA3E03400FB1225188E828FCF
:104EC00083E0F8A3E0F988828983A3A3E82408FC9F
:104ED000E93400FD7406121A7E8E828F83E024026C
:104EE000F8A3E03400F9E8FAE9FBEE241DF582EFBF
:104EF0003400F583E0F50CA3E0F50DE4F50EF50FB5
:104F00009081C0780C1219C7780C79081218688A39
:104F1000828B83780C1219DA9081B0780C121A3BCC
:104F20008A828B83780C121A289004FEE064016058
:104F30000302505E7901120A4C8E828F83E0F8A33F
:104F4000E0F990828C121A59E8240EF582E93400B7
:104F5000F583121A65E82412F8E93400F9E8FAE951
:104F6000FBEE2412F582EF3400F5837808121A3B29
:104F7000E50875F0E2A4C508A8F075F004A428F8C7
:104F800075F0E2E509A428F5098A828B83E02508FB
:104F9000F0A3E03509F0EE2416F582EF3400F58336
:104FA000E0F508A3E0F50974047808121B49E50848
:104FB0002401F8E5093400F98A828B83E028F0A304
:104FC000E039F0906062E08E828F8370030250CAF5
:104FD000E02412F8A3E03400F988828983E02410E9
:104FE000F0A3E03401F0EE240FF582EF3400F583F6
:104FF000E06031EE242BF582EF3400F583E0F875A4
:10500000F071A4C8AAF075F002A42AF98E828F83E9
:10501000E02412FAA3E03400FB8A828B83E028F0BC
:10502000A3E039F08E828F83E02414F8A3E03400EB
:10503000F9888289837410F08E828F83E02416F8B9
:10504000A3E03400F988828983748AF0A37408F09D
:10505000EEFAEFFB121F8279007F08021C94908108
:10506000CC780812107D5003024F39EE241DF582D2
:10507000EF3400F583E0F8A3E0F9E8496003024F5C
:10508000397808121DD1EEFAEFFB12090E740412E2
:105090001B81E964016003024F39EE240FF582EFB2
:1050A0003400F583E060128E828F83A3A3A3A3A3B1
:1050B000E064057002A3E0600479088002793EEEA6
:1050C000FAEFFB1208F67901808FE02412F8A3E0D2
:1050D0003400F988828983E02410F8A3E034FFF9D2
:1050E0007A717B02121AE088088909EE242EF58273
:1050F000EF3400F583E0F8A3E0F9C3E50898E5098B
:10510000995003024FE680B174F6121BC2EAFEEB1F
:10511000FF803B9003C8E07003025438EEFAEFFBC7
:105120001208CCEE24A4F508EF3400F50978081233
:105130001DD5EE249CFCEF3400FD8E828F83A3A34B
:10514000A3A3E0FA7B001206B07402121B81EE24C6
:105150006FF582EF3400F583E0607CEE246BF5821E
:10516000EF3400F583E024FE603224FE606D14709D
:10517000030251F61470030252D71470030255B1A2
:1051800024FE700302546C24FE70030253A21470B8
:10519000030254C41470030253F780B2EE246AF57C
:1051A00082EF3400F583E0640170199003C7E0706A
:1051B000030254387916EEFAEFFB1208F679017FF4
:1051C00002021C94EEFAEFFB1208BAEE246AF58292
:1051D000EF3400F583E9F0790080E4EE246AF5828B
:1051E000EF3400F583E064017003025113EEFAEF2F
:1051F000FB12089080D5EE246AF582EF3400F58327
:10520000E0640170579003C8E06033EE2483F582B8
:10521000EF3400F5837401F09081B8121A59EE242E
:10522000D5F582EF3400F583121A659081B8121A11
:1052300059EE24D9F582EF3400F583121A65EE2475
:10524000DFF582EF3400F583E06401600302543837
:105250007906EEFAEFFB1208D202514EEE24D3F596
:1052600082EF3400F583E064017028EEFAEFFB1260
:105270000896E964017019EE24DFF582EF3400F539
:1052800083E4F0EE246AF582EF3400F5837401F0D4
:105290000251D7EE24D4F582EF3400F583E060F0BC
:1052A000EE24B3F508EF3400F5097808121DD5EEA9
:1052B000248CFCEF3400FDEE24C3FAEF3400FB1223
:1052C00009447402121B81EE24D3F582EF3400F5F9
:1052D000837401F002514EEE246AF582EF3400F53A
:1052E00083E0640160030253989003C8E0700302F6
:1052F0005438EE2420F582EF3400F583E0F8A3E083
:10530000F9EE241DF582EF3400F583E8F0A3E9F00F
:10531000EEFAEFFB1208CCEE2462F582EF3400F5D2
:10532000837401F0EE2468F582EF3400F583740194
:10533000F0EE24DDF582EF3400F583E064017013B4
:1053400079008E828F83A3A3A3A3E0FA7B001206C9
:10535000BC80137C0179008E828F83A3A3A3A3E07A
:10536000FA7B001206B6EE24DDF582EF3400F583F9
:10537000E4F0EE24E1F582EF3400F583E4F0EE246E
:10538000E0F582EF3400F583E4F0EE24DFF582EF00
:105390003400F583E40252D3EEFAEFFB12089C02CC
:1053A00051CBEE246AF582EF3400F583E06401709E
:1053B00019EE24E0F582EF3400F583E064017078A3
:1053C000EEFAEFFB1208CC02514EEEFAEFFB120898
:1053D000A2E9640160030251D7EE24E0F582EF34C4
:1053E00000F583E4F0EE2483F582EF3400F583E4E6
:1053F000F0EE246A0252CAEE246AF582EF3400F518
:1054000083E06401705C9003C8E06026EE2483F5BD
:1054100082EF3400F583E4F0EE2462F582EF34008D
:10542000F5837401F0EE2468F582EF3400F583749F
:1054300001F09003C7E07088EE2472F8EF3400F9B1
:1054400088828983E024FFF0A3E034FFF08882891A
:1054500083E0F8A3E0F9E84960030251D77922021A
:1054600051B6EEFAEFFB1208A80251CBEE246AF512
:1054700082EF3400F583E0640170349003C8E0608B
:10548000B7EE24E2F582EF3400F5837401F0EE24E8
:1054900020F582EF3400F583E0F8A3E0F9EE241D57
:1054A000F582EF3400F583E8F0A3E9F00253C0EE93
:1054B000FAEFFB1208AEEE246AF582EF3400F583B2
:1054C000E902528FEE246AF582EF3400F583E0643E
:1054D00001600302559AEE24EBF582EF3400F58368
:1054E000E064017051EE24ECF582EF3400F583E0C6
:1054F000640160030253C0EE24F1F582EF3400F53D
:1055000083121DECEE24EFF582EF3400F583121DBB
:10551000ECEE24EEF582EF3400F583E0FC8E828F12
:1055200083A3A3A3A3E0FA7B0079001206AA740464
:10553000121B810253C0EE2472F8EF3400F9888206
:105540008983E024FFF0A3E034FFF088828983E0C0
:10555000F8A3E0F9E84960030251D7EE24F1F5829F
:10556000EF3400F583121DECEE24EFF582EF3400EA
:10557000F583121DECEE24EEF582EF3400F583E0A6
:10558000FC8E828F83A3A3A3A3E0FA7B007922126F
:1055900006AA7404121B8102545DEE24EDF582EF1D
:1055A0003400F5837401F0EEFAEFFB1208B40251F7
:1055B000CBEEFAEFFB1208C0E9640160030251D799
:1055C0000253C074F7121BC2E99002DCF07C147D18
:1055D000037AFF7BFF1205CC9002DD74FFF0A3F08D
:1055E000A3E4F0A3F079051205669002DCE0F9125D
:1055F00004A07AD87B0512077602640D74F4121B9E
:10560000C28A088B09EB548060309002DCE0F9120A
:105610000CC28A0A8B0BAE0AAF0BEE4F60138E8260
:105620008F83E064B07003120572EEFAEFFB120C88
:10563000B0AA08E5096480FB80047A007B0002566A
:10564000CEF0A312684BA32274F2121BC2890AE99E
:1056500075F017A4FEAFF09002E1E4F09002DF12C3
:1056600056C8600A120D1C9002DFE4F0A3F0EEFAB7
:10567000EFFB120D168A088B09EA4509602FEEFC34
:10568000EFFD7900120C989002DFE508F0A3E50920
:10569000F07B0080081256B2E4F0A3F00BEBC39548
:1056A0000A40F2E50A9002E1F079008002791302E3
:1056B0006A53EB75F017A4F8A9F09002DFE028FA1E
:1056C000A3E0398A82F58322126049EA4B227F04E3
:1056D000021C94C082C0839002E2125706601C88AC
:1056E000828983A3A3E06A7003A3E06B8882898325
:1056F00070E8A3A3A3A312604580047A007B00D0C6
:1057000083D082020122126A60E8492274EE121BE1
:10571000C274FC121B6BEAFEEBFF851882851983AD
:10572000E4F0A3F0EE2402126397EE24051268520F
:10573000EE2404F50EEF125CBEE024FE603924FC7A
:10574000604624FE605224FE605E24FE7003025810
:105750001F24FE700302588324FE70030258922413
:10576000FE70030258A124FC70030258B024FE709E
:10577000030258BF0258FC9002FB7417F0A3E41216
:10578000591112028A0258FC851882851983AC824D
:10579000AD831205780258CC851882851983AC82B6
:1057A000AD8312057E0258CC850C08850D09740264
:1057B000121BB6AC82AD83850882850983126045D1
:1057C0001204BE8A0C8B0DAC0CAD0DEC4D603BE4AD
:1057D000F50CF50D780C121DD5750CFB750D0278C6
:1057E0000C121DD5750CFC750D02780C121DD574AC
:1057F00008121BB6121DEC126A84121B81E9F50C0B
:10580000700B12603B1202A2800F750C018508829A
:105810008509831258FF1263B7850C080258CF74AC
:1058200002121BB6AC82AD83850C82850D83125E9D
:1058300010603C850C82850D83A3A3121DEC7510AE
:10584000FB7511027810121DD57510FC75110278C8
:1058500010121DD57408121BB6121DEC126A8412A8
:105860001B81E9F509700B12603B1202A8800F75CD
:105870000901850C82850D831258FF1263B78509D3
:1058800008804C851882851983AC82AD831205840B
:10589000803A851882851983AC82AD8312058A808F
:1058A0002B851882851983AC82AD83120590801CEC
:1058B000851882851983AC82AD83120596800D858B
:1058C0001882851983AC82AD8312059CE9F508E541
:1058D0000860298E828F83A3E06414601F850E8286
:1058E000850F83E09002FB125909126A5C9002FC5A
:1058F0001263B7E508A31259111202840262A612BC
:105900006A6085188285198322F08518828519833B
:1059100022F07CFB7D02850A82850B83126049227E
:1059200074EE121BC274FC121B6B8A0A8B0B8C0E5A
:105930008D0FEA2405F508EB3400F5097C157D0090
:1059400079007AFB7B02120C98E5082402F50CE53D
:1059500009126855851882851983858210858311FF
:105960007810121DD5850882850983A3A3A3A312ED
:105970005E07121DD5E5082405F510E5093400F58C
:10598000117810121DD5850C82850D8312615C1271
:1059900004B87406121B818A108B11AE10AF11E58A
:1059A0000A2402F50AE50B12639AEE4F7003025ABD
:1059B000DE80177402121BB612604588828983EA62
:1059C000F0A3EBF09002FBE004F09002FBE0C39444
:1059D000054003025ADEE4F510F5117810121DD5CA
:1059E0007510E47511027810121DD57510E575114A
:1059F000027810121DD57406121BB6121DEC791018
:105A0000EEFCEFFD126A86121B81E9705E8508824A
:105A1000850983A3A3A3A3A3A3A3E0F89002E4E0D2
:105A2000687048125E07121DD57CE57D02E50824EA
:105A300008FAE5093400FB120C927402121B81E98A
:105A400060298E828F83A3A3A3A31260459002FBDB
:105A5000E0F51074027810121B5874FC2510F582C2
:105A600074023511F583EAF0A3EBF07402121BB651
:105A70008582108583117810121DD57402121BB611
:105A8000121DEC850C82850D8312606B121B818ABE
:105A9000108B11AE10AF119002FBE0F510751100E4
:105AA00074027810121B5874FB2510F8740235111B
:105AB000F988828983A31256C870030259AAE82480
:105AC00003080808E93400F9EE4F60030259B3886F
:105AD00082898374FFF0A3F09002FBE004F090024F
:105AE000FBE0600A12603B1202967900800B850889
:105AF000828509831263AE790A0262A674EA121BD8
:105B0000C274FE121B6B8C128D13EA2405F50CEB8C
:105B1000126A6E12687E750800750900EA2402F5A3
:105B200010EB3400F51185188285198385820A856A
