:020000040000FA
:0600000002011D02191AA5
:03002B00021FB6FB
:03005300021990FF
:03006B00021F84ED
:1000830002180BE5C754F84401F5C77901220000B3
:100093000080FB120086B90003020107E47921788E
:1000A30008B800028004F709D8FCE479297802B87B
:1000B30000028004F709D8FCE490028178A979074B
:1000C3008002F0A3D8FCD9FA781A90014D7A01BACC
:1000D30000028007E493A3F608DAF9900929AA82BB
:1000E300AB8390014E780379028015E493A3AC822D
:1000F300AD838A828B83F0A3AA82AB838C828D83A8
:10010300D8E9D9E77582B67583D9740212012F75C0
:100113008291758300740012012F75D00075813FA1
:10012300751881751902759F00020096C09FF59F8F
:10013300E473D09F22D083D082C09FE493C0E07445
:100143000193C0E0740293F59F2201FF0000B40005
:100153000028002800283075A000A000A000A000FF
:1001630000080008E001F00010001000100010006B
:100173001000100050005000500010001000D00775
:100183000000000000000F000100050030750700AB
:100193001000010081FF0000FFFF0202020802506D
:1001A30000A0000000E80302638F010000508F02EB
:1001B3005F8F0100007809025B8F010000AE02022D
:1001C3005F8F010000790902598F010000C4020208
:1001D3005F8F0100007A0902578F010000C60202F7
:1001E3005F8F0100007B0902678F080000C70202CE
:1001F3005F8F0100007C0902538F0100007D09FF1E
:100203009A099A099A099A099A099A099A099A09D3
:100213009A099A099A099A099A09FFFF01053F1059
:10022300FF0001307503020106000000000000001A
:1002330000000000000000000000000000000000BB
:100243000000000000FFFF0600800CE803120138E5
:1002530018CC021201382FCC021201385ECC0212E4
:10026300013897CC02120138BFCC02120138EDCC11
:100273000212013804CD021201381BCD02120138DB
:1002830031CD0212013858CD021201386BCD021262
:10029300013881CD02120138A9CD0212013874DA76
:1002A3000112013873DB01120138A8DB0112013896
:1002B300C9DB01120138D9DB01120138FADB011263
:1002C300013806DD01120138D3DD0112013846DEA3
:1002D30001120138CCDE011201380FDF011201389F
:1002E30046DF01120138CCDF011201389EE0011212
:1002F3000138FCE00112013814E1011201388EE1EA
:100303000112013891E10112013894E1011201381F
:100313003BE20112013853E20112013883E2011278
:100323000138A3E20112013891E30112013847E4D5
:10033300011201387FA802120138B8A8021201384D
:1003430001A9021201384CA9021201388AA902122A
:100353000138C7A902120138F5A9021201389CAA73
:1003630002120138A6AA02120138B3AA02120138F6
:10037300E6AA02120138A8AB02120138B4AB02128A
:100383000138CCAB02120138D6AB02120138E4D6E5
:1003930002120138F2D6021201380AD702120138CA
:1003A30022D7021201386A8F011201380890011214
:1003B3000138809001120138959101120138CF91D3
:1003C300011201387892011201384D93011201385C
:1003D300B194011201380895011201388F95011269
:1003E3000138769601120138C396011201385197EC
:1003F300011201387597011201384A990112013827
:100403008B9901120138AD99011201387E9A0112BC
:1004130001386DBB021201383FBC02120138EFBC38
:100423000212013804BE021201382ABE0212013838
:1004330051D80212013857B00212013869B00212C2
:1004430001388FB002120138B7B102120138C1B1BD
:10045300021201381AB302120138BBCD021201385D
:10046300F7CE02120138386D001201389B6D00126D
:100473000138AB6D00120138CE6D00120138196ED0
:1004830000120138BE6E00120138B46F0012013839
:100493007E7000120138F6710012013838720012B2
:1004A3000138D67200120138FC7200120138EA7466
:1004B30000120138EF7400120138D07600120138AF
:1004C300247700120138867700120138AE770012C4
:1004D3000138527800120138147900120138457935
:1004E300001201384879001201389079001201385E
:1004F300D27900120138397A0012013897C10212F9
:100503000138AAC102120138C3C1021201380EC256
:1005130002120138E9C20212013878C3021201380B
:10052300C3C302120138DC1F001201381520001268
:100533000138612000120138EC2000120138252116
:100543000012013839230012013815250012013831
:10055300002700120138372800120138972A0012A9
:100563000138832B00120138C92C00120138D62D13
:1005730000120138F32D001201382B2E001201381E
:100583004D2E00120138E732001201388833001271
:100593000138D933001201380034001201384E34C7
:1005A30000120138AE34001201381AB402120138B5
:1005B30024B402120138EFB4021201380AB5021250
:1005C30001384EB50212013886B502120138AFB5B3
:1005D3000212013828B6021201383DB60212013860
:1005E30061B60212013875B602120138A6B60212BC
:1005F300013817B70212013860B7021201388AB7FF
:1006030002120138AFB7021201386BAC0212013883
:1006130035AD0212013818AE021201388EAE021245
:100623000138D0AE02120138FDAF021201388DC37A
:1006330001120138B6C301120138CFC301120138C8
:1006430014C501120138F2C50112013811C6011295
:1006530001389EC601120138E1C6011201382EC8C5
:1006630001120138CDC8011201384CCB01120138F7
:10067300E3CB01120138B7CC0112013899CD011235
:10068300013805CF0112013898CF011201381AD26F
:100693000212013883D202120138D7D20212013872
:1006A300FED20212013811A0021201387EA00212FA
:1006B3000138C9A002120138BEA102120138BAA240
:1006C30002120138A4A30212013856F701120138AD
:1006D30098F70112013872F8011201384BF901122F
:1006E300013846FA0112013825FB0112013891FB4A
:1006F3000112013858FC01120138C3FC0112013800
:100703002AFD0112013855FD01120138C6FD0112FF
:10071300013859FE01120138C2FE01120138D7FE19
:10072300011201381FFF0112013838FF011201388D
:100733009DFF01120138A0FF011201389DBE021274
:100743000138C5BE0212013803BF02120138C1BF0E
:10075300021201382CC00212013848C002120138BB
:1007630070C002120138A0C002120138AFC00212D9
:10077300013829C1021201384FC102120138C3A93D
:100783000112013860AB0112013846AD0112013884
:1007930010AE0112013857AE0112013869AE0112D1
:1007A3000138A9AE01120138D8AE0112013824AFC5
:1007B300011201385CAF011201388AAF011201380E
:1007C300DBAF011201386AB00112013858B30112CC
:1007D300013832B5011201387CB501120138CAB5AE
:1007E3000112013818B60112013853EE0112013813
:1007F30070EE011201380AF4011201380CF50112EE
:10080300013886F60112013834F701120138363502
:10081300001201387F3500120138AC35001201385F
:10082300DF3500120138EC3500120138F8350012BB
:1008330001380A3600120138DF36001201383D371D
:10084300001201387237001201380E3900120138D4
:100853005B39001201387F3900120138EC3900127C
:100863000138913A001201384D3B00120138CC3B5C
:1008730000120138903C001201389F3C00120138ED
:10088300203D00120138BF3D00120138F13D001236
:1008930001388C3E00120138EA3E00120138243F31
:1008A30000120138A53F001201386E4000120138D2
:1008B3001741001201389E4100120138F64100121F
:1008C3000138574200120138804200120138364382
:1008D30000120138804400120138C3440012013869
:1008E300E04400120138FF44001201384A45001267
:1008F30001386F4500120138984500120138074648
:10090300001201384946001201384D4700120138E0
:10091300E74700120138B34800120138CC480012EF
:100923000138B2E40112013805E50112013811E57D
:1009330001120138E6E5011201380DE60112013812
:1009430048E601120138B4E601120138E8E6011263
:10095300013821E70112013839E70112013892E722
:1009630001120138ABE701120138F4E70112013833
:1009730007E80112013821E80112013837E80112B2
:10098300013853E90112013864EA01120138B1EB6D
:100993000112013896EC01120138F57F001201387B
:1009A300BCB601120138F0B6011201385BBA01126C
:1009B3000138A5BB011201386FBC01120138F9BD22
:1009C30001120138D4BE011201380EBF01120138E1
:1009D3002FBF0112013871BF01120138BBBF0112D1
:1009E300013867C0011201383BC1011201388FC1C0
:1009F30001120138F1C10112013844C20112013858
:100A030073C201120138B2C201120138FE4800124A
:100A130001385851001201385E510012013819573C
:100A230000120138FF5A00120138D7B702120138F9
:100A33004DB80212013863B802120138A0B802128D
:100A43000138D8B80212013855B90212013890B9E9
:100A5300021201380BBA0212013847BA02120138E6
:100A630050BA021201385CBA0212013876BA021285
:100A730001389BBA02120138B1BA02120138DABA4C
:100A8300021201383DBB02120138037B0012013808
:100A9300167B00120138307B00120138597B00129B
:100AA30001389C7B00120138DB7B00120138197C72
:100AB300001201387E7C00120138937C0012013849
:100AC3009E7C00120138AB7C00120138C27C0012FC
:100AD3000138D07C00120138DB7C00120138E77C3E
:100AE30000120138FA7C00120138057D001201382A
:100AF300287D00120138D17D00120138E17D0012FA
:100B03000138FB7D00120138187E00120138347E53
:100B130000120138597E00120138637E0012013839
:100B2300777E00120138967E00120138F77E00129C
:100B33000138FD7E00120138037F00120138097F5E
:100B430000120138157F00120138487F0012013866
:100B5300B89C011201383A9D01120138E39D01123C
:100B630001382B9F0112013839A1011201381FA24C
:100B73000112013854A20112013876A20112013880
:100B830018A301120138E8A40112013811A50112BA
:100B9300013843A50112013850A5011201389BA564
:100BA30001120138BFA50112013810A80112013842
:100BB3001AA90112013876A9011201380FD00112C6
:100BC300013820D10112013804D20112013826D292
:100BD3000112013832D201120138D6D30112013881
:100BE30003D40112013819D50112013869D5011254
:100BF3000138B8D6011201388DD701120138E9D76F
:100C03000112013854D801120138F5D80112013804
:100C130061D901120138DCD9011201385FCA02120D
:100C2300013884CA02120138FACA021201382C9020
:100C3300021201383590021201383E900212013837
:100C4300169102120138C79202120138F79202126A
:100C530001382293021201384D9302120138819315
:100C630002120138C09302120138EB9302120138C9
:100C73005394021201387E9402120138CD94021269
:100C83000138F89402120138269502120138499569
:100C930002120138DAD80212013806D902120138D9
:100CA30033D9021201383DD9021201384DD902124B
:100CB3000138E99502120138F3950212013834968E
:100CC300021201387D9602120138B79602120138DA
:100CD3000D97021201382E9702120138379702122C
:100CE30001388B9702120138B49702120138BE976C
:100CF300021201382C9802120138BC9802120138F2
:100D0300179902120138459902120138CD9902123E
:100D130001380C9A02120138419A02120138539A8F
:100D230002120138729A021201387B9A02120138B8
:100D3300429B0212013831D4021201386EC80212EA
:100D43000138A4C802120138D8C80212013825CAD2
:100D530002120138BBD702120138D1D7021201386F
:100D6300DBD70212013825D80212013857D90212F3
:100D73000138709B02120138839B02120138449C94
:100D830002120138839C02120138A09C021201381E
:100D9300D99C02120138269D02120138589D021275
:100DA30001388F9D02120138989F0212013804A066
:100DB3000212013807D6021201382AD6021201386C
:100DC30059D6021201389BD6021201380EDA0212EA
:100DD300013832DA02120138585B00120138F75C2D
:100DE30000120138A25D00120138225E00120138A0
:100DF300AE5E0012013889620012013800630012EE
:100E030001381764001201385164001201389264EA
:100E130000120138D965001201382F66001201381B
:100E2300786600120138E766001201385367001232
:100E330001388467001201389C6700120138B568D5
:100E430000120138C568001201387B6A00120138AC
:100E5300926A00120138C46A00120138666C0012EB
:100E63000138FA6C00120138E2FF011201385EDA30
:100E7300021201389DDA02120138A7DA0212013890
:100E830028D50212013838D5021201384DD5021285
:100E9300013801D6021201382FD302120138B4D31C
:100EA3000212013818D402120138EBD002120138B1
:100EB3000DD1021201386ED10212013880D1021213
:100EC3000138D0D1021201380ED20212013811D2E8
:100ED30002120138F27F0012013866A402120138AF
:100EE3007AA402120138F4A402120138D8A502121E
:100EF3000138AFA70212013814A8021201386BA8F7
:100F030002120138F87F0012013834C60212013888
:100F1300C4C70212013825C8021201386BC8021275
:100F2300013853CF02120138A5CF0212013818D06D
:100F33000212013885D002120138EDC302120138C2
:100F430017C402120138E6C402120138C2C50212E4
:100F53000138008002120138CC80021201380D8161
:100F630002120138478102120138A58102120138A9
:100F7300F98102120138578202120138ED820212FE
:100F83000138F583021201387F85021201381D866C
:100F93000212013884860212013897860212013840
:100FA3008B8702120138D487021201385B88021240
:100FB3000138788802120138F88802120138748ADD
:100FC30002120138438B02120138B08E021201382B
:100FD300968F02120138C57F00120138C4FF01E069
:100FE30066701008A3E066700A08A3E06670040840
:100FF300A3E06622C3E7960809E7960809E796087F
:1010030009E79622C3E09608A3E09608A3E09608B2
:10101300A3E09622C008C3E096F50808A3E0964231
:101023000808A3E096420808A3E09645087001D398
:10103300D00822080808EAC0E0EBC0E086F0E7A485
:10104300FA180986F0E7A42AFA180986F0E7A42A11
:10105300FA180986F0E7A42AFA1986F0E7A4FBE553
:10106300F02AFA190886F0E7A42BFBE5F03AFA19FF
:101073000886F0E7A42BFBE5F03AFA18180986F086
:10108300E7A4C5F02BFBE43AFA1908E7C5F0C6A4B8
:1010930026F6E5F03BFBE43AFA1886F0E7A4F6E51A
:1010A300F00826F6E43B08F6E43A08F6D0E0FBD075
:1010B300E0FA22E4CFC0E0E4CEC0E0E4CDC0E0E457
:1010C300CCC0E075F020C3E633F608E633F608E655
:1010D30033F608E633F6181818EC33FCED33FDEE5F
:1010E30033FEEF33FFC3EC9709ED9709EE9709EF52
:1010F30097191919400FFFEC97FC09ED97FD09EEBD
:1011030097FE191906D5F0BEECF709EDF709EEF7CE
:1011130009EFF7191919D0E0FCD0E0FDD0E0FED0BB
:10112300E0FF226016080808C6C313C618C613C614
:1011330018C613C618C613C6D5E0EA2270090808F4
:1011430008226016181818C6C333C608C633C60863
:10115300C633C608C633C6D5E0EA22E627F6080931
:10116300E637F60809E637F60809E637F622E026F9
:10117300F608A3E036F608A3E036F608A3E036F651
:1011830022E026F008A3E036F008A3E036F008A337
:10119300E036F022C3E697F60809E697F60809E673
:1011A30097F60809E697F622C3E096F008A3E096BF
:1011B300F008A3E096F008A3E096F022E056F608C4
:1011C300A3E056F608A3E056F608A3E056F622E09D
:1011D30056F008A3E056F008A3E056F008A3E05643
:1011E300F022E0F608A3E0F608A3E0F608A3E0F691
:1011F30022E6F008A3E6F008A3E6F008A3E6F0224F
:10120300E0FAA3E0FBA3E0FCA3E0FD22EAF0A3EBFA
:10121300F0A3ECF0A3EDF022CAC0E0E6F0A308DAF5
:10122300FAD0E0FA22CAC0E0E0A3C582CCC582C5E9
:1012330083CDC583F0A3C582CCC582C583CDC583C9
:10124300DAE6D0E0CA22C3E498F8E499F912128AE4
:101253008026C3E49AFAE49BFBE920E7E912128AA9
:10126300E498F8E499F922C3E498F8E499F912129E
:101273008AE498F8E499F9C3E49AFAE49BFB22EB35
:1012830020E7CFE920E7E0B90010BB0008E88AF0C7
:1012930084F8AAF022E4FBC8FA22EB70227B10C880
:1012A30033C8C933C9335007C39AC3DBF280069AE4
:1012B30050012ADBEAC833F4C8C933F4C9FA2275EA
:1012C300F008E4C833C8C933C933C99AC99B500469
:1012D300C92AC93BD5F0ECFBC833F4C8E4C9FA22E8
:1012E300600D08C6A2E713C618C613C6D5E0F322DD
:1012F300600C08C6C313C618C613C6D5E0F4227023
:101303000422600D18C6C333C608C633C6D5E0F43D
:101313001822251810AF08F518400215198008F592
:101323001840021519D2AF22C0D0251810AF08F506
:1013330018500205198008F51850020519D2AFD0CC
:10134300D0222518F58210AF08F518400215198030
:1013530008F51840021519D2AF851983222518F50F
:1013630082E43519F58322E4732518C582C0E0E5CC
:101373001934FFC583C0E0E518C3958224F810AF84
:10138300088583198582188008858319858218D278
:10139300AFCEF0A3E520F0A37808E608F0A3DEFAC9
:1013A300EFF0A3E58124FAF8E608F0A3E608F0A33A
:1013B300E608F0A30808E608F0A3E608F0A3158101
:1013C3001581D0E0FED0E0F8158115811581E8C0C4
:1013D300E0EEC0E0222518C582C0E0E51934FFC560
:1013E30083C0E0E518C3958224F910AF08858319FB
:1013F3008582188008858319858218D2AFCEF0A321
:10140300E520F0A37808E608F0A3DEFAEFF0A3E501
:101413008124FBF8E608F0A3E608F0A30808E60831
:10142300F0A3E608F0A315811581D0E0FED0E0F823
:1014330015811581E8C0E0EEC0E022851983851887
:1014430082E0A3FEE0A3F5207808E0A3F608DFFA24
:10145300E0A3FFE0A3C0E0E0A3C0E0E0A3C0E0E0BE
:10146300A3C0E0E0A3C0E010AF088582188583190C
:101473008008858218858319D2AFD083D082020178
:1014830035851983851882E0A3FEE0A3F52078084B
:10149300E0A3F608DFFAE0A3FFE0A3C0E0E0A3C007
:1014A300E0E0A3C0E0E0A3C0E010AF0885821885A8
:1014B30083198008858218858319D2AFD083D0829F
:1014C30022C0D02518C582C0E0E51934FFC583C00A
:1014D300E0E518C3958224F310AF0885831985824C
:1014E300188008858319858218D2AFC8F0A3E9F064
:1014F300A3EAF0A3EBF0A37908E709F0A3D8FAEC89
:10150300F0A3EDF0A3EEF0A3EFF0A3D0E0F0A3D0AF
:10151300E0F0A3D0E0F0A3E520F0A3E5F0F0A322F0
:10152300851983851882E0C0E0A3E0F9A3E0FAA35C
:10153300E0FBA37808E0F608A3DFFAE0FCA3E0FDF4
:10154300A3E0FEA3E0FFA3E0C0E0A3E0C0E0A3E0CC
:10155300F5D0A3E0F520A3E0A3F5F010AF08858351
:10156300198582188008858319858218D2AFD082A5
:10157300D083D0E0F8D0E032740480067402800295
:101583007401C0E0F404121345D0E012121B22745C
:1015930004800474028000CCC0E0EDC0E0E518C311
:1015A3009CCCAD1950011D10AF068C188D19800607
:1015B3008C188D19D2AF121228D0E0FDD0E0FC2296
:1015C300D083D082ECC0E0EDC0E0E493A3FCE493CD
:1015D300A3FDED4C600D12160FEC24FFFCED34FF60
:1015E300FD80EFE493A3FCE493A3FDED4C600D12A7
:1015F300164EEC24FFFCED34FFFD80EFD0E0FDD070
:10160300E0FCE493A3C0E0E493C0E022C0E0C3E4C1
:101613009396087401939618400FE4936670080834
:10162300740193661870007019A3A3C3E49396081A
:101633007401939618A3A3400DD0E0D0E0D0E0024C
:1016430015FFA3A3A3A3A3A3D0E022C0E0C0F08807
:10165300F0E4936670080874019366187000A8F0AC
:10166300A3A3700BD0F0D0E0D0E0D0E00215FFA32D
:06167300A3D0F0D0E0223C
:10167C0074F51213D8EAFEEBFFEE2434F8EF3400C5
:10168C00F988088909EE24351217B4F8EE243712BC
:10169C0017B4F50AEC850AF0A4FCAAF0850AF0ED63
:1016AC00A42AFDE82CF8E43DF97A257B0012128A75
:1016BC00EA850882850983F05407F87401B80002A2
:1016CC008004C333D8FCC0E0E0131313541FF8EEAE
:1016DC0028F8EF3400F9E8245DF582E93400F5834D
:1016EC00D0E0F8E0586008850882850983801DEEFB
:1016FC0024361217B4F5F0EA84A8F0EE28F8EF348B
:10170C0000F9E82438F582E93400F583E0F97F0428
:10171C0002148474F51213D8EAFEEBFFEE24341293
:10172C0017B4C0E0EE2435F582EF3400F583D0E039
:10173C00F08E828F83A3A3A3A3A3E0FAA3E0FB8E76
:10174C00828F83A3A3A3A3A3A3A3E0FCA3E0FDEC3C
:10175C00C39AF50AED9BF50BEE2480F508EF3400E7
:10176C00F509850882F583E06401702BEE2481F580
:10177C0082EF3400F5831215961217BD7402121302
:10178C002BE960137CF97D04EEFAEFFB1208C88597
:10179C000882850983E4F0AC0AAD0BEEFAEFFB127C
:1017AC00167C121F7602171AF582EF3400F583E0CF
:1017BC0022C082C083851882851983E0F8A3E0F9E2
:1017CC00C3EA9CEB9D5012C3EC98ED994019C3EA07
:1017DC0098EB99501279018010C3EA98EB9940F577
:1017EC00C3EC98ED9950EE7900D083D08222EAC3F5
:1017FC009CFAEB9DFB2200008521878522C622C026
:10180C00E074EF1214C4759B00906182E0A2E64074
:10181C00030218CCE591A2E640030218CC7591BFE7
:10182C009003BEE064057008120A5A120A6680031F
:10183C00120A60752100120AD2E99003BFF07900F8
:10184C00120AC61208327A017B009003BDE0F9122D
:10185C000D0C907803E06442600302191590055B4F
:10186C00E014F06003021915C2AF12187900782A3F
:10187C00D0E0F618D0E0F6E59F5407F97005908E8D
:10188C00D08003908ED478081211E5E9C4C0E078BA
:10189C0029E65508F50808E65509F509740B78088A
:1018AC001212F3D0E02508F8906270E0A2E740F83D
:1018BC00E8C333906272F0906270E0D2E0F080493D
:1018CC00E0A2E55024E591A2E5501E7591DF90034E
:1018DC00BEE0640D70139003E0E004F06428700225
:1018EC00E4F07A00E0F9120B44906181E0A2E3503D
:1018FC0009E5E9A2E3500375E9F7A3E0A2E7500973
:10190C00E591A2E7500375917F7F04021523C0E097
:10191C00C0D0C082C083906183E0A2E05009E5BFD3
:10192C00A2E0500375BFFEE0A2E15009E5BFA2E1C1
:10193C00500375BFFDE0A2E25009E5BFA2E25003DF
:10194C0075BFFBE0A2E35009E5BFA2E3500375BFEE
:10195C00F7E0A2E45009E5BFA2E4500375BFEFE045
:10196C00A2E55009E5BFA2E5500375BFDFE0A2E692
:10197C005009E5BFA2E6500375BFBFD083D082D01B
:10198C00D0D0E032C0E074F21214C4E5A7A2E45047
:10199C000FE5A1A2E4500953A7EF75A1EF1219E4CA
:1019AC00E5A7A2E5500CE5A1A2E5500653A7DF750B
:1019BC00A1DFE5A7A2E15009E5A1A2E1500375A1C1
:1019CC00FDE5A7A2E2500CE5A1A2E2500653A7FB4D
:1019DC0075A1FB7F0102152374F81213D875210130
:1019EC009003BEE0640670077A007B00120A42A2E4
:1019FC00AFE433FED2AF9003C4E0640170187A20D8
:101A0C007B009003BDE0F9120D967A207B009003C9
:101A1C00BDE0F9120D12906182E0D2E6F090055A09
:101A2C00E0602185C62280169003C3E06401700833
:101A3C00E5C654F84405F5C653BEFC1218047401EF
:101A4C00652160E4EEA2E092AF7F010214840000F5
:101A5C008E238F2485822885832785188285198378
:101A6C00E0CEA3E0CF852882852783EBC9EAC8EDB9
:101A7C00CBECCA75F010C3E833C8E933C9EA33CAF2
:101A8C00EB33CBC3EA9EF526EB9FF525B35004ABA5
:101A9C0025AA26EC33CCED33CDD5F0DAAE23AF242A
:101AAC002274E91213D874FA121315EAFEEBFF8CA8
:101ABC00088D099003BEE024F7C394055006908F5F
:101ACC000C021BD41209CA8A0A8B0BEA450B700351
:101ADC00021BD1120A788A0C8B0D120A78EA650C5B
:101AEC007003EB650D60ECEEFCEFFD85188285193B
:101AFC0083AA82AB83120A7E850A82850B83A3A3F9
:101B0C00780C1211E5908EE4780C1211BF851882B6
:101B1C0085198378141211E5908EE478141211BF94
:101B2C00780C7914120FF7501F780C791412119746
:101B3C00908EF4780C1210174047850C10850D11FF
:101B4C00850E12850F13804185141085151185168D
:101B5C00128517137810790C121197908EF4781057
:101B6C00121017501C7510007511007512007513AA
:101B7C0001781079141211977810790C12115E807B
:101B8C0008908F0C78101211E57409781012113F1F
:101B9C00908F48780C1211E57810790C1210B690D1
:101BAC0003BEE06408600AE064066005E06405704A
:101BBC001C908F0078101210175012908EF878101D
:101BCC001211718008908F1878101211E585088217
:101BDC0085098378101211F4740612132B7F1002EE
:101BEC00148474F71213D8120A90900558E064010B
:101BFC007010906245E4F0A3F053F4F343FE0C53E1
:101C0C0090F3120A30E5C654804449F5C6E59E545B
:101C1C007F644970F8906185740FF0900556E0F47C
:101C2C007002A3E0602C750801750900900556E060
:101C3C007808121302E508F4FAA3E0600814600AAD
:101C4C0014600C800DEA52808008EA52908003EAFE
:101C5C0052A079007F0202148474F71213D8E9FEA3
:101C6C00EAFF74016E700C7A807B009003BDE0F982
:101C7C00120D0C901FD4E493F46008E493F912084D
:101C8C0014800953C680E59E547F70FA120A369070
:101C9C000558E06401700312084A900556E0F47090
:101CAC0002A3E0602A750801750900900556E078DA
:101CBC0008121302AA08A3E0600814600A14600C4E
:101CCC00800DEA42808008EA42908003EA42A0122A
:101CDC0009CA8A088B09A808A909E8496017E5E12F
:101CEC0070FCE82414F582E93400F583E0F874FF05
:101CFC0068600288E174016F700A7A019003BDE09C
:101D0C00F9120D60021C6074F11213D88A088B0949
:101D1C008C0A8D0B740F121360780C1211E5908ED7
:101D2C00E478081211BF908EE4780C1211BF780879
:101D3C00790C120FF750157808790C121197908EB8
:101D4C00F47808121017401579018013780C790873
:101D5C00121197908EF4780C12101740EB79007FCB
:101D6C000802148474ED1213D88A088B098C0A8D1E
:101D7C000B7413121360780C1211E5908EE4780832
:101D8C001211BF908EE4780C1211BF780C790812E6
:101D9C000FF740117808790C121197AA08AB09AC0F
:101DAC000AAD0B80227510007511007512007513A9
:101DBC00017810790C1211977810790812115EAA1B
:101DCC0010AB11AC12AD137F0C021484908EE4781E
:101DDC00081211E58A828B8378081211D27F0402D3
:101DEC00148474F51213D88C828D8378081211E543
:101DFC008A828B8378081211AB121E42C3E098F0D2
:101E0C00A3E099121E34401E908F2C78081211E515
:101E1C008A828B8378081211848E828F83E024202F
:101E2C00F0A3E0344EF080A4F08E828F83C3E09454
:101E3C0020A3E0944E22EA2404F8EB3400F9E8FEE7
:101E4C00E9FF8C828D83A3A3A3A3E0F8A3E0F98E12
:101E5C00828F832274F51213D8E9FE900510E0FAF4
:101E6C00A3E0FBEEC333F8E433F9746628F582740F
:101E7C008E39F583E02AF508A3E03BF509780812C2
:101E8C00157F908F28121203121A5C740212132BF6
:101E9C008A088B098C0A8D0B74107808121126AAEB
:101EAC0008AB097F0402148474F11213D88A0C8BCA
:101EBC000D8C0E8D0F740F121360E0FAA3E0FB74FF
:101ECC0011121360E0F508A3E0F509741312136006
:101EDC00E0FEA3E0FF780812157FEA2401F508EB79
:101EEC003400F509E4F50AF50B780C790812103674
:101EFC00908F0478081211E5780C7908121036AA24
:101F0C000CAB0DAC0EAD0F121A5C740212132B8BB2
:101F1C0009EA450960047A0180027A00EC2AFCED9A
:101F2C003400FDECF8EDF97A717B0212128A880804
:101F3C008909E4F50AF50B8E828F8378081211F467
:101F4C00ECF8EDF97A717B0212128A8A088B09740B
:101F5C000578081213028E828F83A3A3A3A3E5082E
:101F6C00F0A3E509F07F08021484C082C083E990D5
:101F7C006000F0D083D08222C0E074F21214C4A2AC
:101F8C00AFE433FED2AFE589A2E04006E589A2E1D9
:101F9C005003120EC2758900758900C2C5751A00EE
:101FAC00EEA2E092AF7F01021523C0E0C0D0E8C0E2
:101FBC00E0E5A8D2AFC2C7751A00A2E792AFD0E095
:061FCC00F8D0D0D0E03295
:101FD400FFFFFFFFFFFFFFFF74F712136CE990028E
:101FE400DCF07C147D037AFF7BFF1205989002DD00
:101FF40074FFF0A3F0A3E4F0A3F079051205329086
:1020040002DCE0F912046C7AA47B05120742022E6A
:102014002674F412136C8A088B09EB548060309098
:1020240002DCE0F9120CF48A0A8B0BAE0AAF0BEE59
:102034004F60138E828F83E064B0700312053EEE0E
:10204400FAEFFB120CE2AA08E5096480FB80047A2B
:10205400007B000220E7F0A3123264A32274F21280
:10206400136C890AE975F017A4FEAFF09002E1E45D
:10207400F09002DF1220E1600A120D4E9002DFE4BC
:10208400F0A3F0EEFAEFFB120D488A088B09EA453B
:1020940009602FEEFCEFFD7900120CD09002DFE511
:1020A40008F0A3E509F07B0080081220CBE4F0A33C
:1020B400F00BEBC3950A40F2E50A9002E1F07900D7
:1020C4008002791302346CEB75F017A4F8A9F09030
:1020D40002DFE028FAA3E0398A82F58322122A6219
:1020E400EA4B227F0402143EC082C0839002E212B3
:1020F400211F601C88828983A3A3E06A7003A3E084
:102104006B8882898370E8A3A3A3A3122A5E800448
:102114007A007B00D083D082020135123479E849F9
:102124002274EE12136C74FC121315EAFEEBFF8595
:102134001882851983E4F0A3F0EE2402122DB0EE88
:10214400240512326BEE2404F50EEF1226D7E02498
:10215400FE603924FC604624FE605224FE605E2446
:10216400FE700302223824FE700302229C24FE70B7
:10217400030222AB24FE70030222BA24FC70030281
:1021840022C924FE70030222D80223159002FB7494
:1021940017F0A3E412232A1202560223158518828B
:1021A400851983AC82AD831205440222E585188229
:1021B400851983AC82AD8312054A0222E5850C0899
:1021C400850D097402121360AC82AD838508828583
:1021D4000983122A5E12048A8A0C8B0DAC0CAD0D95
:1021E400EC4D603BE4F50CF50D780C12157F750C85
:1021F400FB750D02780C12157F750CFC750D0278B9
:102204000C12157F740812136012159612349D1265
:10221400132BE9F50C700B122A5412026E800F7501
:102224000C01850882850983122318122DD0850C90
:10223400080222E87402121360AC82AD83850C821A
:10224400850D83122829603C850C82850D83A3A308
:102254001215967510FB751102781012157F751002
:10226400FC751102781012157F7408121360121590
:102274009612349D12132BE9F509700B122A54128D
:102284000274800F750901850C82850D8312231851
:10229400122DD0850908804C851882851983AC825B
:1022A400AD83120550803A851882851983AC82ADBE
:1022B40083120556802B851882851983AC82AD83E1
:1022C40012055C801C851882851983AC82AD83124B
:1022D4000562800D851882851983AC82AD83120551
:1022E40068E9F508E50860298E828F83A3E0641409
:1022F400601F850E82850F83E09002FB1223221259
:1023040034759002FC122DD0E508A312232A120280
:1023140050022CBF12347985188285198322F085E6
:10232400188285198322F07CFB7D02850A82850B45
:1023340083122A622274EE12136C74FC1213158A2F
:102344000A8B0B8C0E8D0FEA2405F508EB3400F58F
:10235400097C157D0079007AFB7B02120CD0E5081C
:102364002402F50CE50912326E85188285198385DD
:102374008210858311781012157F85088285098360
:10238400A3A3A3A312282012157FE5082405F510A2
:10239400E5093400F511781012157F850C82850D3E
:1023A40083122B75120484740612132B8A108B115A
:1023B400AE10AF11E50A2402F50AE50B122DB3EEB7
:1023C4004F70030224F780177402121360122A5EFE
:1023D40088828983EAF0A3EBF09002FBE004F0909A
:1023E40002FBE0C3940540030224F7E4F510F51161
:1023F400781012157F7510E4751102781012157F8C
:102404007510E5751102781012157F7406121360A9
:102414001215967910EEFCEFFD12349F12132BE97E
:10242400705E850882850983A3A3A3A3A3A3A3E065
:10243400F89002E4E068704812282012157F7CE5C9
:102444007D02E5082408FAE5093400FB120CCA747D
:102454000212132BE960298E828F83A3A3A3A312F4
:102464002A5E9002FBE0F5107402781012130274D5
:10247400FC2510F58274023511F583EAF0A3EBF024
:102484007402121360858210858311781012157FEF
:102494007402121360121596850C82850D83122A1C
:1024A4008412132B8A108B11AE10AF119002FBE033
:1024B400F5107511007402781012130274FB2510C4
:1024C400F874023511F988828983A31220E170031C
:1024D4000223C3E82403080808E93400F9EE4F6036
:1024E400030223CC8882898374FFF0A3F09002FB5B
:1024F400E004F09002FBE0600A122A5412026279AE
:1025040000800B850882850983122DC7790A022C65
:10251400BF74EA12136C74FE1213158C128D13EA35
:102524002405F50CEB1234871232977508007509EF
:1025340000EA2402F510EB3400F5118518828519A0
:102544008385820A85830B780A12157F850C828520
:102554000D83A3A3A3A31226ED12157FE50C240576
:10256400F50AE50D122DB3780A12157F850C8285C4
:102574000D831226F1120484740612132B8A0A8B1B
:102584000BEA450B7003022692EA2404F50EEB12C3
:1025940026D71232978A828B83A3A3A3E0F98510EE
:1025A40082851183122A686003022692E4F514F5E9
:1025B40015781412157F7514E47515027814121524
:1025C4007F7514E5751502781412157F74061213BD
:1025D400601215967913AC0AAD0B851082851183B0
:1025E4001234A512132BE9F5096003022692900216
:1025F400E4E0F8E5087009E024029002FCF080149D
:102604009002FCE0FCE82402FAE43400FBEA6C707B
:1026140001EB707E850882AA82122817941412286E
:102624000F506B850E82850F83E0C0E074FD2A1283
:1026340026CED0E0F00508850E82850F83A3E0C086
:10264400E085080A74FD250A1226CED0E0F00508BC
:102654009002E41226ED12157F7CE57D0285080ABE
:1026640074FD250A1226E112132B9002E4E02508DA
:10267400F50874FF6E700374FF6F6012EE24010E90
:10268400EF3400FFE508C39414500302253FE50826
:102694006013122A72851082851183122A5E120237
:1026A4006879008014E509700375090A851282852A
:1026B4001383EEF0A3EFF0A909740212132B7F0E1B
:1026C40002143E85080C74FD250CF5827402340056
:1026D400F583223400F50F850E82F58322FA740205
:1026E4003400FB120CB87402221232CD22A3A312BE
:1026F40026F722122DBEFDEEFAEFFB2274EE121322
:102704006C74FE1213158C0E8D0FEA2405F50CEB78
:1027140012326E750B009002FBE4F0F50AEA240213
:10272400F508EB3400F50980449002FBE0FA9002CE
:10273400E4E0F8122817941712280F400D9002FBBA
:10274400E0F87416C3989002E4F012282012157F62
:102754007CE57D0274FC2AFA74021226E412132B1F
:102764009002E4E0F89002FBE028F0050AE50C246E
:1027740016F582E50D1226D2E0F8E50AC3985074E6
:102784009002FBE0C39416506BE50AC333F8E433BC
:10279400F9E50C28FEE50D39FF851882851983AC0F
:1027A40082AD838E828F831228297008750B0112E3
:1027B4002DC38050E4F510F511781012157F7510B3
:1027C400E4751102781012157F7510E57511027801
:1027D4001012157F74061213601215967916850867
:1027E400828509831234A512132BE9F50B700302B9
:1027F400272D80BB7CFB7D02850882850983122AF4
:102804005E12027AA90B7402022CC1E99400C3651A
:10281400D03322EA28F8E43400F9E822E0F5107510
:102824001100781022122CB68A108B11AC10AD1145
:10283400EC4D2274EA12136C74FC1213158A0C8B7F
:102844000D8C128D13EA2405F50AEB122DB37508CD
:1028540000750900E50A2402F510E50B3400F511B2
:10286400740212136085820E85830F780E12157F11
:10287400850A82850B83A3A3A3A312327312157F47
:10288400E50A2405F50EE50B3400F50F780E121554
:102894007F851082851183122DB9122A581204845F
:1028A400740612132B8A0E8B0FAE0EAF0FE50C2499
:1028B40002F50EE50D3400F50F80388882898374A3
:1028C400FFF005081226C774FFF005089002E4E043
:1028D400F50C750D00780C12157F7CE57D028508DA
:1028E4000C74FD250C1226E112132B9002E4E02552
:1028F40008F508EE4F60278E828F83A3A3A3E0F927
:10290400850E82850F83122A68EE240412326BE945
:102914006027850C82850D83122A4A122DD0E50882
:102924007003022A30122A72850E82850F83122ABE
:102934005E1202807900022A45E4F514F515781434
:1029440012157F7514E4751502781412157F751429
:10295400E5751502781412157F74081213601215A8
:10296400967911EEFCEFFD850E82850F831234A556
:1029740012132BE9F509709A850882AA82EA90025B
:10298400E47009E024049002FCF08025E0F8900251
:10299400FCE0F514E82404FCE43400FDEC65147058
:1029A40001ED7081122817941212280F4003022996
:1029B40029850C82850D83E0C0E074FD2A1226CEA1
:1029C400D0E0F00508850C82850D83A3E0C0E012F9
:1029D40026C7D0E0122A8D85820C85830D780C12CF
:1029E400157F740412136012159685108285118365
:1029F400122A8412132B8A0C8B0DAE0CAF0D850892
:102A04000C74FD250CF874023400F9EE4F700302C7
:102A140028BF851882851983E088828983122A8DCC
:102A2400A3E0C0E01226C7D0E00228CDE509700378
:102A340075090A850A82850B83122A4A122DD0A9A8
:102A44000974040226BF1234798512828513832205
:102A54007CFB7D02850A82850B83122A6222E0FABE
:102A6400A3E0FB22122A62120472E9F50922900201
:102A7400FCE0F5F0E508849002FBF07CFB7D02228B
:102A84001226F7120490740422F005088518828532
:102A940019832274EC12136C74FE1213158A088BBA
:102AA400098C0E8D0FEA2405FEEB3400FF122CA0D6
:102AB400EE241812326BEA450B7003022B43122CDE
:102AC400895029122B688A108B11EA4511606B79A1
:102AD40012AC0AAD0B850882850983122A5E851023
:102AE4008285118312136AE9F50A7058E4F50AF530
:102AF4000B780A12157F8E828F83A3A3E0F50A78E0
:102B04000A12157FEE2403122DB0780A12157F8E57
:102B1400828F83122B75120586740612132BE9F526
:102B24000A7021850C82850D83E0701F85088285DB
:102B34000983122A5E1202868011750A0E800975B5
:102B44000A018004E50A6003122DC3850C82850DF9
:102B540083E0600479008002A90A740212132B7FB7
:102B64000C02143E851882851983122A6212057A92
:102B740022122DBEFD850882850983122A622274E1
:102B8400EE12136C74FE1213158A088B098C0C8DCB
:102B94000DEA2405FEEB3400FF750E00122CA0EAAA
:102BA400450B7003022C67122C89502C122B688A57
:102BB4000E8B0FEA450F604A7912AC0AAD0B8508FB
:102BC40082850983122A5E850E82850F8312136A19
:102BD400E9F50E6003022C6A850882850983122EAA
:102BE40045AA0AFB122C7B70147AFF7BFF122C7B04
:102BF400606C88828983E50AF0A3E50BF0750A000E
:102C04008007750E0E805F050A9002E1E0FAE50A7E
:102C1400C39A504AE50A75F017A4FAABF088828982
:102C240083A3A3E02AFAA3E03BFB8A828B83122DC1
:102C3400B9EC4D70D2750A17750B00780A12157F1E
:102C4400EEFCEFFD120CB8740212132BEEFCEFFD38
:102C5400850882850983122A5E12028C8014750EFF
:102C6400098003750E01123471850C82850D83125F
:102C74002DD0A90E02280A12056E8A108B11A810F5
:102C8400A911E84922E5082402F508E5093400F50C
:102C9400098A828B83A3A3A3E0A2E52285188285F7
:102CA4001983AC82AD838E828F83122CB68A0A8BF1
:102CB4000B22E0FAA3E0FB12048A22740412132B01
:102CC4007F0A02143E74EC12136C8C108D11EA24EA
:102CD40005F50CEB12326E750F00EA2402F50AEBCF
:102CE400122DB3850A82F583122A5E12352B7003E6
:102CF400022DA5750E008071850C82850D83E0641C
:102D040001704F8E828F83A3A31215968E828F83B8
:102D1400A3A3A3A3E0F512751300781212157FEE96
:102D24002405F512EF3400F513781212157F122AD8
:102D340058120586740612132BE9F50F6014850CDE
:102D440082850D83E4F0123471851082851183121B
:102D54002DD07C177D007900EEFAEFFB120CD08E9B
:102D6400828F83E4F0A3F0050E9002E1E0F8E50E13
:102D7400C398501EE50E75F017A4F8A9F0850882D3
:102D8400850983A3A3123491122DB9EC4D6003027B
:102D94002CFC85088285098374FFF0A3F0E50F708D
:102DA40006122A58120292A90F022B63F50AEF3475
:102DB40000F50B22A3122DBEFD22E0FCA3E0228E1F
:102DC400828F83123479850E82850F83E8F0A3E91C
:102DD400F022C082C0839002DDE06A7003A3E06B3E
:102DE40070067ADD7B0280047A007B00022118746D
:102DF400F712136C7F00EF75F003A4F8A9F0EC2828
:102E0400F8ED39F988828983E06A7003A3E06B7076
:102E140006E8FAE9FB800B0FEFC3940240D87A006E
:102E24007B007F0102143E74F612136C12337C7023
:102E3400067A007B008007A3A3A3A3122A5E0234B0
:102E44003DE0F50AA3E0F50B2274E812136C74FB61
:102E5400121315E9851882851983F08A168B178C4D
:102E64000E8D0F741F1213601232AD742112136091
:102E7400122E4574231213601232977510008C823F
:102E84008D83A3A3A3E0A2E4502A741D121360123D
:102E94002B6E8A828B83E58245837003022F5979D6
:102EA4000AAC0EAD0FAA16AB1712136AE9F510603F
:102EB40003022F5C850E82850F83E06402600302A7
:102EC4003212A3123475850882850983A385821280
:102ED400858313E50E2406F50CE50F12326E888205
:102EE4008983E0FAA3E0F9EA2400F514E439F5153E
:102EF40078141215C3010000280128212F070002AD
:102F040028F82F0328682F0029223101294A310289
:102F140029F130032922310429B3311232EE4F70E2
:102F24003E850C82850D83123288FAE9FB8A828BF6
:102F340083E0850A82850B831232C412157F8A824C
:102F44008B83A3122DBEFDAA08AB09120CB8740220
:102F540012132B800375100EA910740502347F75AB
:102F6400100B80F4EE4F70F7850A82850B83740191
:102F7400F012329D850882850983F07C007D0085EE
:102F84000E82850F83A3A3A3A3E02401FAA3E03454
:102F940000FB12048AEA4B60418A828B83E024029C
:102FA400F8850A82850B83E028F0EA2404F8EB34E0
:102FB40000F988828983E08512828513831232D6D0
:102FC4001232C412157F8A828B83122DB8E508242D
:102FD40003FAE5093400FB022F4F850A82850B832F
:102FE400E02404F07C047D007900AA12AB13120CD7
:102FF400D0022F5CEE4F6003022F6312329DFEA3BA
:10300400E0FF850A82850B837404F0EE85088285CF
:103014000983F0EF851282851383F0740312136021
:10302400AC82AD83EEFAEFFB12336A70030230CE4A
:103034008A828B83A3A31232937401121360858254
:103044000E85830F780E12157F7405121360121506
:10305400967CFF7DFF120490740412132B8B0FEAED
:10306400450F7033850C82850D8312327312157FE0
:10307400850C82850D83A31215967C027D007A61EE
:103084007B8F120328740412132BE9700A74011243
:10309400136074FFF0A3F08E828F83E064027034B7
:1030A400750C02750D00780C12157F8E828F8312B9
:1030B4002DB8E5082404FAE5091226E412132B8539
:1030C4000A82850B83E0240280097401121360EEE6
:1030D400F0A3EFF07401121360123284F074011241
:1030E4001360A312327CA3A3A3F0022F5CEE4F6003
:1030F40003022F63850C82850D83122DB9AA16ABAA
:103104001712059E850A82850B837402F0EA8508EE
:1031140082850983F0851282851383EB80CBEE4F81
:103124006003022F6312329DF8A3E0F9850A8285B9
:103134000B837402F0E8850882850983F0E985121F
:103144008285138380A3850C82850D83122A5E12E7
:103154000CB2EAFC8C82A882C39EE49F404BE86ECA
:103164007001EF70047C00801F851882851983E04C
:10317400FAEE2AFAEF3400FBC3EA98EB940050030A
:10318400E08004EECCC39CFCEC850A82850B83F0C2
:103194008C0A750B00780A12157F850C82850D83C5
:1031A400E02EFCA3E03F022F4A751007022F5CEECD
:1031B4004F6003022F63850C82850D83123475855D
:1031C4000A82850B837407F08882898312327C1209
:1031D4003264E0851282851383F0E82402FAE9342C
:1031E40000FB8A828B8312327C1232B5123284A3A2
:1031F4001232BE12328DF0E82405F8E93400F98861
:1032040082898312328DA31232D6A30230EA741D4E
:103214001213601233757003022F59123475880C1F
:10322400890DE8450D7003022F598E108F11781007
:1032340012157F780A12157F780812157F7406120A
:103244001360E0F9AC0EAD0FAA16AB17850C82859E
:103254000D8312136A740612132BE9F510022F5C06
:10326400F088828983A322F50CEF3400F50D22E067
:10327400F50E750F00780E22E085088285098322F9
:103284001232DD22123479E8221232DDA3A322A302
:10329400A3A3A3E0FEA3E0FF22850C82850D83E0B7
:1032A400F8A3E0F5838882E022E0F508A3E0F509BD
:1032B40022A3A3F08A828B83A32212205CA3A322DD
:1032C400F08A828B831232CD22E0F50A750B0078E6
:1032D4000A221232641232DD22E0850882850983D3
:1032E400A3A32274EE12136C74FE1213158A0A8BB4
:1032F4000BECFAEDFB7414121360E0F510A3E0F587
:10330400117416121360E0FE7418121360E0F50EC7
:10331400A3E0F50F851882851983AC82AD8312333F
:103324006A603E851882851983123375602FA3A3C2
:103334001232ADE50845096024780E12157F781025
:1033440012157FEEF9AC0CAD0DAA0AAB0B85088201
:1033540085098312136A740412132B8006790E8074
:1033640002790102280A12048A8A0C8B0DEA450D9F
:1033740022122A6212337C221205388A828B83E558
:103384008245832274F612136C74FE121315740CA6
:10339400121360123288851882851983F074011221
:1033A4001360E9F0E4F508F509780812157F75084B
:1033B40002780812157F74041213608582088583CD
:1033C40009780812157F120586740612132B7402ED
:1033D40012132B806474F712136CEAFEEBFF890856
:1033E4007C147D0312059EEA5402600BA908EEFAD0
:1033F400EFFB12047E80027901022E2674F612136A
:103404006C74FF6A700374FF6B701C7B00EB75F0C7
:1034140003A4F8A9F0EC28F8ED39F91234420BEBC7
:10342400C39402501480E61205748A088B09A80814
:10343400A909E84960031234427F0202143E8882DB
:10344400898374FF12205AE4F02274F612136C126A
:1034540005748A828B83E58245836006A3A3E0FA20
:1034640080027A007B0080D17F0602143E8E828F18
:103474008312347922E0F8A3E0F92212132B7F108F
:1034840002143E3400F50D850C82F58322E028FEFB
:10349400A3E039FF8E828F83227916850A82850BF9
:1034A40083122A6212058074082274F212136CEAE1
:1034B400FEEBFF890B7401650B600E7402650B70E3
:1034C400637901120760E9705BEEFAEFFB12352BAA
:1034D4006047750A00800B7C177D007900120CD0C0
:1034E400050A9002E1E0F8E50AC3985021E50A755F
:1034F400F017A4F8A9F0850882850983A3A3E0281E
:10350400FAA3E039FB8A828B8312211F70C98508D4
:103514008285098374FFF0A3F07C147D03EEFAEF37
:10352400FB12059802346C12056E8A088B09EA4571
:103534000922C082C0839061907404F0A37448F09F
:10354400A3E4F09061807440F09061BC7407F09043
:1035540061877469F09061B67416F07900120838C6
:10356400790212083E901FD4E493F46006E493F9C0
:103574001208147905120B26023978C082C083E937
:10358400540FF9906185E0696012E5C6548044499E
:10359400F5C6E59E547F644970F8E9F053C680E5AA
:1035A4009E547F70FA02397874F712136CE5A8FE02
:1035B40053A87E120820C2BA539AFEC289759B0092
:1035C400C2C212082675A91175B90512082CD2BAFF
:1035D400439A0174805E42A8023F05C082C0839072
:1035E4006181E4F0A302397575E90075910075BF36
:1035F40000020135C082C083906181E4F0A374C0ED
:10360400F0A3E4023977C082C08374F812131590D2
:1036140003C0123DE7E84970030236C19003C0E0DD
:10362400544060237908851882851983AA82AB8364
:1036340012092E851882851983AA82AB831205F29A
:103644009003C0E054BFF0E054806010790C7A7CA1
:103654007B0512092E9003C0E0547FF0E0A2E050F5
:103664000879001236C954FEF0E05402600879016A
:103674001236C954FDF0E05404600879001236D4BF
:1036840054FBF0E05408600879011236D454F7F082
:10369400E05410600879021236D454EFF0E054205C
:1036A400600879031236D454DFF0A3E05401600DAE
:1036B40012084A1206049003C1E054FEF074081282
:1036C400132B0239781208381205F89003C0E0224F
:1036D40012083E1205FE9003C0E022C082C083E9B6
:1036E400600514602A804F90619A7433F0A3745576
:1036F400F09061A0743AF0900558E064017009C23A
:10370400919003C27467802D9003C27461802690E7
:10371400619A743FF0A3745AF09061A0747FF090A2
:103724000558E064017009D2919003C27471800558
:103734009003C2746AF0023978C082C083E9600BD6
:1037440014600D14600F1460118020901FD8801530
:10375400901FD98010901FDA800B900558E0640107
:1037640060F3901FDBE493906186F002397874EE85
:1037740012136C74F4121315851882851983AC82A4
:10378400AD8375838E7582B87404121228901FD885
:1037940093F46003023904907808E0C39402500360
:1037A4000238E47404121360AC82AD8375838E75A1
:1037B40082A47408121228F97AFF7BFF7FFF7E002F
:1037C4008982858210801874086E70030238997497
:1037D400096E7003023899740A6E7003023899E511
:1037E40010C333FCE433FD7404121360E5822CF53A
:1037F40082E5833DF583E0F50EA3E0F50F8E0875B1
:1038040009007402780812130274482508FC7478BD
:103814003509FD8C828D8378081211E574087808C7
:1038240012112685080C85090D8C828D8378081267
:1038340011E574187808121126E50C4508F508E519
:103844000DF509C3E50E9508E50F95098C828D8366
:1038540078081211E58C828D8378081211E57418AA
:1038640078084014121126E50C4508FCAD0DE50E50
:10387400C39CFCE50F9D800F121126E50C4508C37F
:10388400950EFCE50D950FFDC3EC9AED9B5006ECEF
:10389400FAEDFBEEFF0EEEC3941350030237CB7424
:1038A400FF6A700374FF6B602D8F0874027808122E
:1038B4001302744812459374783509F58378081215
:1038C40011E5851882851983E5822510F582E58343
:1038D400124320E508F009E9C3940450030237BCFD
:1038E400750801750900780812157F7402121360B7
:1038F400AC82AD837AF67B07120E9E740212132BF0
:10390400740C12132B7F0A02143EC082C083906190
:1039140086E0F8901FDBE493687009901FDAE49363
:10392400906186F09061AE7468F0A3746AF090625E
:103934004574FBF0A304F053F4FD43FE02900558D4
:103944007401F09061A0E0643A7004790080027917
:1039540001120838023978C082C08390050AE064F5
:1039640001700A90050FE06004790C8002790080F0
:1039740003F0A3F0D083D082020135C082C08375E6
:10398400E1F190050DE0604D14600814605114607D
:1039940049805112085C900503E0F97A047B051212
:1039A4000AA8908EC0121203120ADE908F241212FB
:1039B40003120AB490050EE0F9120AC07901120B41
:1039C4001A900501E02416123B0D7474F0A37408D8
:1039D400F07900809F12086280BC12086880B712D8
:1039E400086E80B2791280EB74F412136C75D90DE1
:1039F4009004F2E0A2E0E4331313F8123A79484455
:103A040001F5D97800123AF740FB7800880874F37E
:103A14001245937404123B0140F275E1959004F24F
:103A2400E0F97AF37B04120AAE9009DE74EAF0A39B
:103A34007407123B1C123B3C123B33123C74123A87
:103A44008378081211E5908EC47808121171908E53
:103A5400E478081211BF123B0778081211F490059C
:103A640001E02414123B0D7413F09003BE7402F0B1
:103A74007F0402143E900503E0C4333354C0229003
:103A84000501E0F8A3E0F5838882A3A32274F6126B
:103A9400136C123C458AD97800123AF740FB78003F
:103AA4008006123BAB123CF7E8C39940F5123C3751
:103AB400123AF740FB7800800812458F7405123CD7
:103AC400F7E8C39940F375E1959009DE74F6F0A325
:103AD4007407123B1C123B26121203123B071212EC
:103AE4000F900501E02414123B0D7412F09003BEF4
:103AF400023EE2880874042508F5827405123E53D8
:103B0400940622900501E0240EF8A3E0123B14224F
:103B14003400F98882898322123C5D74F0F0A37426
:103B24000722123B3C123B33123C78908F2C22F03C
:103B3400A37408F0A3740822123B4022123B4422CF
:103B4400F0A3749AF0A374092274F612136C123B56
:103B5400A0123A794402F5D97800123AF740FB787A
:103B6400008006123BAB123CF7E8C39940F575E1BF
:103B7400959009DE123BB6F0A3123BB6123B291214
:103B84001203123B0712120F900501E02414123B9A
:103B94000D7414F09003BE7404023EE4900513E027
:103BA400F9740729F5D922880874142508F5827454
:103BB40005227402123BC3123BC3F0A3740822F023
:103BC400A37408F0A374022274F612136C123C4519
:103BD40074064AF5D97800123AF740FB780080065B
:103BE400123BAB123CF7E8C39940F5123C37123A4A
:103BF400F740FB7800800812458F7405123CF7E803
:103C0400C39940F375E1959009DE74FCF0A3740741
:103C1400123C53123B26121203123B0712120F904E
:103C24000501E02414123B0D7415F09003BE7403D7
:103C3400023EE4900533123BA374044AF5D978009C
:103C440022123BA0900503E0C4333354C0FA22127D
:103C54003C5D749AF0A3740922123C6122123C6EFA
:103C6400749AF0A37409123C6E22123B44F0A3220E
:103C7400123C7822F09009EC749AF0A37409123C77
:103C840061749AF0A37409123B40F022C082C0838D
:103C9400123A83A3A3A3A3E402397574F712136C35
:103CA4001247D5F8740339F9E82405FAE93400FB1E
:103CB4008A828B8312454488828983A3A3A3A3A306
:103CC400A3A3A3A3ECF0A3EDF088828983A3A3A309
:103CD400A3A3A3A3E024FFF8A3E034FFF98A828B13
:103CE40083E8F0A3E9F0023F058808745C2508F531
:103CF40082740512446BF5D90822EAFEEBFF906149
:103D0400D0E0F87480C398FAEE248322123D16940E
:103D1400042212432EE0F5D90AEAC32274F61213E0
:103D24006CEAFEEBFF9061D0E0707575D90E75D921
:103D34000375D9047A008A08EE25081248A3248C56
:103D4400123DB940F17A008A08EE25081248A324EE
:103D540084123D1040F175E1957908EE248C123DF2
:103D6400B22484123DA97C008C82AA82C3E49AF80E
:103D740095E0F9EE28F8EF39F9E8248BF582E91299
:103D84004467C0E0EE2A1248A324ABF582E912434B
:103D940020D0E0F00CECC3940840CD123E6F8002BA
:103DA4007900023EE5FAEF3400FB12092222123DAB
:103DB400A97904EE22123D16940822C082C08375AC
:103DC400D90275D90375D90575E195EA2470F58290
:103DD400EB123DE4EA2472F582EB123E810239785B
:103DE400124331123DEB22E0F8A3E0F92274F612FB
:103DF400136CEAFEEBFF90055C7406123E5D12152F
:103E04007F7C01790312418912132B75D90675D968
:103E1400037800123E4340FB75E1959003BEE064D5
:103E2400087017EE2470F582EF123DE4EE2472F56B
:103E340082EF124320E8F0A3E9F07901023EE5881D
:103E440008745C2508F5827405123E539405221209
:103E54004331E0F5D908E8C322F075085C7509051B
:103E640078082275E1957904120AE4EE2470F5824B
:103E7400EF124331123DEBEE2472F582EF1243311F
:103E8400E8F0A3E9F079012274F612136CEAFEEB70
:103E9400FF9061D0E07043790190055C740BF09061
:103EA40003BEE06407701775085C7509057808128D
:103EB400157F7C01090912418912132B79057401BC
:103EC40029F5D975D90378008003123CEDE8C3992C
:103ED40040F875E195123E6F800279008003740109
:103EE400F07F0202143E74F712136CEAFEEBFF75C6
:103EF400D90375D90375D90DEE24DE123F0A123E9B
:103F0400677F0102143EF582EF12446BF5D9227FDC
:103F14000302143E7401250AF5D975D903780022E9
:103F240074F512136C123F996004780480027800CF
:103F3400E8240BF8EAC3984041750A0990055C74BB
:103F440009F07908123F82601475085C75090578D8
:103F54000812157F12418112132B750A0D123F1896
:103F64008003123CEDE8C3950A40F775E1957904A6
:103F7400120AE41240FE7901800279008091EE2455
:103F8400E3FCEF3400FD7A5D7B0512091C85088291
:103F9400850983E022123CFEF8EF124538F583E0F0
:103FA4002274F312136C8A088B09124194FAE508FF
:103FB4002483F50AEB1240636004780480027800DD
:103FC400E82408F8EAC398500302405C750C069094
:103FD400055C740CF09003DBE090055DF07402C0A6
:103FE400E0F97CDC7D037A5E7B0512091CD0E0F9E4
:103FF4007CDE7D0312091C850A82850B83E0601C2C
:10400400750A5C750B05780A12157F7C067903AA7C
:1040140008AB0912418912132B750C0A7401250C83
:10402400F5D975D90378008009880A745C250A12C9
:104034003CF3E8C3950C40F175E1957904120AE468
:10404400E5082470F582E509123DE4E5082472F5DB
:1040540082E509123E81800279007F0502143E3414
:1040640000F50B850A82F583E02274F612136CEADC
:10407400FEEBFF124194FCEE2483F8EF12418F60B3
:10408400047A0480027A00EA2404FAECC39A405EBB
:104094007A0290055CEAF0EE24F5F582EF12410A0B
:1040A400601975085C750905780812157F7C02791A
:1040B40003EEFA12418912132B7A0674012AF5D9F8
:1040C40075D90378008003123CEDE8C39A40F87573
:1040D400E195EE24741240F7EE24801240F712406A
:1040E400FE7904120AE4EE240D123E728002790075
:1040F400023EE5F582EF12427A22EE241DF582EFAC
:1041040012427AA3F02212446B90055DF0888289F2
:1041140083E02274F612136C124194FEEA2483F8AD
:10412400EB12418F60047C0480027C00EC2404FCCC
:10413400EEC39C40437C0290055C7407F0EA24F6CD
:10414400F582EB12410A601575085C75090578085B
:1041540012157F790312418912132B7C0674012CEA
:10416400F5D975D90378008003123CEDE8C39C406F
:10417400F875E195790180027900023EE57C0979C0
:1041840003EEFAEFFB12098E740222123B14E022B2
:104194009061D0E0F87480C3982274F512136CE92E
:1041A400FEA2AFE433F50AC2AF7F00EA246FF8EB56
:1041B4003400F980010F88828983E0FCEFC39C50AE
:1041C400188F08EA2508FCEB3400FDEC246BF5821B
:1041D400ED1244676E70DE8010EA2CFAEB3400FBBB
:1041E40012431AEE12411004F0E50AA2E092AF0263
:1041F4003F1374F612136CA2AFE433FFC2AFEA2488
:104204006FF8EB1248A5FCE9FD8C828D83E014F075
:104214007E0080218E08EA2508F8EB1248A5246C5C
:10422400F582E9124467C0E0E8246BF582E91243A1
:1042340020D0E0F00E8C828D83E0F8EEC39840D459
:10424400EA246E12431D74FF12426FEFA2E092AF94
:10425400023EE5C082C083E5A8F8C2AF12431AE962
:1042640012426FE8A2E792AF023978F0EA246AF5C5
:1042740082EB12427A22124331E4F02274F21213D6
:104284006C8C828D83A3A3A3A3E0541FF0EA24368D
:104294001245DC8E828F83E4F0F50C850C828582D6
:1042A4000AEC250AF8ED124534F583E0C0E0EA256E
:1042B4000AF8EB124324D0E0F0750D0085088285DE
:1042C4000983E0F50A750B00E50D780A1212E3E59F
:1042D4000AA2E0502AE50C33333354F8250DC0E02C
:1042E4008E828F83E0F8EA28F8EB1248A52438F58B
:1042F40082E9124320D0E0F08E828F83E004F0053F
:104304000DE50DC3940840B4050CE50CC3940540B9
:104314008A7F0602143EEA246BF582EB12433122B3
:104324003400F9E8245D12432E22F582E93400F5C5
:10433400832274F612136C9003EAE0640170077A26
:10434400007B000244617E009003F0E070F1740190
:10435400F0A3E4F0A3F090045004F0900453E4F0CC
:10436400A3F090045604F09003F3E412447890030D
:10437400FD04F0900423E4F0908F181212039004CB
:104384000612120F90040AE4F0A3F0A3F090046E56
:10439400F0900462F09004577480F0A3E4F0900469
:1043A4005DF0900455F09004D91244709004E2F04A
:1043B400900471F09004C1F0A3F0908F18121203CE
:1043C4009004C312120F908F181212039004C71294
:1043D400120F9004CDE4F09004CFF09004CBF09051
:1043E40004E51244708E0874591245937404124300
:1043F4002074FFF00EEEC3940440EA7E008E82A87F
:104404008274F928F5827404124467C0E0744B285E
:10441400F5827404124320D0E0F00EEEC3940540FC
:10442400DC7E008E82A88274D228F5827403124442
:1044340067C0E074D128F5827404124320D0E0F000
:104444000EEEC3940840DC9003EAE004F0640170CB
:10445400089003F2E09003ECF07AEE7B03023EE571
:10446400F582EF12446B22124331E022124478A306
:1044740012447822F0A3F0A3F0A3F022C082C083F8
:10448400EA2403F582EB1244676008E4F09003EB3E
:10449400E014F09003EAE014F070069003EC74FF6B
:1044A400F08A828B83A3A3E4F09004FEE0700D9065
:1044B40003EBE0640170057900120AC6023978C082
:1044C40082C0839003F1E4F09003F0F09003EAF0EB
:1044D400A3F0A374FFF075E1F1023978C082C083C0
:1044E400780079009003F1E0600478EE7903888223
:1044F4008983A3A3A3A3E0F902397874F612136C99
:10450400EAFEEBFF1208D4EE2465F8EF12453412EC
:104514004542EC4D60109003EC1247CD850882852E
:104524000983E4F0A3F0EEFAEFFB1209C4023EE5BE
:10453400124538223400F988088909888222F583D3
:10454400E0FCA3E0FD2274F712136CEAFEEBFF8E8D
:10455400828F83A3A3A3A3E0FA7B0012066AEEFA78
:10456400EFFB1208E61209A6023F0574F612136C5B
:104574007800880874D212459374031240FA08E84C
:10458400C3940840ED9003D2023EE28808743425B7
:1045940008F5822274F612136CEA240D1245DCEC41
:1045A4002403F8ED3400F988088909EC2407F8EDB0
:1045B4001248A5FCE9FD1245E612128A8E828F8309
:1045C400E8F0A3E9F01245E612128A8B09EA4509DC
:1045D40060031245F9023EE5F8EB3400F9E8FEE920
:1045E400FF228C828D83123DEB850882850983E04E
:1045F400FAA3E0FB228E828F83E02401F0A3E0344F
:1046040000F02274F612136CEA242EF582EB3400C7
:10461400124542EA24701245DC780079FAECFAED8E
:10462400FB12128A8E828F83E8F0A3E9F078007976
:10463400FAECFAEDFB12128A8B09EA4509600312BF
:1046440045F9023EE574F012136CEAFEEBFF7410B8
:1046540012136078081211E5120A728A0C8B0D8C01
:104664000E8D0F908EC8780C121171908EE4780C18
:104674001211BF780C12157B8E828F83123A861228
:104684001203121D13740412132BE9600302473141
:104694008E828F83E02402F8A3E01248A5FAE9FB96
:1046A4008A828B837808121184908EE47808121120
:1046B400E58A828B8378081211D2EE240BF582EFFF
:1046C400124320C082C0838E828F83A3A3A3A3A39B
:1046D400E02401F8A3E03400F9D083D082E06870CC
:1046E40003A3E069700479018045EE2407F8EF1212
:1046F4003B141245FDEE24741248AA7014EE24757E
:104704001247387003A3E06D70078A828B831245C9
:10471400FDEE24801248AA7014EE248112473870EA
:1047240003A3E06D70078A828B831245FD79007FB5
:104734000802143EFAEF3400FB8A828B83E0FCA368
:10474400E0FD88828983E06C2274F312136C1247B3
:10475400D5FE740339FFEE2404F50AEF3400F50B9B
:10476400EE2465F508EF3400F50980101245448500
:104774000882850983E4F0A3F01247C7850882857F
:104784000983124544EC4D6030EE2464124464F510
:104794000C780C121583EE2463124464F9EEFAEFDC
:1047A400FB120910740112132BE985088285098311
:1047B40060BA123DE7E84970077C007D001247C7E4
:1047C40002405E850A82850B83E0FA7B001206288C
:1047D400229003ECE0F875F004A4C8AAF02AF97456
:1047E400EE282274F212136CEAFEEBFF890A740EAF
:1047F400121360E0FAEE24621248AA600302489E93
:10480400124194F50CEE2483124464FB6004780492
:10481400800278008908E928F8E41248A5240208EF
:1048240008E93400F9E50C98E499A2D265D0334044
:1048340065EA7005750B028003750B01EB60337537
:104844000900780812157F7A5C7B051209587402F6
:1048540012132B75085C750905780812157FAC0ACC
:10486400A90B12418512132B7404250AF50A7C5CEA
:104874007D057401250AF5D9850BD97800800A884D
:1048840008EC124593ED123CF7E8C3950A40F07525
:10489400E195790080067907800279FF024315F8D3
:1048A400EF3400F9E822F582EF12446B640122C070
:1048B40082C08380031248E1E9F874FF2819047068
:1048C400F4ECFAEDFB023978C082C083800312480D
:1048D400E1E9F874FF28190470F40239788C828DA8
:1048E40083E08A828B83F08C828D83A3AC82AD8338
:1048F4008A828B83A3AA82AB832274E812136C90FE
:104904007803E06442705E90055BE014F07056C278
:10491400AF12491800782AD0E0F618D0E0F6E59FE7
:104924005407F97005908ED08003908ED4780812C5
:1049340011E5E9C4C0E07829E65508F50808E6550C
:1049440009F509740B78081212F3D0E02508F890E1
:104954006270E0A2E740F8E8C333906272F09062BC
:1049640070E0D2E0F09003ECE0F874FF68700302AA
:104974004C30E81256892402F8EF3401F988828910
:1049840083125703EA4B600FEE2401F582EF3401E2
:10499400F583E0F9120D0CEE2405F514EF3400F55F
:1049A400158E828F83A3A3A3A3A3A3A312511512CD
:1049B400569F906054E09003C5F0906055E09003DA
:1049C400C6F0906056E09003C7F0906057E0900303
:1049D400C8F0906058E09003C9F0906059E09003EB
:1049E400CAF090605AE09003CBF090605BE09003D3
:1049F400CCF090605CE0FC9003CDF090605DE0FD55
:104A04009003CEF090605EE0F50C9003CFF09060E0
:104A14005FE0F50D9003D0F09003CBE0F5108C0827
:104A24002508F8E43400F9850C081250C08D0812EA
:104A340050C0850D081250C0EE24F712564B125682
:104A4400F58C8285820AEE24F9F582EF125109EE83
:104A540024FB1250FDEE24FFFAEF3400FB8A828B14
:104A640083E0F508A3E0F509E5084509603A90609C
:104A740000E0C333F508E433F5098A828B83E0252B
:104A840008F50EA3E03509850E82F5831256F590DC
:104A94006000E0C333F8E433F98A828B831256B0A2
:104AA400244AF582E9125109EE240BF8EF3400F997
:104AB400EE241DF50EEF3400F50FEE2420FAEF344A
:104AC40000FBEE241C125633EE240FF50AEF3400DB
:104AD400F50BE510700BED7008E50C7004E50D6046
:104AE400798514828515831256CBEE240D12565502
:104AF4002CFCA3E03DFD88828983ECF0A3EDF01249
:104B040050DA70031251409003C6E0602485088295
:104B14008509837401F0EE246A1256557013EE244D
:104B240074125655700BEE248012565570031251B0
:104B340040906062E08E828F837003024BC3E02456
:104B440006FCA3E03400FD1256E2120A6C8E828F3A
:104B540083E024121256A5E48079EC60181250DA2E
:104B640070238A828B831256CB850E82850F83EC49
:104B7400F0A3ED800FEE24FD1250FD850E82850F0B
:104B840083E4F0A3F088828983125115E0687003EE
:104B9400A3E0696003024B0B850A82850B83E06006
:104BA4000F851482851583E064057002A3E0600B11
:104BB4007908EEFAEFFB1208EC8071793E80F3E09D
:104BC400F8A3E0F5838882A3A3A3A3A3A3E4F0A39B
:104BD400125A9EF0A3F0906060E0C0E0EE246912E7
:104BE400564BD0E0F09003CBE0F812565228F0EE8A
:104BF400247AF516EF3400F517024D1C900559E0A0
:104C04006401702B120B321256527006906060745D
:104C140080F0EEFAEFFB120A1EE96401600E12093D
:104C24000A120A18E9640160031209A6025153EE3C
:104C340024831256556004780480027800E50CC37E
:104C440098F912061C8A0A8B0BEA450B60B6EE240F
:104C54008312565570048A088B0978008015E5D9AB
:104C6400C0E08810E5082510F582E50912564ED0FB
:104C7400E0F008E8C3950C40E5EE24831256556035
:104C84003774FC250CF50C780812157FAC0CA90DB3
:104C9400EEFAEFFB120994740212132BE9701974E3
:104CA40003650D7003024D56E50A24FBFAE50B3447
:104CB400FFFB120D4E024D567403650D7003024D39
:104CC4005B850C10751100781012157FAC08AD09C6
:104CD400AA0AAB0B120958740212132BEE246912A0
:104CE400565564807004747F8001E0F508780812DA
:104CF4001583E50DF5087808121583A90CAC0AADE7
:104D04000B9003ECE0FA7B00120622740212132BC0
:104D1400120B3E12565214F0E07003024C10750848
:104D24005C750905750A00750B00E5D914F50CE5E9
:104D3400D95403F50D601B7403650D7003024C5EBA
:104D4400E50C7003024C00EE246812565560030211
:104D54004C00793D024BB6850882850983E0FAA3AD
:104D6400858208858309A3A882A983603814700307
:104D7400024EAE147003025064147003024EEF240A
:104D8400FD7003024F92146087147003024FB9241C
:104D9400FE7003024F9B147003024FB4147003029D
:104DA400500C025011850882850983E0C0E0EE248E
:104DB4007712564BD0E0F0880889097902AC08AD27
:104DC40009EE24781250817902AC08AD09AA16AB19
:104DD400171209168A088B097902AC08AD09EE246A
:104DE4007C1250A6247E125081EE2477125655C3AD
:104DF40033F0EE247812564B125135EE24781256C5
:104E04009C12512F85168285178312569FEE247E9D
:104E1400125655F50AA3E0F50B7404780A1213022E
:104E2400EE247E12564BE50AF0A3E50BF07902ACB2
:104E340008AD09EE2475125092247512564BC082A7
:104E4400C0838514828515831256BCD083D0821208
:104E5400511F40057928024BB6EE247C1256552486
:104E640001F508A3E0125636E4F50AF50B12512FAA
:104E740088108911E4F512F51378087910121036A8
:104E8400EE247E125655F510A3E0F511781079083A
:104E9400120FF74005793B024BB6EE2474125A7C8C
:104EA400125A9EE4F0A3F0024D147402C0E0790596
:104EB400AC08AD097AF97B04120916EAFCEBFDD0C3
:104EC400E0F9EE2481125092248112564BC082C024
:104ED400838514828515831256BCD083D0821251E7
:104EE4001F4003024E58EE248080B2EE24E2125694
:104EF4005570147A001250B1C0E01250C9D0E0F0DD
:104F04000AEAC3940840EEEE24E3125655A2E0EEFA
:104F1400401424DE12564B741AF0790DEEFAEFFBAE
:104F24001208B6024D141250F024E112567A790890
:104F3400AC08AD09EE249C1250A624A41250A0ACD7
:104F440008AD09EE24941250A0EE2494FAEF340034
:104F5400FB1209227904AC08AD09EE24881250979B
:104F64007904EE2488FAEF3400FB120922EE248C33
:104F7400FAEF3400FB120934EE2484FAEF3400FB18
:104F840012093A9003C0E04480F07904808EEE2444
:104F9400DF125A7C024EAAEE1250F024D312566C41
:104FA400EE24DD125A8A24D412566C790B024F2057
:104FB400EE24E080DC7A001250B1C0E01250C9D077
:104FC400E0F00AEAC3940840EE7A008A82A8827468
:104FD400D228F582740312564EC082C0838508829B
:104FE400850983E0D083D082FBE05BC0E01250C926
:104FF400D0E01250E8A38582088583090AEAC394A5
:105004000840C87909024F20125A90700DEE24F618
:1050140012564BEAF07907024F20850882850983EE
:10502400E0C0E0EE24EE12564BD0E0F08808890987
:105034007402C0E0F9AC08AD09EE24EF125097EA0F
:10504400FCEBFDD0E0F9EE24F112509224EB125A5D
:105054008A24ED1256556003024D14790C024F2038
:10506400EE24F5F8EF12567FE088828983F0EE246F
:10507400F412567A88828983E0F9024BB61250857D
:1050840022FAEF3400FB1209168A088B0922125007
:1050940097EE22FAEF3400FB12091622125085799A
:1050A40008221250857902AC08AD09EE228A82A842
:1050B4008274D228F582740312565C22E82508F81B
:1050C400E93400F922EE28F8EF3400F9E824E3F596
:1050D40082E912567522850A82850B83E41250E810
:1050E400E0640122F0850882850983222462125635
:1050F40072E4125AADE4F0EE221256592401F0A3E0
:10510400E03400F02212565C250AF0A3E03400F0EB
:10511400221256C085148285158322E0C398F8A311
:10512400E099F9C3E894FFE9947F228516828517F4
:10513400831256C0E8C333F8E933F9228A828B8399
:105144001256C0850E82850F83E8F0A3E9F0227F12
:105154001002143E53BFEF02013574E812136C9031
:1051640003ECE0F81256892420F50EEF3400F50F15
:10517400EE241CF50CEF3400F50DEE241DF510EFB4
:105184003400F5119061D0E0600B851082851183A5
:10519400E4F0A38030EE246A1256557029EE24748C
:1051A4001256557021EE24801256557019850C82C2
:1051B400850D83E06401700E850E82850F8312567F
:1051C400D1E8F0A3E9F0EE24071256338E828F83E0
:1051D400A3A3A3A3A31256D11256B0240108E91223
:1051E400567F12569FEEFAEFFB120A24E96401601F
:1051F40008900500E06401701F851082851183E426
:10520400F0A3F08E828F83A3A3A3A3A3E02401F8C9
:10521400A3E012567F12569FEE2474125A93600331
:105224000253C5EE247512563B12159685088285E5
:1052340009831256CB8E828F83A3A3A3A3A31257F1
:10524400031217BD740212132BE970030253C585B0
:105254000A82850B831257092477FCEF3400FDEE94
:10526400FAEFFB1208F8125648125144850C828555
:105274000D83E4F0851082851183F0A3F0EE240FF2
:1052840012567A8508828509831256C6240D125651
:105294005528F8A3E039F9EE240B12569C8E828F20
:1052A40083A3A3A3A3A31256CB850A82850B8312DF
:1052B40057031217FA8A088B09EE242E1256FDE4BE
:1052C400F50AF50B8A0C8B0DF50EF50F7808790CA1
:1052D400121036EE24781256627808790C12115E98
:1052E40085080C85090D850A0E850B0FEE247EF5C5
:1052F40016EF3400F517851682F5831256C6247A04
:10530400F512EF3400F513851282F5831256CBEEB5
:105314002430F50AEF3400F50BEE2432125633EA4A
:105324006C7002EB6D7024850882850983E06870D7
:1053340003A3E0697015EE247C1256FD850A82856C
:105344000B83E06A7003A3E06B60318814891574E1
:105354000478141212F3781412157F125648121599
:1053640096EDC313FDEC13FC8E828F83A3A3A3A33A
:10537400E0FA7B00120670740412132BEE247712E9
:105384005655C0E0EE242B12564BD0E0F085128225
:105394008513831256C6242E12569CEE247C125674
:1053A400B9850A82850B8312569F851682851783D9
:1053B400125709FAEFFB1208FEEE247412566C80A1
:1053C4000BEE242E125662E4F50EF50F851082853D
:1053D4001183E0F514A3E0F515EE2412125633EE12
:1053E400241FF512EF3400F513EE241812563B78FF
:1053F4000C120FE27011851282851383E0F8E51414
:10540400687002E5156023780812157FEE241012E7
:10541400564B121596781412157FAA0CAB0DAC0ED0
:10542400AD0F121EB4740612132B850A82850B83EA
:10543400780C1211F4851082851183E0851282851F
:105444001383F0AC08AD091256DB906062E060078C
:105454007CAC7D8E1256DB8E828F831256BC888282
:105464008983A3A3E82408FCE93400FD740612121E
:10547400288510828511831257038E828F83E0243E
:1054840002F8A3E03400F9E8FCE9FD8A108B11E48A
:10549400F512F513908F0C78101211717810790CA5
:1054A4001210368C828D837810121184908EE478D9
:1054B400101211E58C828D8378101211D29004FEA3
:1054C400E0640160030255B37901120AC68E828F2B
:1054D40083E0F50AA3E0F50B908F2C121203E50A82
:1054E400240EF582E50B12564E12120FE50A241211
:1054F400F8E50B3400F9E8FCE9FD850882850983A9
:10550400780C1211E5850C08850D09E50875F0E2A3
:10551400A4C508A8F075F004A428F875F0E2E5091C
:10552400A428F5098C828D83E02508F0A3E03509D1
:10553400F0EE2416125655F508A3E0F50974047824
:10554400081212F3E5082401F8E50934001256F0B4
:10555400906062E08C828D83700302560BE024100D
:10556400F0A3E03401F0EE240F1256556016EE2439
:105574002B125655F875F071A4C8AAF075F002A460
:105584002A1256F0E50A2414F582E50B12564E74DD
:1055940010F08E828F83E024161256A5747AF0A33D
:1055A4007408F0EEFAEFFB12171F790002515390C2
:1055B4008EF0780C12101750030254D1EA4B60039A
:1055C4000254D1780C12157BEEFAEFFB1209047425
:1055D4000412132BE9640160030254D1EE240F1268
:1055E400565560128E828F83A3A3A3A3A3E0640500
:1055F4007002A3E0600479088002793EEEFAEFFBC2
:105604001208EC790180A5E02410F8A3E034FFF936
:105614007A717B0212128A88088909EE242E1256A6
:10562400B9C3E50898E50999500302556A80C7F59E
:1056340008EF3400F50922F50AEF3400F50B850A6A
:1056440082F58322EE247CF582EF12567522EE2435
:105654006712565922F582EF3400F583E022125680
:1056640059F50CA3E0F50D22125672E4F022F582EE
:10567400EF3400F58322125A80F0223400F98508B1
:10568400828509832275F004A4C8AAF02AF974EE6D
:1056940028FE740339FFEE22125672E8F0A3E9F0F3
:1056A40022F8A3E03400F98882898322E028F8A351
:1056B400E039F9E8221256721256C022E0F8A3E04B
:1056C400F9221256C0EE22E0FCA3E0FD221256C0DD
:1056D400851082851183221256E2121DEE228E82DB
:1056E4008F83E02402FAA3E03400FB22F98C828D3C
:1056F40083E028F0A3E039F022F582EF125675E03A
:10570400FAA3E0FB221256C0850882850983E8F0DB
:10571400A3E9F0EE2274E812136CEAFEEBFFEE2428
:10572400DFF510EF3400F511EE24E0F50EEF340050
:10573400F50FEE2462F516EF3400F517EE2483F529
:105744000CEF3400F50DEE241DF512EF3400F513C3
:10575400EE2404F50AEF3400F50BEE246A125633F6
:1057640080399003C8E070030259B6EEFAEFFB12D9
:1057740008BCEE24A4F514EF3400F51578141215C2
:105784007FEE249CFCEF3400FD850A82850B83E0C8
:10579400FA7B0012067C740212132BEE246F12564D
:1057A40055606AEE246B12565524FE602F24FE6069
:1057B400601460741470030258DE147003025A6A91
:1057C40024FE70030259CD24FE700302594A14705A
:1057D400030259F414700302598D80BF8508828531
:1057E4000983E0640170179003C7E070030259B69F
:1057F4007916EEFAEFFB1208EC7901025153EEFA36
:10580400EFFB1208AAE9850882850983F0790080F4
:10581400EA850882850983E064017003025766EE15
:10582400FAEFFB12088080DD850882850983E06435
:105834000170479003C8E06027850C82850D83744E
:1058440001F0908F18121203EE24D512564B121247
:105854000F908F18121203EE24D912564B12120F06
:10586400851082851183E0640160030259B67906CC
:10587400EEFAEFFB1208C202579FEE24D3125A939A
:10588400701CEEFAEFFB120886E96401600302580B
:1058940011851082851183E4125A99025810EE245E
:1058A400D41256557003025811EE24B3F514EF3494
:1058B40000F515781412157FEE248CFCEF3400FDEE
:1058C400EE24C3FAEF3400FB120946740212132BC0
:1058D400EE24D3125A7CF002579F850882850983EF
:1058E400E0640170579003C8E070030259B6125A7D
:1058F400CBEEFAEFFB1208BC851682851783740180
:10590400125AA6850A82850B83E0FA7B00EE24DD19
:10591400125A937007790012068880077C01790077
:10592400120682EE24DD12566CEE24E112564BE48C
:10593400125A9EF0851082851183809AEEFAEFFB4D
:1059440012088C025809850882850983E064017075
:1059540015850E82850F83E064017056EEFAEFFB25
:105964001208BC02579FEEFAEFFB120892E9640199
:105974006003025811850E82850F83E4F0850C8242
:10598400850D83125A990258DA850882850983E0C5
:105994006401702B9003C8E06012850C82850D832E
:1059A400E4F085168285178304125AA69003C7E093
:1059B40070AA125AE0600302581179220257F6EED7
:1059C400FAEFFB120898025809850882850983E0DA
:1059D400640170129003C8E060D8EE24E212567A93
:1059E400125ACB025960EEFAEFFB12089E025809D4
:1059F400850882850983E06401705C125A90702DD9
:105A0400EE24EC125A936003025960EE24F112560C
:105A14004B121596EE24EF12564B121596125AB9E4
:105A24007900120676740412132B025960125AE09C
:105A34006003025811EE24F112564B121596EE240F
:105A4400EF12564B121596125AB979221206767431
:105A54000412132B0259BEEE24ED125A8AFAEFFBFC
:105A64001208A4025809EEFAEFFB1208B0E9640127
:105A74006003025811025960125A8022F582EF34F1
:105A840000F583740122125A80F0EE22EE24EB1208
:105A940056596401221250E80422F0850E82850FC3
:105AA4008322125AAD7401F022F0EE2468F582EFDD
:105AB4003400F58322EE24EE125659FC850A8285C1
:105AC4000B83E0FA7B0022EE24201256721256C099
:105AD400851282851383E8F0A3E9F022EE2472F89C
:105AE400EF3400F988828983E024FFF0A3E034FFD7
:105AF400F0888289831256C0E84922C082C0838A12
:105B0400828B83A3A3A3A3A3A3A31256BCEA240B4F
:105B1400F582EB125700C3EA98EB995014E8C39A44
:105B2400F8E99BF9C3E894AAE99410501479018028
:105B340012EAC398F8EB99F9C3E894ABE9941050CE
