:020000040000FA
:0600000002010A0218FED5
:03002B00021D466D
:03003300021D2883
:030053000219741B
:03006B00021D0271
:100083000217EFE5C754F84401F5C77901220000D0
:100093000080FB120086B900030200F4E4792178A2
:1000A30008B800028004F709D8FCE479297802B87B
:1000B30000028004F709D8FCE490028178A879074C
:1000C3008002F0A3D8FCD9FA900928AA82AB8390C6
:1000D300013A780379028015E493A3AC82AD838A55
:1000E300828B83F0A3AA82AB838C828D83D8E9D9D8
:1000F300E775828F7583D9740212011C758291751D
:100103008300740012011C75D00075813F7518813E
:10011300751902759F00020096C09FF59FE473D086
:100123009F22D083D082C09FE493C0E0740193C028
:10013300E0740293F59F22FF0000B400002800281A
:1001430000283075A000A000A000A000000800084F
:10015300E001F0001000100010001000100010006B
:1001630050005000500010001000D00700000000A5
:1001730000000F00010005003075070010000100AA
:1001830081FF0000FFFF02020208025000A00000EE
:1001930000E8030279910100006891027391010064
:1001A300007709026D91010000AE02027391010014
:1001B300007809026F91010000C4020273910100EB
:1001C300007909027191010000C6020273910100D6
:1001D300007A09027D91080000C7020273910100B1
:1001E300007B090275910100007C09FF86098609DD
:1001F3008609860986098609860986098609860984
:10020300860986098609FFFF01053F10FF000130BB
:10021300750302010600000000000000000000005A
:1002230000000000000000000000000000000000CB
:1002330000FFFF0600800CE8031201254C7E00122C
:100243000125637E00120125927E00120125CB7EDB
:1002530000120125F37E00120125217F00120125E2
:10026300387F001201254F7F00120125657F0012A0
:1002730001258C7F001201259F7F00120125B57F88
:1002830000120125DD7F001201258CDC01120125FE
:100293008BDD01120125C0DD01120125E1DD011213
:1002A3000125F1DD0112012512DE011201251EDFF8
:1002B30001120125EBDF011201255EE00112012588
:1002C300E4E00112012527E1011201255EE101129B
:1002D3000125E4E101120125B6E20112012514E32F
:1002E300011201252CE301120125A6E301120125C8
:1002F300A9E301120125ACE30112012553E4011224
:1003030001256BE4011201259BE401120125BBE4E5
:1003130001120125A9E5011201255FE6011201255C
:10032300F3A5021201252CA60212012575A60212BD
:100333000125C0A602120125FEA6021201253BA734
:100343000212012569A70212012510A80212012534
:100353001AA80212012527A8021201255AA802127F
:1003630001251CA90212012528A90212012540A971
:10037300021201254AA902120125A5D5021201255F
:10038300B3D502120125CBD502120125E3D5021202
:1003930001258291011201252092011201259892D3
:1003A30001120125AD9301120125E79301120125E5
:1003B300909401120125659501120125C996011238
:1003C3000125209701120125A797011201258E9877
:1003D30001120125DB9801120125699901120125FA
:1003E3008D9901120125629B01120125A39B011224
:1003F3000125C59B01120125969C01120125A1BF70
:100403000212012573C00212012523C10212012524
:1004130038C2021201255EC202120125C0D70212A0
:100423000125CBAD02120125DDAD0212012503AE7C
:10043300021201252BAF0212012535AF021201254D
:100443008EB002120125AACF02120125E6D00212B4
:100453000125C46A00120125276B00120125376BA1
:10046300001201255A6B00120125A56B001201250C
:100473004A6C00120125406D001201250A6E00121C
:100483000125826F00120125C46F001201256270DD
:1004930000120125887000120125767200120125D1
:1004A3007B72001201255C7400120125B0740012E6
:1004B30001251275001201253A7500120125DE751A
:1004C30000120125A07600120125D1760012012524
:1004D300D476001201251C77001201255E770012E5
:1004E3000125C57700120125CBC502120125DEC502
:1004F30002120125F7C50212012542C60212012587
:100503001DC702120125ACC702120125F7C702124B
:100513000125681D00120125A11D00120125ED1DF5
:1005230000120125781E00120125B11E00120125BB
:10053300C52000120125A122001201258C240012DE
:100543000125C325001201252328001201250F29A7
:1005530000120125552A00120125622B00120125E4
:100563007F2B00120125B72B00120125D92B001276
:100573000125733000120125143100120125653164
:10058300001201258C3100120125DA3100120125F8
:100593003A32001201258EB10212012598B10212DE
:1005A300012563B2021201257EB202120125C2B2F5
:1005B30002120125FAB20212012523B30212012508
:1005C3009CB302120125B1B302120125D5B3021265
:1005D3000125E9B3021201251AB4021201258BB4D5
:1005E30002120125D4B402120125FEB40212012520
:1005F30023B502120125DFA902120125A9AA0212BD
:1006030001258CAB0212012502AC0212012544AC78
:100613000212012571AD02120125A5C501120125A2
:10062300CEC501120125E7C5011201252CC7011210
:1006330001250AC80112012529C801120125B6C8DE
:1006430001120125F9C80112012546CA011201252B
:10065300E5CA0112012564CD01120125FBCD01126A
:100663000125CFCE01120125B1CF011201251DD1E4
:1006730001120125B0D101120125BCD202120125BC
:1006830025D30212012579D302120125A0D3021228
:1006930001255C9D02120125C99D02120125149EAC
:1006A30002120125099F0212012505A0021201254C
:1006B300EFA00212012500800212012542800212DE
:1006C30001251C8102120125F58102120125F08208
:1006D30002120125CF83021201253B840212012558
:1006E3000285021201256D8502120125D4850212AD
:1006F3000125FF8502120125708602120125038759
:10070300021201256C87021201258187021201253D
:10071300C98702120125E2870212012547880212C6
:1007230001254A8802120125D1C202120125F9C20C
:100733000212012537C302120125F5C30212012556
:1007430060C4021201257CC402120125A4C4021252
:100753000125D4C402120125E3C4021201255DC59B
:100763000212012583C502120125DBAB011201250B
:1007730078AD011201255EAF0112012528B00112E7
:1007830001256FB00112012581B001120125C1B00D
:1007930001120125F0B0011201253CB1011201251E
:1007A30074B101120125A2B101120125F3B10112A5
:1007B300012582B20112012570B5011201254AB744
:1007C3000112012594B701120125E2B70112012597
:1007D30030B8011201256BF00112012588F00112D6
:1007E300012522F60112012524F7011201259EF8A5
:1007F300011201254CF901120125C2320012012513
:100803000B33001201253833001201256B3300121C
:100813000125783300120125843300120125963314
:10082300001201256B3400120125C9340012012581
:10083300FE34001201259A3600120125E736001214
:1008430001250B37001201257837001201251D38C9
:1008530000120125D938001201255839001201254B
:100863001C3A001201252B3A00120125AC3A001262
:1008730001254B3B001201257D3B00120125183C4D
:1008830000120125763C00120125B03C001201251F
:10089300313D00120125FA3D00120125A33E00124D
:1008A30001252A3F00120125823F00120125E33F63
:1008B300001201250C4000120125C240001201253F
:1008C3000C42001201254F42001201256C42001216
:1008D30001258B4200120125D64200120125FB425D
:1008E3000012012524430012012593430012012520
:1008F300D54300120125D944001201257345001286
:1009030001253F4600120125584600120125CAE67B
:10091300011201251DE70112012529E70112012515
:10092300FEE70112012525E80112012560E8011205
:100933000125CCE80112012500E90112012539E95D
:100943000112012551E901120125AAE9011201252C
:10095300C3E9011201250CEA011201251FEA011264
:10096300012539EA011201254FEA011201256BEB3A
:10097300011201257CEC01120125C9ED01120125AB
:10098300AEEE01120125E59001120125D4B8011242
:10099300012508B90112012573BC01120125BDBD52
:1009A3000112012587BE0112012511C00112012583
:1009B300ECC00112012526C10112012547C1011214
:1009C300012589C101120125D3C1011201257FC26D
:1009D3000112012553C301120125A7C301120125E9
:1009E30009C4011201255CC4011201258BC4011243
:1009F3000125CAC4011201258A4600120125E44ECD
:100A030000120125EA4E00120125A554001201250A
:100A13008B580012012553BC02120125C9BC0212D6
:100A23000125DFBC021201251CBD0212012554BDA4
:100A330002120125D1BD021201250CBE02120125AD
:100A430087BE02120125C3BE02120125CCBE0212CB
:100A53000125D8BE02120125F2BE0212012517BFDD
:100A6300021201252DBF0212012571BF02120125B9
:100A73009A9802120125AD9802120125C798021215
:100A83000125F0980212012533990212012572996A
:100A930002120125B09902120125159A02120125AD
:100AA3002A9A02120125359A02120125429A02124C
:100AB3000125599A02120125679A02120125729A99
:100AC300021201257E9A02120125919A0212012532
:100AD3009C9A02120125BF9A02120125689B0212F9
:100AE3000125789B02120125929B02120125AF9BDF
:100AF30002120125CB9B02120125F09B0212012554
:100B0300FA9B021201250E9C021201252D9C021252
:100B130001258E9C02120125949C021201259A9CA8
:100B230002120125A09C02120125AC9C0212012590
:100B3300DF9C02120125D09E01120125529F011252
:100B43000125FB9F0112012543A10112012551A398
:100B53000112012537A4011201256CA401120125FC
:100B63008EA40112012530A50112012500A701124F
:100B7300012529A7011201255BA70112012568A7F9
:100B830001120125B3A701120125D7A701120125DF
:100B930028AA0112012532AB011201258EAB0112E5
:100BA300012527D20112012538D3011201251CD4B6
:100BB300011201253ED4011201254AD40112012557
:100BC300EED5011201251BD60112012531D70112E1
:100BD300012581D701120125D0D801120125A5D9FC
:100BE3000112012501DA011201256CDA0112012536
:100BF3000DDB0112012579DB01120125F4DB011262
:100C0300012559CC021201257ECC02120125F4CC18
:100C1300021201258F780012012598780012012510
:100C2300A178001201257979001201252A7B00128F
:100C330001255A7B00120125857B00120125B07B1B
:100C430000120125E47B00120125237C00120125FB
:100C53004E7C00120125B67C00120125E17C0012B6
:100C63000125307D001201255B7D00120125897D60
:100C730000120125AC7D0012012549D8021201257D
:100C830075D802120125A2D802120125ACD802128E
:100C93000125BCD8021201256EF90112012578F94C
:100CA30001120125B9F90112012502FA01120125E8
:100CB3003CFA0112012592FA01120125B3FA01123D
:100CC3000125BCFA0112012510FB0112012539FB94
:100CD3000112012543FB01120125B1FB011201257C
:100CE30041FC011201259CFC01120125CAFC0112E1
:100CF300012552FD0112012591FD01120125C6FDB9
:100D030001120125D8FD01120125F7FD011201256C
:100D130000FE01120125C2FE01120125D1D30212E8
:100D2300012568CA021201259ECA02120125D2CAF0
:100D3300021201251FCC02120125C6D80212012579
:100D4300DCD802120125E6D80212012530D902129D
:100D53000125B1A102120125C4A10212012588A215
:100D630002120125C7A202120125E4A202120125E3
:100D73001DA3021201256AA3021201259CA30212DC
:100D83000125D3A302120125E6A502120125C8D429
:100D930002120125EBD4021201251AD502120125F4
:100DA3005CD502120125E2D90212012506DA0212EC
:100DB3000125E45800120125835A001201252E5BF8
:100DC30000120125AE5B001201253A5C00120125D9
:100DD3001560001201258C6000120125A361001229
:100DE3000125DD61001201251E62001201256563E4
:100DF30000120125BB6300120125046400120125C2
:100E0300736400120125DF640012012510650012CE
:100E1300012528650012012541660012012551664E
:100E2300001201250768001201251E680012012522
:100E3300506800120125F26900120125866A00122A
:100E430001257CD6021201258DD60212012532DA44
:100E53000212012571DA02120125EF7F001201252A
:100E63002DD7021201253DD70212012555D70212B3
:100E73000125BDD702120125F0FE0112012575FFE0
:100E830001120125D9FF0112012542D102120125C8
:100E93006BD102120125D6D10212012527D20212EB
:100EA300012582D202120125FCB80212012521B9C3
:100EB300021201253EB9021201255BB90212012576
:100EC30080B902120125A1B902120125CBB9021280
:100ED300012588BA0212012506BB021201252DBB8A
:100EE3000212012537BB021201254BB5021201255F
:100EF30062B502120125DCB502120125C0B6021249
:100F0300012597B80212012512CE0212012564CEE3
:100F130002120125D7CE0212012544CF0212012568
:100F230021C8021201254BC8021201251AC9021257
:100F33000125F6C9021201256E88021201253A899C
:100F4300021201257B8902120125B58902120125AE
:100F5300138A02120125678A02120125C58A021229
:100F630001255B8B02120125638C02120125ED8D95
:100F7300021201258B8E02120125F28E0212012527
:100F8300058F02120125F98F0212012542900212E8
:100F93000125C99002120125E690021201256691EE
:100FA30002120125E29202120125B19302120125D8
:100FB3001E97021201250498021201257BDA021200
:100FC3000125A8DA02E066701008A3E066700A083B
:100FD300A3E066700408A3E06622C3E7960809E766
:100FE300960809E7960809E79622C3E09608A3E066
:100FF3009608A3E09608A3E09622C008C3E096F5FE
:101003000808A3E096420808A3E096420808A3E074
:101013009645087001D3D00822080808EAC0E0EB1F
:10102300C0E086F0E7A4FA180986F0E7A42AFA18C4
:101033000986F0E7A42AFA180986F0E7A42AFA1920
:1010430086F0E7A4FBE5F02AFA190886F0E7A42B5B
:10105300FBE5F03AFA190886F0E7A42BFBE5F03A32
:10106300FA18180986F0E7A4C5F02BFBE43AFA193D
:1010730008E7C5F0C6A426F6E5F03BFBE43AFA1808
:1010830086F0E7A4F6E5F00826F6E43B08F6E43A32
:1010930008F6D0E0FBD0E0FA22E4CFC0E0E4CEC013
:1010A300E0E4CDC0E0E4CCC0E075F020C3E633F665
:1010B30008E633F608E633F608E633F6181818ECB4
:1010C30033FCED33FDEE33FEEF33FFC3EC9709ED55
:1010D3009709EE9709EF97191919400FFFEC97FC41
:1010E30009ED97FD09EE97FE191906D5F0BEECF749
:1010F30009EDF709EEF709EFF7191919D0E0FCD05C
:10110300E0FDD0E0FED0E0FF226016080808C6C369
:1011130013C618C613C618C613C618C613C6D5E019
:10112300EA227009080808226016181818C6C33383
:10113300C608C633C608C633C608C633C6D5E0EAF2
:1011430022E627F60809E637F60809E637F608091E
:10115300E637F622E026F608A3E036F608A3E036E3
:10116300F608A3E036F622E026F008A3E036F008FE
:10117300A3E036F008A3E036F022C3E697F60809A9
:10118300E697F60809E697F60809E697F622C3E01C
:1011930096F008A3E096F008A3E096F008A3E09683
:1011A300F022E056F608A3E056F608A3E056F60848
:1011B300A3E056F622E056F008A3E056F008A3E0B9
:1011C30056F008A3E056F022E0F608A3E0F608A3E1
:1011D300E0F608A3E0F622E6F008A3E6F008A3E6AB
:1011E300F008A3E6F022E0FAA3E0FBA3E0FCA3E00F
:1011F300FD22EAF0A3EBF0A3ECF0A3EDF022CAC0CA
:10120300E0E6F0A308DAFAD0E0FA22CAC0E0E0A3ED
:10121300C582CCC582C583CDC583F0A3C582CCC5A9
:1012230082C583CDC583DAE6D0E0CA22C3E498F849
:10123300E499F91212708026C3E49AFAE49BFBE95D
:1012430020E7E9121270E498F8E499F922C3E498CC
:10125300F8E499F9121270E498F8E499F9C3E49A5E
:10126300FAE49BFB22EB20E7CFE920E7E0B900108B
:10127300BB0008E88AF084F8AAF022E4FBC8FA224B
:10128300EB70227B10C833C8C933C9335007C39AE4
:10129300C3DBF280069A50012ADBEAC833F4C8C9DB
:1012A30033F4C9FA2275F008E4C833C8C933C93323
:1012B300C99AC99B5004C92AC93BD5F0ECFBC83372
:1012C300F4C8E4C9FA22600D08C6A2E713C618C61B
:1012D30013C6D5E0F322600C08C6C313C618C613A1
:1012E300C6D5E0F422700422600D18C6C333C608C5
:1012F300C633C6D5E0F41822251810AF08F51840F8
:101303000215198008F51840021519D2AF22C0D072
:10131300251810AF08F518500205198008F5185064
:10132300020519D2AFD0D0222518F58210AF08F5E7
:1013330018400215198008F51840021519D2AF8517
:101343001983222518F582E43519F58322E47325E0
:1013530018C582C0E0E51934FFC583C0E0E518C3B2
:10136300958224F810AF0885831985821880088533
:101373008319858218D2AFCEF0A3E520F0A37808B5
:10138300E608F0A3DEFAEFF0A3E58124FAF8E60815
:10139300F0A3E608F0A3E608F0A30808E608F0A324
:1013A300E608F0A315811581D0E0FED0E0F81581A1
:1013B30015811581E8C0E0EEC0E0222518C582C082
:1013C300E0E51934FFC583C0E0E518C3958224F92D
:1013D30010AF088583198582188008858319858253
:1013E30018D2AFCEF0A3E520F0A37808E608F0A367
:1013F300DEFAEFF0A3E58124FBF8E608F0A3E608A4
:10140300F0A30808E608F0A3E608F0A31581158108
:10141300D0E0FED0E0F815811581E8C0E0EEC0E031
:1014230022851983851882E0A3FEE0A3F5207808BE
:10143300E0A3F608DFFAE0A3FFE0A3C0E0E0A3C067
:10144300E0E0A3C0E0E0A3C0E0E0A3C0E010AF0889
:101453008582188583198008858218858319D2AF00
:10146300D083D082020122851983851882E0A3FEEE
:10147300E0A3F5207808E0A3F608DFFAE0A3FFE095
:10148300A3C0E0E0A3C0E0E0A3C0E0E0A3C0E0109D
:10149300AF0885821885831980088582188583198A
:1014A300D2AFD083D08222C0D02518C582C0E0E558
:1014B3001934FFC583C0E0E518C3958224F310AF48
:1014C300088583198582188008858319858218D237
:1014D300AFC8F0A3E9F0A3EAF0A3EBF0A37908E720
:1014E30009F0A3D8FAECF0A3EDF0A3EEF0A3EFF02C
:1014F300A3D0E0F0A3D0E0F0A3D0E0F0A3E520F088
:10150300A3E5F0F0A322851983851882E0C0E0A348
:10151300E0F9A3E0FAA3E0FBA37808E0F608A3DF71
:10152300FAE0FCA3E0FDA3E0FEA3E0FFA3E0C0E03C
:10153300A3E0C0E0A3E0F5D0A3E0F520A3E0A3F58A
:10154300F010AF0885831985821880088583198573
:101553008218D2AFD082D083D0E0F8D0E0327404C6
:101563008006740280027401C0E0F40412132BD0CD
:10157300E0121201227404800474028000CCC0E0E3
:10158300EDC0E0E518C39CCCAD1950011D10AF06AA
:101593008C188D1980068C188D19D2AF12120ED0AB
:1015A300E0FDD0E0FC22D083D082ECC0E0EDC0E0CF
:1015B300E493A3FCE493A3FDED4C600D1215F5EC4D
:1015C30024FFFCED34FFFD80EFE493A3FCE493A33D
:1015D300FDED4C600D121634EC24FFFCED34FFFDE1
:1015E30080EFD0E0FDD0E0FCE493A3C0E0E493C03F
:1015F300E022C0E0C3E49396087401939618400F69
:10160300E49366700808740193661870007019A358
:10161300A3C3E49396087401939618A3A3400DD033
:10162300E0D0E0D0E00215E5A3A3A3A3A3A3D0E0F9
:1016330022C0E0C0F088F0E4936670080874019358
:1016430066187000A8F0A3A3700BD0F0D0E0D0E030
:0C165300D0E00215E5A3A3D0F0D0E02207
:1016600074F51213BEEAFEEBFFEE2434F8EF3400FB
:10167000F988088909EE2435121798F8EE243712F4
:101680001798F50AEC850AF0A4FCAAF0850AF0ED9B
:10169000A42AFDE82CF8E43DF97A257B00121270AB
:1016A000EA850882850983F05407F87401B80002BE
:1016B0008004C333D8FCC0E0E0131313541FF8EECA
:1016C00028F8EF3400F9E8245DF582E93400F58369
:1016D000D0E0F8E0586008850882850983801DEE17
:1016E0002436121798F5F0EA84A8F0EE28F8EF34C3
:1016F00000F9E82438F582E93400F583E0F97F0445
:1017000002146A74F51213BEEAFEEBFFEE243412E3
:101710001798C0E0EE2435F582EF3400F583D0E071
:10172000F08E828F83A3A3A3A3A3E0FAA3E0FB8E92
:10173000828F83A3A3A3A3A3A3A3E0FCA3E0FDEC58
:10174000C39AF50AED9BF50BEE2480F508EF340003
:10175000F509850882F583E06401702BEE2481F59C
:1017600082EF3400F58312157C1217A17402121354
:1017700011E960137CF97D04EEFAEFFB1208B485E1
:101780000882850983E4F0AC0AAD0BEEFAEFFB1298
:101790001660121CF40216FEF582EF3400F583E0A9
:1017A00022C082C083851882851983E0F8A3E0F9FE
:1017B000C3EA9CEB9D5012C3EC98ED994019C3EA23
:1017C00098EB99501279018010C3EA98EB9940F593
:1017D000C3EC98ED9950EE7900D083D08222EAC311
:1017E0009CFAEB9DFB2200008521878522C622C042
:1017F000E074EF1214AA759B00906182E0A2E640AB
:10180000030218B0E591A2E640030218B07591BF3B
:101810009003BEE064057008120A46120A52800363
:10182000120A4C752100120AB8E99003BFF0790042
:10183000120AAC12081E7A017B009003BDE0F91277
:101840000CF2907803E0644260030218F990055BA3
:10185000E014F060030218F9C2AF12185D00782A94
:10186000D0E0F618D0E0F6E59F5407F970059091A6
:1018700004800390910878081211CBE9C4C0E07885
:1018800029E65508F50808E65509F509740B7808A6
:101890001212D9D0E02508F8906270E0A2E740F873
:1018A000E8C333906272F0906270E0D2E0F0804959
:1018B000E0A2E55024E591A2E5501E7591DF90036A
:1018C000BEE0640D70139003E0E004F06428700241
:1018D000E4F07A00E0F9120B2A906181E0A2E35073
:1018E00009E5E9A2E3500375E9F7A3E0A2E750098F
:1018F000E591A2E7500375917F7F04021509C0E0CE
:10190000C0D0C082C083906183E0A2E05009E5BFEF
:10191000A2E0500375BFFEE0A2E15009E5BFA2E1DD
:10192000500375BFFDE0A2E25009E5BFA2E25003FB
:1019300075BFFBE0A2E35009E5BFA2E3500375BF0A
:10194000F7E0A2E45009E5BFA2E4500375BFEFE061
:10195000A2E55009E5BFA2E5500375BFDFE0A2E6AE
:101960005009E5BFA2E6500375BFBFD083D082D037
:10197000D0D0E032C0E074F21214AAE5A7A2E4507D
:101980000FE5A1A2E4500953A7EF75A1EF1219C802
:10199000E5A7A2E5500CE5A1A2E5500653A7DF7527
:1019A000A1DFE5A7A2E15009E5A1A2E1500375A1DD
:1019B000FDE5A7A2E2500CE5A1A2E2500653A7FB69
:1019C00075A1FB7F0102150974F81213BE75210180
:1019D0009003BEE0640670077A007B00120A2EA214
:1019E000AFE433FED2AF9003C4E0640170187A20F4
:1019F0007B009003BDE0F9120D767A207B00900306
:101A0000BDE0F9120CF8906182E0D2E6F090055A40
:101A1000E0602185C62280169003C3E0640170084F
:101A2000E5C654F84405F5C653BEFC1217E8740128
:101A3000652160E4EEA2E092AF7F0102146A00002B
:101A40008E238F2485822885832785188285198394
:101A5000E0CEA3E0CF852882852783EBC9EAC8EDD5
:101A6000CBECCA75F010C3E833C8E933C9EA33CA0E
:101A7000EB33CBC3EA9EF526EB9FF525B35004ABC1
:101A800025AA26EC33CCED33CDD5F0DAAE23AF2446
:101A90002274F11213BE8A088B098C0A8D0B740F05
:101AA000121346780C1211CB90915078081211A5A0
:101AB000909150780C1211A57808790C120FDD5016
:101AC000157808790C12117D9091287808120FFD75
:101AD000401579018013780C790812117D909128B6
:101AE000780C120FFD40EB79007F0802146A74ED48
:101AF0001213BE8A088B098C0A8D0B7413121346BD
:101B0000780C1211CB90915078081211A590915039
:101B1000780C1211A5780C7908120FDD40117808A5
:101B2000790C12117DAA08AB09AC0AAD0B802275A5
:101B300010007511007512007513017810790C12E0
:101B4000117D78107908121144AA10AB11AC12ADB6
:101B5000137F0C02146A90915078081211CB8A827C
:101B60008B8378081211B87F0402146A74F512137B
:101B7000BE8C828D8378081211CB8A828B83780881
:101B8000121191121BC0C3E098F0A3E099121BB28E
:101B9000401E90915878081211CB8A828B83780866
:101BA00012116A8E828F83E02420F0A3E0344EF07D
:101BB00080A4F08E828F83C3E09420A3E0944E2211
:101BC000EA2404F8EB3400F9E8FEE9FF8C828D8307
:101BD000A3A3A3A3E0F8A3E0F98E828F832274F578
:101BE0001213BEE9FE900510E0FAA3E0FBEEC3334A
:101BF000F8E433F974AF28F582749039F583E02A5C
:101C0000F508A3E03BF50978081215659091541288
:101C100011E9121A4074021213118A088B098C0AF6
:101C20008D0B7410780812110CAA08AB097F0402FE
:101C3000146A74F11213BE8A0C8B0D8C0E8D0F7406
:101C40000F121346E0FAA3E0FB7411121346E0F5FD
:101C500008A3E0F5097413121346E0FEA3E0FF7831
:101C600008121565EA2401F508EB3400F509E4F5DE
:101C70000AF50B780C790812101C90913478081230
:101C800011CB780C790812101CAA0CAB0DAC0EAD60
:101C90000F121A4074021213118B09EA45096004ED
:101CA0007A0180027A00EC2AFCED3400FDECF8EDBC
:101CB000F97A717B0212127088088909E4F50AF535
:101CC0000B8E828F8378081211DAECF8EDF97A71B5
:101CD0007B021212708A088B09740578081212E8C8
:101CE0008E828F83A3A3A3A3E508F0A3E509F07F69
:101CF0000802146AC082C083E9906000F0D083D0EB
:101D00008222C0E074F21214AAA2AFE433FED2AF72
:101D1000E589A2E15003120EA2758900C2C5EEA2A8
:101D2000E092AF7F01021509C0E074F21214AAA27A
:101D3000AFE433FED2AFE58BA2E05003120EA275E2
:101D40008B00C2E880D8C0E0C0D0E8C0E0E5A8D2EF
:0F1D5000AFC2C7A2E792AFD0E0F8D0D0D0E03258
:101D6000FFFFFFFFFFFFFFFF74F7121352E990021E
:101D7000DCF07C147D037AFF7BFF1205849002DD8A
:101D800074FFF0A3F0A3E4F0A3F0790512051E9010
:101D900002DCE0F91204587A907B0512072E022B20
:101DA000B274F41213528A088B09EB54806030909D
:101DB00002DCE0F9120CDA8A0A8B0BAE0AAF0BEEEA
:101DC0004F60138E828F83E064B0700312052AEE99
:101DD000FAEFFB120CC8AA08E5096480FB80047ABC
:101DE000007B00021E73F0A3122FF0A32274F212E4
:101DF0001352890AE975F017A4FEAFF09002E1E4EE
:101E0000F09002DF121E6D600A120D349002DFE4C2
:101E1000F0A3F0EEFAEFFB120D2E8A088B09EA45CB
:101E200009602FEEFCEFFD7900120CB69002DFE5A1
:101E300008F0A3E509F07B008008121E57E4F0A328
:101E4000F00BEBC3950A40F2E50A9002E1F079004D
:101E5000800279130231F8EB75F017A4F8A9F0901D
:101E600002DFE028FAA3E0398A82F583221227EE06
:101E7000EA4B227F04021424C082C0839002E21243
:101E80001EAB601C88828983A3A3E06A7003A3E071
:101E90006B8882898370E8A3A3A3A31227EA800436
:101EA0007A007B00D083D082020122123205E849F9
:101EB0002274EE12135274FC1212FBEAFEEBFF8541
:101EC0001882851983E4F0A3F0EE2402122B3CEE75
:101ED0002405122FF7EE2404F50EEF122463E024FC
:101EE000FE603924FC604624FE605224FE605E24BD
:101EF000FE7003021FC424FE700302202824FE701B
:101F00000302203724FE700302204624FC700302E3
:101F1000205524FE70030220640220A19002FB746D
:101F200017F0A3E41220B61202420220A185188203
:101F3000851983AC82AD8312053002207185188229
:101F4000851983AC82AD83120536022071850C0899
:101F5000850D097402121346AC82AD838508828513
:101F600009831227EA1204768A0C8B0DAC0CAD0D96
:101F7000EC4D603BE4F50CF50D780C121565750C15
:101F8000FB750D02780C121565750CFC750D027849
:101F90000C121565740812134612157C12322912A0
:101FA0001311E9F50C700B1227E012025A800F751D
:101FB0000C018508828509831220A4122B5C850CF4
:101FC000080220747402121346AC82AD83850C8221
:101FD000850D831225B5603C850C82850D83A3A3F6
:101FE00012157C7510FB75110278101215657510AD
:101FF000FC7511027810121565740812134612153B
:102000007C123229121311E9F509700B1227E01224
:102010000260800F750901850C82850D831220A452
:10202000122B5C850908804C851882851983AC8247
:10203000AD8312053C803A851882851983AC82AD48
:1020400083120542802B851882851983AC82AD836B
:10205000120548801C851882851983AC82AD8312D5
:10206000054E800D851882851983AC82AD831205DB
:1020700054E9F508E50860298E828F83A3E0641493
:10208000601F850E82850F83E09002FB1220AE1246
:1020900032019002FC122B5CE508A31220B612025A
:1020A0003C022A4B12320585188285198322F0855D
:1020B000188285198322F07CFB7D02850A82850BBC
:1020C000831227EE2274EE12135274FC1212FB8A52
:1020D0000A8B0B8C0E8D0FEA2405F508EB3400F506
:1020E000097C157D0079007AFB7B02120CB6E508AD
:1020F0002402F50CE509122FFA85188285198385CB
:1021000082108583117810121565850882850983F0
:10211000A3A3A3A31225AC121565E5082405F510A9
:10212000E5093400F5117810121565850C82850DCE
:102130008312290112047074061213118A108B1174
:10214000AE10AF11E50A2402F50AE50B122B3FEEA3
:102150004F7003022283801774021213461227EA7B
:1021600088828983EAF0A3EBF09002FBE004F09010
:1021700002FBE0C394054003022283E4F510F5114D
:1021800078101215657510E4751102781012156536
:102190007510E57511027810121565740612134654
:1021A00012157C7910EEFCEFFD12322B121311E99F
:1021B000705E850882850983A3A3A3A3A3A3A3E0DC
:1021C000F89002E4E06870481225AC1215657CE5D1
:1021D0007D02E5082408FAE5093400FB120CB0740E
:1021E00002121311E960298E828F83A3A3A3A31285
:1021F00027EA9002FBE0F510740278101212E874DE
:10220000FC2510F58274023511F583EAF0A3EBF09A
:102210007402121346858210858311781012156599
:10222000740212134612157C850C82850D831228C8
:10223000101213118A108B11AE10AF119002FBE037
:10224000F510751100740278101212E874FB251055
:10225000F874023511F988828983A3121E6D700308
:1022600002214FE82403080808E93400F9EE4F6022
:10227000030221588882898374FFF0A3F09002FB47
:10228000E004F09002FBE0600A1227E012024E79AF
:1022900000800B850882850983122B53790A022A54
:1022A0004B74EA12135274FE1212FB8C128D13EA55
:1022B0002405F50CEB123213123023750800750952
:1022C00000EA2402F510EB3400F511851882851917
:1022D0008385820A85830B780A121565850C8285B1
:1022E0000D83A3A3A3A3122479121565E50C24057D
:1022F000F50AE50D122B3F780A121565850C8285CB
:102300000D8312247D12047074061213118A0A8B35
:102310000BEA450B700302241EEA2404F50EEB12AF
:1023200024631230238A828B83A3A3A3E0F9851050
:10233000828511831227F4600302241EE4F514F54C
:102340001578141215657514E475150278141215B4
:10235000657514E575150278141215657406121367
:102360004612157C7913AC0AAD0B8510828511835A
:10237000123231121311E9F509600302241E900292
:10238000E4E0F8E5087009E024029002FCF0801413
:102390009002FCE0FCE82402FAE43400FBEA6C70F2
:1023A00001EB707E850882AA821225A3941412255F
:1023B0009B506B850E82850F83E0C0E074FD2A126E
:1023C000245AD0E0F00508850E82850F83A3E0C073
:1023D000E085080A74FD250A12245AD0E0F00508A9
:1023E0009002E41224791215657CE57D0285080AC5
:1023F00074FD250A12246D1213119002E4E02508E1
:10240000F50874FF6E700374FF6F6012EE24010E06
:10241000EF3400FFE508C3941450030222CBE50813
:1024200060131227FE8510828511831227EA12029B
:102430005479008014E509700375090A85128285B4
:102440001383EEF0A3EFF0A90974021213117F0EAB
:1024500002142485080C74FD250CF58274023400E6
:10246000F583223400F50F850E82F58322FA74027B
:102470003400FB120C9E74022212305922A3A312C4
:10248000248322122B4AFDEEFAEFFB2274EE121384
:102490005274FE1212FB8C0E8D0FEA2405F50CEB24
:1024A000122FFA750B009002FBE4F0F50AEA240201
:1024B000F508EB3400F50980449002FBE0FA900245
:1024C000E4E0F81225A3941712259B400D9002FB1F
:1024D000E0F87416C3989002E4F01225AC1215656A
:1024E0007CE57D0274FC2AFA740212247012131126
:1024F0009002E4E0F89002FBE028F0050AE50C24E5
:1025000016F582E50D12245EE0F8E50AC3985074D2
:102510009002FBE0C39416506BE50AC333F8E43332
:10252000F9E50C28FEE50D39FF851882851983AC85
:1025300082AD838E828F831225B57008750B0112D0
:102540002B4F8050E4F510F51178101215657510B9
:10255000E475110278101215657510E57511027891
:1025600010121565740612134612157C791685082B
:1025700082850983123231121311E9F50B700302BF
:1025800024B980BB7CFB7D028508828509831227E4
:10259000EA120266A90B7402022A4DE99400C3658F
:1025A000D03322EA28F8E43400F9E822E0F5107587
:1025B0001100781022122A428A108B11AC10AD1132
:1025C000EC4D2274EA12135274FC1212FB8A0C8B2B
:1025D0000D8C128D13EA2405F50AEB122B3F7508BA
:1025E00000750900E50A2402F510E50B3400F51129
:1025F000740212134685820E85830F780E121565BC
:10260000850A82850B83A3A3A3A3122FFF1215654E
:10261000E50A2405F50EE50B3400F50F780E1215CA
:1026200065851082851183122B451227E4120470F0
:1026300074061213118A0E8B0FAE0EAF0FE50C2429
:1026400002F50EE50D3400F50F8038888289837419
:10265000FFF0050812245374FFF005089002E4E02F
:10266000F50C750D00780C1215657CE57D0285086A
:102670000C74FD250C12246D1213119002E4E02558
:1026800008F508EE4F60278E828F83A3A3A3E0F99D
:10269000850E82850F831227F4EE2404122FF7E9AA
:1026A0006027850C82850D831227D6122B5CE508E6
:1026B00070030227BC1227FE850E82850F83122726
:1026C000EA12026C79000227D1E4F514F5157814AA
:1026D0001215657514E475150278141215657514D4
:1026E000E575150278141215657408121346121553
:1026F0007C7911EEFCEFFD850E82850F831232315D
:10270000121311E9F509709A850882AA82EA9002EB
:10271000E47009E024049002FCF08025E0F89002C7
:10272000FCE0F514E82404FCE43400FDEC651470CE
:1027300001ED70811225A3941212259B40030226FD
:10274000B5850C82850D83E0C0E074FD2A12245A01
:10275000D0E0F00508850C82850D83A3E0C0E0126F
:102760002453D0E012281985820C85830D780C1231
:102770001565740412134612157C85108285118329
:102780001228101213118A0C8B0DAE0CAF0D850898
:102790000C74FD250CF874023400F9EE4F7003023E
:1027A000264B851882851983E0888289831228192F
:1027B000A3E0C0E0122453D0E0022659E5097003DB
:1027C00075090A850A82850B831227D6122B5CA90C
:1027D00009740402244B1232058512828513832268
:1027E0007CFB7D02850A82850B831227EE22E0FAAC
:1027F000A3E0FB221227EE12045EE9F50922900203
:10280000FCE0F5F0E508849002FBF07CFB7D022201
:1028100012248312047C740422F005088518828532
:1028200019832274EC12135274FE1212FB8A088B65
:10283000098C0E8D0FEA2405FEEB3400FF122A2CC2
:10284000EE2418122FF7EA450B70030228CF122A44
:102850001550291228F48A108B11EA4511606B7902
:1028600012AC0AAD0B8508828509831227EA851010
:1028700082851183121350E9F50A7058E4F50AF5C0
:102880000B780A1215658E828F83A3A3E0F50A7870
:102890000A121565EE2403122B3C780A1215658E78
:1028A000828F831229011205727406121311E9F541
:1028B0000A7021850C82850D83E0701F8508828552
:1028C00009831227EA1202728011750A0E800975B7
:1028D0000A018004E50A6003122B4F850C82850DE6
:1028E00083E0600479008002A90A74021213117F48
:1028F0000C0214248518828519831227EE120566AE
:1029000022122B4AFD8508828509831227EE227444
:10291000EE12135274FE1212FB8A088B098C0C8D76
:102920000DEA2405FEEB3400FF750E00122A2CEA96
:10293000450B70030229F3122A15502C1228F48A31
:102940000E8B0FEA450F604A7912AC0AAD0B850871
:10295000828509831227EA850E82850F8312135020
:10296000E9F50E60030229F6850882850983122B9A
:10297000D1AA0AFB122A0770147AFF7BFF122A07DA
:10298000606C88828983E50AF0A3E50BF0750A0084
:102990008007750E0E805F050A9002E1E0FAE50AF5
:1029A000C39A504AE50A75F017A4FAABF0888289F9
:1029B00083A3A3E02AFAA3E03BFB8A828B83122B3A
:1029C00045EC4D70D2750A17750B00780A12156523
:1029D000EEFCEFFD120C9E7402121311EEFCEFFDE3
:1029E0008508828509831227EA1202788014750E01
:1029F000098003750E011231FD850C82850D83124D
:102A00002B5CA90E02259612055A8A108B11A8106C
:102A1000A911E84922E5082402F508E5093400F582
:102A2000098A828B83A3A3A3E0A2E522851882856D
:102A30001983AC82AD838E828F83122A428A0A8BDD
:102A40000B22E0FAA3E0FB120476227404121311A5
:102A50007F0A02142474EC1213528C108D11EA2494
:102A600005F50CEB122FFA750F00EA2402F50AEBBC
:102A7000122B3F850A82F5831227EA1232B77003C0
:102A8000022B31750E008071850C82850D83E06408
:102A900001704F8E828F83A3A312157C8E828F8349
:102AA000A3A3A3A3E0F5127513007812121565EE27
:102AB0002405F512EF3400F513781212156512276C
:102AC000E41205727406121311E9F50F6014850CF7
:102AD00082850D83E4F01231FD8510828511831209
:102AE0002B5C7C177D007900EEFAEFFB120CB68EA2
:102AF000828F83E4F0A3F0050E9002E1E0F8E50E8A
:102B0000C398501EE50E75F017A4F8A9F085088249
:102B1000850983A3A312321D122B45EC4D600302DD
:102B20002A8885088285098374FFF0A3F0E50F7079
:102B3000061227E412027EA90F0228EFF50AEF34ED
:102B400000F50B22A3122B4AFD22E0FCA3E0228E0B
:102B5000828F83123205850E82850F83E8F0A3E908
:102B6000F022C082C0839002DDE06A7003A3E06BB4
:102B700070067ADD7B0280047A007B00021EA4745A
:102B8000F71213527F00EF75F003A4F8A9F0EC28B8
:102B9000F8ED39F988828983E06A7003A3E06B70ED
:102BA00006E8FAE9FB800B0FEFC3940240D87A00E5
:102BB0007B007F0102142474F61213521231087044
:102BC000067A007B008007A3A3A3A31227EA0231A1
:102BD000C9E0F50AA3E0F50B2274E812135274FB66
:102BE0001212FBE9851882851983F08A168B178CDF
:102BF0000E8D0F741F1213461230397421121346B2
:102C0000122BD174231213461230237510008C82BC
:102C10008D83A3A3A3E0A2E4502A741D12134612CD
:102C200028FA8A828B83E58245837003022CE5793A
:102C30000AAC0EAD0FAA16AB17121350E9F51060CF
:102C400003022CE8850E82850F83E0640260030294
:102C50002F9EA3123201850882850983A3858212E3
:102C6000858313E50E2406F50CE50F122FFA8882F2
:102C70008983E0FAA3E0F9EA2400F514E439F515B4
:102C800078141215A9010000280128AD2C070002B4
:102C900028842D0328F42C0029AE2E0129D62E02DB
:102CA000297D2E0329AE2E04293F2F9E2FEE4F7033
:102CB0003E850C82850D83123014FAE9FB8A828BE3
:102CC00083E0850A82850B831230501215658A8253
:102CD0008B83A3122B4AFDAA08AB09120C9E740227
:102CE000121311800375100EA910740502320B75B2
:102CF000100B80F4EE4F70F7850A82850B83740108
:102D0000F0123029850882850983F07C007D0085DA
:102D10000E82850F83A3A3A3A3E02401FAA3E034CA
:102D200000FB120476EA4B60418A828B83E0240226
:102D3000F8850A82850B83E028F0EA2404F8EB3456
:102D400000F988828983E0851282851383123062BC
:102D50001230501215658A828B83122B44E50824A9
:102D600003FAE5093400FB022CDB850A82850B831C
:102D7000E02404F07C047D007900AA12AB13120C4D
:102D8000B6022CE8EE4F6003022CEF123029FEA3AE
:102D9000E0FF850A82850B837404F0EE8508828546
:102DA0000983F0EF851282851383F07403121346B2
:102DB000AC82AD83EEFAEFFB1230F67003022E5AAE
:102DC0008A828B83A3A312301F740112134685825B
:102DD0000E85830F780E12156574051213461215B1
:102DE0007C7CFF7DFF12047C74041213118B0FEAAC
:102DF000450F7033850C82850D83122FFF121565E8
:102E0000850C82850D83A312157C7C027D007A7F60
:102E10007B911203147404121311E9700A740112E5
:102E2000134674FFF0A3F08E828F83E06402703447
:102E3000750C02750D00780C1215658E828F831249
:102E40002B44E5082404FAE50912247012131185B5
:102E50000A82850B83E0240280097401121346EE76
:102E6000F0A3EFF07401121346123010F074011247
:102E70001346A3123008A3A3A3F0022CE8EE4F6080
:102E800003022CEF850C82850D83122B45AA16AB0D
:102E90001712058A850A82850B837402F0EA850879
:102EA00082850983F0851282851383EB80CBEE4FF8
:102EB0006003022CEF123029F8A3E0F9850A82851D
:102EC0000B837402F0E8850882850983F0E9851296
:102ED0008285138380A3850C82850D831227EA12D5
:102EE0000C98EAFC8C82A882C39EE49F404BE86E5B
:102EF0007001EF70047C00801F851882851983E0C3
:102F0000FAEE2AFAEF3400FBC3EA98EB9400500380
:102F1000E08004EECCC39CFCEC850A82850B83F038
:102F20008C0A750B00780A121565850C82850D8355
:102F3000E02EFCA3E03F022CD6751007022CE8EE31
:102F40004F6003022CEF850C82850D8312320185C0
:102F50000A82850B837407F08882898312300812F5
:102F60002FF0E0851282851383F0E82402FAE93419
:102F700000FB8A828B83123008123041123010A37A
:102F800012304A123019F0E82405F8E93400F988C3
:102F9000828983123019A3123062A3022E76741D27
:102FA0001213461231017003022CE5123201880C13
:102FB000890DE8450D7003022CE58E108F117810F5
:102FC000121565780A1215657808121565740612CF
:102FD0001346E0F9AC0EAD0FAA16AB17850C82852F
:102FE0000D831213507406121311E9F510022CE828
:102FF000F088828983A322F50CEF3400F50D22E0DE
:10300000F50E750F00780E22E0850882850983226F
:1030100012306922123205E822123069A3A322A3DA
:10302000A3A3A3E0FEA3E0FF22850C82850D83E02D
:10303000F8A3E0F5838882E022E0F508A3E0F50933
:1030400022A3A3F08A828B83A322121DE8A3A322CA
:10305000F08A828B8312305922E0F50A750B0078D2
:103060000A22122FF012306922E085088285098336
:10307000A3A32274EE12135274FE1212FB8A0A8B5F
:103080000BECFAEDFB7414121346E0F510A3E0F517
:10309000117416121346E0FE7418121346E0F50E72
:1030A000A3E0F50F851882851983AC82AD831230B9
:1030B000F6603E851882851983123101602FA3A323
:1030C000123039E50845096024780E12156578102C
:1030D000121565EEF9AC0CAD0DAA0AAB0B85088292
:1030E00085098312135074041213118006790E801F
:1030F0000279010225961204768A0C8B0DEA450DA1
:10310000221227EE123108221205248A828B83E5CF
:103110008245832274F612135274FE1212FB740C51
:10312000121346123014851882851983F074011227
:103130001346E9F0E4F508F50978081215657508F5
:103140000278081215657404121346858208858377
:1031500009780812156512057274061213117402AB
:10316000121311806474F7121352EAFEEBFF890800
:103170007C147D0312058AEA5402600BA908EEFA5A
:10318000EFFB12046A80027901022BB274F612136B
:103190005274FF6A700374FF6B701C7B00EB75F058
:1031A00003A4F8A9F0EC28F8ED39F91231CE0BEBB5
:1031B000C39402501480E61205608A088B09A8089F
:1031C000A909E84960031231CE7F020214248882E3
:1031D000898374FF121DE6E4F02274F61213521272
:1031E00005608A828B83E58245836006A3A3E0FAAB
:1031F00080027A007B0080D17F060214248E828FA9
:103200008312320522E0F8A3E0F9221213117F1095
:103210000214243400F50D850C82F58322E028FE8B
:10322000A3E039FF8E828F83227916850A82850B6F
:10323000831227EE12056C74082274F2121352EAFC
:10324000FEEBFF890B7401650B600E7402650B7059
:1032500063790112074CE9705BEEFAEFFB1232B7AB
:103260006047750A00800B7C177D007900120CB650
:10327000050A9002E1E0F8E50AC3985021E50A75D5
:10328000F017A4F8A9F0850882850983A3A3E02894
:10329000FAA3E039FB8A828B83121EAB70C98508C2
:1032A0008285098374FFF0A3F07C147D03EEFAEFAE
:1032B000FB1205840231F812055A8A088B09EA4587
:1032C0000922C082C0839061907404F0A37448F016
:1032D000A3E4F09061807440F09061BC7407F090BA
:1032E00061877469F09061B67416F0790012082451
:1032F000790212082A901D60E493F46006E493F9C1
:103300001208007905120B0C023704C082C083E951
:10331000540FF9906185E0696012E5C65480444914
:10332000F5C6E59E547F644970F8E9F053C680E520
:103330009E547F70FA02370474F7121352E5A8FE08
:1033400053A87E12080CC2BA539AFEC289759B001C
:10335000C2C212081275A91175B905120818D2BA9D
:10336000439A0174805E42A8023C91C082C083905F
:103370006181E4F0A302370175E90075910075BF22
:1033800000020122C082C083906181E4F0A374C076
:10339000F0A3E4023703C082C08374F81212FB90DA
:1033A00003C0123B73E849700302344D9003C0E040
:1033B000544060237908851882851983AA82AB83DB
:1033C00012091A851882851983AA82AB831205DE39
:1033D0009003C0E054BFF0E054806010790C7A7C18
:1033E0007B0512091A9003C0E0547FF0E0A2E05080
:1033F00008790012345554FEF0E054026008790157
:1034000012345554FDF0E054046008790012346021
:1034100054FBF0E054086008790112346054F7F06E
:10342000E054106008790212346054EFF0E0542048
:103430006008790312346054DFF0A3E05401600D9A
:103440001208361205F09003C1E054FEF074081221
:1034500013110237041208241205E49003C0E0227D
:1034600012082A1205EA9003C0E022C082C083E954
:10347000600514602A804F90619A7433F0A37455EC
:10348000F09061A0743AF0900558E064017009C2B0
:10349000919003C27467802D9003C274618026905E
:1034A000619A743FF0A3745AF09061A0747FF09019
:1034B0000558E064017009D2919003C274718005CF
:1034C0009003C2746AF0023704C082C083E9600BC3
:1034D00014600D14600F1460118020901D6480151D
:1034E000901D658010901D66800B900558E064016A
:1034F00060F3901D67E493906186F002370474EEE8
:1035000012135274F41212FB851882851983AC824F
:10351000AD83758391758218740412120E901D6428
:1035200093F46003023690907808E0C3940250034D
:103530000236707404121346AC82AD8375839075A5
:1035400082DD740812120EF97AFF7BFF7FFF7E0086
:103550008982858210801874086E70030236257483
:10356000096E7003023625740A6E7003023625E573
:1035700010C333FCE433FD7404121346E5822CF5CA
:1035800082E5833DF583E0F50EA3E0F50F8E087527
:103590000900740278081212E874482508FC74784F
:1035A0003509FD8C828D8378081211CB7408780858
:1035B00012110C85080C85090D8C828D83780812F8
:1035C00011CB7418780812110CE50C4508F508E5C4
:1035D0000DF509C3E50E9508E50F95098C828D83DD
:1035E00078081211CB8C828D8378081211CB741855
:1035F0007808401412110CE50C4508FCAD0DE50EE1
:10360000C39CFCE50F9D800F12110CE50C4508C30F
:10361000950EFCE50D950FFDC3EC9AED9B5006EC65
:10362000FAEDFBEEFF0EEEC3941350030235577410
:10363000FF6A700374FF6B602D8F087402780812A4
:1036400012E8744812431F74783509F5837808121C
:1036500011CB851882851983E5822510F582E583D3
:103660001240ACE508F009E9C39404500302354860
:103670007508017509007808121565740212134661
:10368000AC82AD837A597B07120E7E74021213113D
:10369000740C1213117F0A021424C082C08390613B
:1036A00086E0F8901D67E493687009901D66E493C6
:1036B000906186F09061AE7468F0A3746AF09062D5
:1036C0004574FBF0A304F053F4FD43FE029005584B
:1036D0007401F09061A0E0643A700479008002798E
:1036E00001120824023704C082C08390050AE064F6
:1036F00001700A90050FE06004790C800279008067
:1037000003F0A3F0D083D082020122C082C083756F
:10371000E1F190050DE0604D1460081460511460F3
:10372000498051120848900503E0F97A047B05129C
:103730000A8E9090F41211E9120AC490912C121181
:10374000E9120A9A90050EE0F9120AA67901120B05
:1037500000900501E024161238997460F0A37408F3
:10376000F07900809F12084E80BC12085480B71276
:10377000085A80B2791280EB74F412135275D90D85
:103780009004F2E0A2E0E4331313F8123805484441
:1037900001F5D9780012388340FB7800880874F36B
:1037A00012431F740412388D40F275E1959004F2B3
:1037B000E0F97AF37B04120A949009DD74D6F0A341
:1037C00074071238A81238C81238BF123A001238DB
:1037D0000F78081211CB9090F87808121157909139
:1037E0005078081211A512389378081211DA900552
:1037F00001E024141238997413F09003BE7402F09F
:103800007F04021424900503E0C4333354C0229093
:103810000501E0F8A3E0F5838882A3A32274F612E1
:1038200013521239D18AD9780012388340FB7800BC
:103830008006123937123A83E8C39940F51239C32A
:1038400012388340FB7800800812431B7405123A3B
:1038500083E8C39940F375E1959009DD74E2F0A324
:1038600074071238A81238B21211E91238931211E3
:10387000F5900501E024141238997412F09003BEFB
:10388000023C6E880874042508F5827405123BDF3B
:10389000940622900501E0240EF8A3E01238A0223D
:1038A0003400F988828983221239E974DCF0A37428
:1038B00007221238C81238BF123A0490915822F0E9
:1038C000A374F4F0A37407221238CC221238D02249
:1038D000F0A37486F0A374092274F61213521239FD
:1038E0002C1238054402F5D9780012388340FB7851
:1038F000008006123937123A83E8C39940F575E122
:10390000959009DD123942F0A31239421238B512EE
:1039100011E91238931211F5900501E024141238C0
:10392000997414F09003BE7404023C70900513E087
:10393000F9740729F5D922880874142508F58274CA
:10394000052274EE12394F12394FF0A3740722F09A
:10395000A37407F0A374EE2274F61213521239D135
:1039600074064AF5D9780012388340FB7800800647
:10397000123937123A83E8C39940F51239C3123825
:103980008340FB7800800812431B7405123A83E8D9
:10399000C39940F375E1959009DD74E8F0A37407CD
:1039A0001239DF1238B21211E91238931211F59060
:1039B0000501E024141238997415F09003BE7403C5
:1039C000023C7090053312392F74044AF5D97800FF
:1039D0002212392C900503E0C4333354C0FA22126A
:1039E00039E97486F0A37409221239ED221239FAEA
:1039F0007486F0A374091239FA221238D0F0A32287
:103A0000123A0422F09009EB7486F0A3740912397B
:103A1000ED7486F0A374091238CCF022C082C08302
:103A200012380FA3A3A3A3E402370174F7121352B1
:103A3000124561F8740339F9E82405FAE93400FB0A
:103A40008A828B831242D088828983A3A3A3A3A3F3
:103A5000A3A3A3A3ECF0A3EDF088828983A3A3A37F
:103A6000A3A3A3A3E024FFF8A3E034FFF98A828B89
:103A700083E8F0A3E9F0023C918808745C2508F51E
:103A80008274051241F7F5D90822EAFEEBFF906136
:103A9000D0E0F87480C398FAEE248322123AA294FC
:103AA00004221240BAE0F5D90AEAC32274F61213CE
:103AB00052EAFEEBFF9061D0E0707575D90E75D9B2
:103AC0000375D9047A008A08EE250812462F248C43
:103AD000123B4540F17A008A08EE250812462F2451
:103AE00084123A9C40F175E1957908EE248C123BE2
:103AF0003E2484123B357C008C82AA82C3E49AF86F
:103B000095E0F9EE28F8EF39F9E8248BF582E9120F
:103B100041F3C0E0EE2A12462F24ABF582E91240B1
:103B2000ACD0E0F00CECC3940840CD123BFB80021B
:103B30007900023C71FAEF3400FB12090E22123BAD
:103B4000357904EE22123AA2940822C082C083750D
:103B5000D90275D90375D90575E195EA2470F58206
:103B6000EB123B70EA2472F582EB123C0D02370433
:103B70001240BD123B7722E0F8A3E0F92274F6125E
:103B80001352EAFEEBFF90055C7406123BE9121536
:103B9000657C017903123F1512131175D90675D989
:103BA000037800123BCF40FB75E1959003BEE064C3
:103BB000087017EE2470F582EF123B70EE2472F558
:103BC00082EF1240ACE8F0A3E9F07901023C718881
:103BD00008745C2508F5827405123BDF94052212F7
:103BE00040BDE0F5D908E8C322F075085C75090509
:103BF00078082275E1957904120ACAEE2470F582DC
:103C0000EF1240BD123B77EE2472F582EF1240BDF9
:103C1000E8F0A3E9F079012274F6121352EAFEEB00
:103C2000FF9061D0E07043790190055C740BF090D7
:103C300003BEE06407701775085C75090578081203
:103C400015657C010909123F1512131179057401DC
:103C500029F5D975D90378008003123A79E8C39918
:103C600040F875E195123BFB8002790080037401F6
:103C7000F07F0202142474F7121352EAFEEBFF7570
:103C8000D90375D90375D90DEE24DE123C96123B8B
:103C9000F37F01021424F582EF1241F7F5D9227F58
:103CA000030214247401250AF5D975D9037800227A
:103CB00074F5121352123D256004780480027800D6
:103CC000E8240BF8EAC3984041750A0990055C7432
:103CD00009F07908123D0E601475085C75090578C5
:103CE00008121565123F0D121311750A0D123CA42E
:103CF0008003123A79E8C3950A40F775E195790493
:103D0000120ACA123E8A7901800279008091EE245B
:103D1000E3FCEF3400FD7A5D7B051209088508821B
:103D2000850983E022123A8AF8EF1242C4F583E053
:103D30002274F31213528A088B09123F20FAE50805
:103D40002483F50AEB123DEF6004780480027800CA
:103D5000E82408F8EAC3985003023DE8750C069081
:103D6000055C740CF09003DBE090055DF07402C01C
:103D7000E0F97CDC7D037A5E7B05120908D0E0F96E
:103D80007CDE7D03120908850A82850B83E0601CB6
:103D9000750A5C750B05780A1215657C067903AA0D
:103DA00008AB09123F15121311750C0A7401250C8A
:103DB000F5D975D90378008009880A745C250A1240
:103DC0003A7FE8C3950C40F175E1957904120ACA6F
:103DD000E5082470F582E509123B70E5082472F5C8
:103DE00082E509123C0D800279007F05021424341B
:103DF00000F50B850A82F583E02274F6121352EA6D
:103E0000FEEBFF123F20FCEE2483F8EF123F1B6015
:103E1000047A0480027A00EA2404FAECC39A405E31
:103E20007A0290055CEAF0EE24F5F582EF123E96F8
:103E3000601975085C75090578081215657C0279AA
:103E400003EEFA123F151213117A0674012AF5D9FE
:103E500075D90378008003123A79E8C39A40F8755F
:103E6000E195EE2474123E83EE2480123E83123ECE
:103E70008A7904120ACAEE240D123BFE80027900F0
:103E8000023C71F582EF12400622EE241DF582EF0E
:103E9000124006A3F0221241F790055DF088828956
:103EA00083E02274F6121352123F20FEEA2483F8B4
:103EB000EB123F1B60047C0480027C00EC2404FCB9
:103EC000EEC39C40437C0290055C7407F0EA24F644
:103ED000F582EB123E96601575085C750905780849
:103EE0001215657903123F151213117C0674012C0B
:103EF000F5D975D90378008003123A79E8C39C405C
:103F0000F875E195790180027900023C717C0979AC
:103F100003EEFAEFFB12097A7402221238A0E022B3
:103F20009061D0E0F87480C3982274F5121352E9BE
:103F3000FEA2AFE433F50AC2AF7F00EA246FF8EBCC
:103F40003400F980010F88828983E0FCEFC39C5024
:103F5000188F08EA2508FCEB3400FDEC246BF58291
:103F6000ED1241F36E70DE8010EA2CFAEB3400FBA8
:103F70001240A6EE123E9C04F0E50AA2E092AF02C7
:103F80003C9F74F6121352A2AFE433FFC2AFEA248F
:103F90006FF8EB124631FCE9FD8C828D83E014F062
:103FA0007E0080218E08EA2508F8EB124631246C49
:103FB000F582E91241F3C0E0E8246BF582E9124092
:103FC000ACD0E0F00E8C828D83E0F8EEC39840D444
:103FD000EA246E1240A974FF123FFBEFA2E092AFF9
:103FE000023C71C082C083E5A8F8C2AF1240A6E9C6
:103FF000123FFBE8A2E792AF023704F0EA246AF529
:1040000082EB124006221240BDE4F02274F2121339
:10401000528C828D83A3A3A3A3E0541FF0EA24361D
:104020001243688E828F83E4F0F50C850C828582C2
:104030000AEC250AF8ED1242C0F583E0C0E0EA255B
:104040000AF8EB1240B0D0E0F0750D0085088285CB
:104050000983E0F50A750B00E50D780A1212C9E52F
:104060000AA2E0502AE50C33333354F8250DC0E0A2
:104070008E828F83E0F8EA28F8EB1246312438F577
:1040800082E91240ACD0E0F08E828F83E004F0052C
:104090000DE50DC3940840B4050CE50CC394054030
:1040A0008A7F06021424EA246BF582EB1240BD22BB
:1040B0003400F9E8245D1240BA22F582E93400F5B3
:1040C000832274F61213529003EAE0640170077AB7
:1040D000007B000241ED7E009003F0E070F174017E
:1040E000F0A3E4F0A3F090045004F0900453E4F043
:1040F000A3F090045604F09003F3E41242049003FA
:10410000FD04F0900423E4F09091481211E990042A
:10411000061211F590040AE4F0A3F0A3F090046EE7
:10412000F0900462F09004577480F0A3E4F09004DF
:104130005DF0900455F09004D91241FC9004E2F037
:10414000900471F09004C1F0A3F09091481211E92D
:104150009004C31211F59091481211E99004C7120E
:1041600011F59004CDE4F09004CFF09004CBF090E2
:1041700004E51241FC8E08745912431F7404124066
:10418000AC74FFF00EEEC3940440EA7E008E82A869
:104190008274F928F58274041241F3C0E0744B284C
:1041A000F58274041240ACD0E0F00EEEC3940540EA
:1041B000DC7E008E82A88274D228F58274031241BC
:1041C000F3C0E074D128F58274041240ACD0E0F062
:1041D0000EEEC3940840DC9003EAE004F064017042
:1041E000089003F2E09003ECF07AEE7B03023C715E
:1041F000F582EF1241F7221240BDE022124204A3E1
:1042000012420422F0A3F0A3F0A3F022C082C083E4
:10421000EA2403F582EB1241F36008E4F09003EB2B
:10422000E014F09003EAE014F070069003EC74FFE1
:10423000F08A828B83A3A3E4F09004FEE0700D90DB
:1042400003EBE0640170057900120AAC023704C088
:1042500082C0839003F1E4F09003F0F09003EAF061
:10426000A3F0A374FFF075E1F1023704C082C083AC
:10427000780079009003F1E0600478EE7903888299
:104280008983A3A3A3A3E0F902370474F61213529F
:10429000EAFEEBFF1208C0EE2465F8EF1242C012EE
:1042A00042CEEC4D60109003EC1245598508828592
:1042B0000983E4F0A3F0EEFAEFFB1209B0023C71BF
:1042C0001242C4223400F988088909888222F583C1
:1042D000E0FCA3E0FD2274F7121352EAFEEBFF8E1E
:1042E000828F83A3A3A3A3E0FA7B00120656EEFA03
:1042F000EFFB1208D2120992023C9174F61213528B
:104300007800880874D212431F7403123E8608E8AE
:10431000C3940840ED9003D2023C6E8808743425A3
:1043200008F5822274F6121352EA240D124368EC47
:104330002403F8ED3400F988088909EC2407F8ED26
:10434000124631FCE9FD1243721212708E828F8385
:10435000E8F0A3E9F01243721212708B09EA4509E2
:104360006003124385023C71F8EB3400F9E8FEE982
:10437000FF228C828D83123B77850882850983E03A
:10438000FAA3E0FB228E828F83E02401F0A3E034C5
:1043900000F02274F6121352EA242EF582EB340058
:1043A0001242CEEA2470124368780079FAECFAEDF2
:1043B000FB1212708E828F83E8F0A3E9F078007907
:1043C000FAECFAEDFB1212708B09EA450960031250
:1043D0004385023C7174F0121352EAFEEBFF741035
:1043E00012134678081211CB120A5E8A0C8B0D8CC0
:1043F0000E8D0F9090FC780C121157909150780C04
:104400001211A5780C1215618E828F831238121248
:1044100011E9121A917404121311E960030244BDE8
:104420008E828F83E02402F8A3E0124631FAE9FB82
:104430008A828B83780812116A9091507808121141
:10444000CB8A828B8378081211B8EE240BF582EFA9
:104450001240ACC082C0838E828F83A3A3A3A3A388
:10446000E02401F8A3E03400F9D083D082E0687042
:1044700003A3E069700479018045EE2407F8EF1288
:1044800038A0124389EE24741246367014EE247557
:104490001244C47003A3E06D70078A828B831243B9
:1044A00089EE24801246367014EE24811244C470C2
:1044B00003A3E06D70078A828B8312438979007FA2
:1044C00008021424FAEF3400FB8A828B83E0FCA3F9
:1044D000E0FD88828983E06C2274F3121352124546
:1044E00061FE740339FFEE2404F50AEF3400F50B86
:1044F000EE2465F508EF3400F50980101242D085EE
:104500000882850983E4F0A3F0124553850882856B
:1045100009831242D0EC4D6030EE24641241F0F574
:104520000C780C121569EE24631241F0F9EEFAEFE3
:10453000FB1208FC7401121311E9850882850983B6
:1045400060BA123B73E84970077C007D0012455346
:10455000023DEA850A82850B83E0FA7B001206148D
:10456000229003ECE0F875F004A4C8AAF02AF974CC
:10457000EE282274F2121352EAFEEBFF890A740E3F
:10458000121346E0FAEE2462124636600302462A0F
:10459000123F20F50CEE24831241F0FB60047804F6
:1045A000800278008908E928F8E4124631240208DC
:1045B00008E93400F9E50C98E499A2D265D03340BB
:1045C00065EA7005750B028003750B01EB603375AE
:1045D000090078081215657A5C7B0512094474029B
:1045E00012131175085C7509057808121565AC0A77
:1045F000A90B123F111213117404250AF50A7C5CF1
:104600007D057401250AF5D9850BD97800800A88C3
:1046100008EC12431FED123A83E8C3950A40F07587
:10462000E195790080067907800279FF0240A1F8C0
:10463000EF3400F9E822F582EF1241F7640122C05D
:1046400082C083800312466DE9F874FF2819047054
:10465000F4ECFAEDFB023704C082C08380031246FB
:104660006DE9F874FF28190470F40237048C828D08
:1046700083E08A828B83F08C828D83A3AC82AD83AE
:104680008A828B83A3AA82AB832274E8121352908E
:104690007803E06442705E90055BE014F07056C2EF
:1046A000AF1246A400782AD0E0F618D0E0F6E59FD5
:1046B0005407F970059091048003909108780812CE
:1046C00011CBE9C4C0E07829E65508F50808E6559D
:1046D00009F509740B78081212D9D0E02508F89072
:1046E0006270E0A2E740F8E8C333906272F0906233
:1046F00070E0D2E0F09003ECE0F874FF6870030221
:1047000049BCE81254152402F8EF3401F988828973
:104710008312548FEA4B600FEE2401F582EF3401CF
:10472000F583E0F9120CF2EE2405F514EF3400F5F0
:10473000158E828F83A3A3A3A3A3A3A3124EA112BA
:10474000542B906054E09003C5F0906055E09003C6
:10475000C6F0906056E09003C7F0906057E0900379
:10476000C8F0906058E09003C9F0906059E0900361
:10477000CAF090605AE09003CBF090605BE0900349
:10478000CCF090605CE0FC9003CDF090605DE0FDCB
:104790009003CEF090605EE0F50C9003CFF0906057
:1047A0005FE0F50D9003D0F09003CBE0F5108C089E
:1047B0002508F8E43400F9850C08124E4C8D0812D7
:1047C0004E4C850D08124E4CEE24F71253D712545E
:1047D000818C8285820AEE24F9F582EF124E95EEE5
:1047E00024FB124E89EE24FFFAEF3400FB8A828B01
:1047F00083E0F508A3E0F509E5084509603A906013
:1048000000E0C333F508E433F5098A828B83E025A1
:1048100008F50EA3E03509850E82F58312548190C8
:104820006000E0C333F8E433F98A828B8312543C8E
:10483000244AF582E9124E95EE240BF8EF3400F984
:10484000EE241DF50EEF3400F50FEE2420FAEF34C0
:1048500000FBEE241C1253BFEE240FF50AEF3400C8
:10486000F50BE510700BED7008E50C7004E50D60BC
:1048700079851482851583125457EE240D1253E165
:104880002CFCA3E03DFD88828983ECF0A3EDF012BF
:104890004E667003124ECC9003C6E06024850882F9
:1048A0008509837401F0EE246A1253E17013EE243B
:1048B000741253E1700BEE24801253E17003124E18
:1048C000CC906062E08E828F83700302494FE024B7
:1048D00006FCA3E03400FD12546E120A588E828F3B
:1048E00083E02412125431E48079EC6018124E6691
:1048F00070238A828B83125457850E82850F83EC36
:10490000F0A3ED800FEE24FD124E89850E82850FF7
:1049100083E4F0A3F088828983124EA1E0687003DB
:10492000A3E0696003024897850A82850B83E060F3
:104930000F851482851583E064057002A3E0600B87
:104940007908EEFAEFFB1208D88071793E80F3E027
:10495000F8A3E0F5838882A3A3A3A3A3A3E4F0A311
:1049600012582AF0A3F0906060E0C0E0EE246912D3
:1049700053D7D0E0F09003CBE0F81253DE28F0EEEE
:10498000247AF516EF3400F517024AA8900559E08D
:104990006401702B120B181253DE70069060607465
:1049A00080F0EEFAEFFB120A0AE96401600E1208C9
:1049B000F6120A04E964016003120992024EDFEE66
:1049C00024831253E16004780480027800E50CC36C
:1049D00098F91206088A0A8B0BEA450B60B6EE249A
:1049E000831253E170048A088B0978008015E5D999
:1049F000C0E08810E5082510F582E5091253DAD0E9
:104A0000E0F008E8C3950C40E5EE24831253E16022
:104A10003774FC250CF50C7808121565AC0CA90D43
:104A2000EEFAEFFB1209807402121311E970197487
:104A300003650D7003024AE2E50A24FBFAE50B3434
:104A4000FFFB120D34024AE27403650D7003024A43
:104A5000E7850C107511007810121565AC08AD09CA
:104A6000AA0AAB0B1209447402121311EE24691244
:104A700053E164807004747F8001E0F508780812C7
:104A80001569E50DF5087808121569A90CAC0AAD91
:104A90000B9003ECE0FA7B0012060E740212131165
:104AA000120B241253DE14F0E0700302499C7508C7
:104AB0005C750905750A00750B00E5D914F50CE560
:104AC000D95403F50D601B7403650D70030249EAA8
:104AD000E50C700302498CEE24681253E160030276
:104AE000498C793D024942850882850983E0FAA311
:104AF000858208858309A3A882A98360381470037E
:104B0000024C3A147003024DF0147003024C7B24E3
:104B1000FD7003024D1E146087147003024D45247E
:104B2000FE7003024D27147003024D4014700302FF
:104B30004D98024D9D850882850983E0C0E0EE24F2
:104B4000771253D7D0E0F0880889097902AC08AD14
:104B500009EE2478124E0D7902AC08AD09AA16AB05
:104B6000171209028A088B097902AC08AD09EE24F4
:104B70007C124E32247E124E0DEE24771253E1C386
:104B800033F0EE24781253D7124EC1EE247812542B
:104B900028124EBB85168285178312542BEE247E75
:104BA0001253E1F50AA3E0F50B7404780A1212E837
:104BB000EE247E1253D7E50AF0A3E50BF07902ACA0
:104BC00008AD09EE2475124E1E24751253D7C0820B
:104BD000C083851482851583125448D083D08212F5
:104BE0004EAB40057928024942EE247C1253E12461
:104BF00001F508A3E01253C2E4F50AF50B124EBB0F
:104C000088108911E4F512F5137808791012101C38
:104C1000EE247E1253E1F510A3E0F5117810790827
:104C2000120FDD4005793B024942EE247412580808
:104C300012582AE4F0A3F0024AA07402C0E07905F9
:104C4000AC08AD097AF97B04120902EAFCEBFDD04D
:104C5000E0F9EE2481124E1E24811253D7C082C087
:104C600083851482851583125448D083D082124ED6
:104C7000AB4003024BE4EE248080B2EE24E21253F8
:104C8000E170147A00124E3DC0E0124E55D0E0F0B3
:104C90000AEAC3940840EEEE24E31253E1A2E0EEE8
:104CA000401424DE1253D7741AF0790DEEFAEFFB9C
:104CB0001208A2024AA0124E7C24E112540679087E
:104CC000AC08AD09EE249C124E3224A4124E2CAC3A
:104CD00008AD09EE2494124E2CEE2494FAEF340021
:104CE000FB12090E7904AC08AD09EE2488124E239C
:104CF0007904EE2488FAEF3400FB12090EEE248CBE
:104D0000FAEF3400FB120920EE2484FAEF3400FBA2
:104D10001209269003C0E04480F07904808EEE24CE
:104D2000DF125808024C36EE124E7C24D31253F890
:104D3000EE24DD12581624D41253F8790B024CAC31
:104D4000EE24E080DC7A00124E3DC0E0124E55D0D9
:104D5000E0F00AEAC3940840EE7A008A82A88274DE
:104D6000D228F58274031253DAC082C08385088288
:104D7000850983E0D083D082FBE05BC0E0124E5512
:104D8000D0E0124E74A38582088583090AEAC39491
:104D90000840C87909024CAC12581C700DEE24F67C
:104DA0001253D7EAF07907024CAC85088285098353
:104DB000E0C0E0EE24EE1253D7D0E0F08808890975
:104DC0007402C0E0F9AC08AD09EE24EF124E23EAFC
:104DD000FCEBFDD0E0F9EE24F1124E1E24EB12584C
:104DE0001624ED1253E16003024AA0790C024CAC88
:104DF000EE24F5F8EF12540BE088828983F0EE245C
:104E0000F412540688828983E0F9024942124E1155
:104E100022FAEF3400FB1209028A088B0922124E93
:104E200023EE22FAEF3400FB12090222124E11790E
:104E30000822124E117902AC08AD09EE228A82A82E
:104E40008274D228F58274031253E822E82508F808
:104E5000E93400F922EE28F8EF3400F9E824E3F50C
:104E600082E912540122850A82850B83E4124E7472
:104E7000E0640122F08508828509832224621253AE
:104E8000FEE4125839E4F0EE221253E52401F0A3B7
:104E9000E03400F0221253E8250AF0A3E03400F0D9
:104EA0002212544C85148285158322E0C398F8A3FE
:104EB000E099F9C3E894FFE9947F2285168285176B
:104EC0008312544CE8C333F8E933F9228A828B8386
:104ED00012544C850E82850F83E8F0A3E9F0227FFF
:104EE0001002142453BFEF02012274E812135290EF
:104EF00003ECE0F81254152420F50EEF3400F50F02
:104F0000EE241CF50CEF3400F50DEE241DF510EF2A
:104F10003400F5119061D0E0600B8510828511831B
:104F2000E4F0A38030EE246A1253E17029EE247479
:104F30001253E17021EE24801253E17019850C8226
:104F4000850D83E06401700E850E82850F831254F7
:104F50005DE8F0A3E9F0EE24071253BF8E828F8341
:104F6000A3A3A3A3A312545D12543C240108E91285
:104F7000540B12542BEEFAEFFB120A10E964016095
:104F800008900500E06401701F851082851183E49C
:104F9000F0A3F08E828F83A3A3A3A3A3E02401F840
:104FA000A3E012540B12542BEE247412581F60030A
:104FB000025151EE24751253C712157C8508828563
:104FC00009831254578E828F83A3A3A3A3A31254E1
:104FD0008F1217A17402121311E970030251518547
:104FE0000A82850B831254952477FCEF3400FDEE82
:104FF000FAEFFB1208E41253D4124ED0850C8285CE
:105000000D83E4F0851082851183F0A3F0EE240F68
:10501000125406850882850983125452240D1253B6
:10502000E128F8A3E039F9EE240B1254288E828F80
:1050300083A3A3A3A3A3125457850A82850B8312CB
:10504000548F1217DE8A088B09EE242E125489E43D
:10505000F50AF50B8A0C8B0DF50EF50F7808790C17
:1050600012101CEE24781253EE7808790C121144B9
:1050700085080C85090D850A0E850B0FEE247EF53B
:1050800016EF3400F517851682F583125452247AF0
:10509000F512EF3400F513851282F583125457EEA2
:1050A0002430F50AEF3400F50BEE24321253BFEA38
:1050B0006C7002EB6D7024850882850983E068704E
:1050C00003A3E0697015EE247C125489850A828559
:1050D0000B83E06A7003A3E06B6031881489157458
:1050E0000478141212D978141215651253D41215BB
:1050F0007CEDC313FDEC13FC8E828F83A3A3A3A3CB
:10510000E0FA7B0012065C7404121311EE2477128D
:1051100053E1C0E0EE242B1253D7D0E0F085128289
:10512000851383125452242E125428EE247C1254D8
:1051300045850A82850B8312542B85168285178339
:10514000125495FAEFFB1208EAEE24741253F88019
:105150000BEE242E1253EEE4F50EF50F851082852A
:105160001183E0F514A3E0F515EE24121253BFEEFF
:10517000241FF512EF3400F513EE24181253C778EC
:105180000C120FC87011851282851383E0F8E514A4
:10519000687002E51560237808121565EE24101278
:1051A00053D712157C7814121565AA0CAB0DAC0EF2
:1051B000AD0F121C327406121311850A82850B83FF
:1051C000780C1211DA851082851183E085128285B0
:1051D0001383F0AC08AD09125467906062E0600779
:1051E0007CE87D901254678E828F831254488882A7
:1051F0008983A3A3E82408FCE93400FD7406121295
:105200000E85108285118312548F8E828F83E02445
:1052100002F8A3E03400F9E8FCE9FD8A108B11E400
:10522000F512F51390914478101211577810790CFB
:1052300012101C8C828D83781012116A9091507814
:10524000101211CB8C828D8378101211B89004FE4D
:10525000E06401600302533F7901120AAC8E828F31
:1052600083E0F50AA3E0F50B9091581211E9E50AE5
:10527000240EF582E50B1253DA1211F5E50A241219
:10528000F8E50B3400F9E8FCE9FD8508828509831F
:10529000780C1211CB850C08850D09E50875F0E234
:1052A000A4C508A8F075F004A428F875F0E2E50993
:1052B000A428F5098C828D83E02508F0A3E0350948
:1052C000F0EE24161253E1F508A3E0F50974047812
:1052D000081212D9E5082401F8E509340012547CBB
:1052E000906062E08C828D837003025397E02410FB
:1052F000F0A3E03401F0EE240F1253E16016EE2427
:105300002B1253E1F875F071A4C8AAF075F002A44D
:105310002A12547CE50A2414F582E50B1253DA7440
:1053200010F08E828F83E024161254317466F0A33D
:105330007408F0EEFAEFFB1217037900024EDF90CB
:105340009124780C120FFD500302525DEA4B60036A
:1053500002525D780C121561EEFAEFFB1208F07440
:1053600004121311E96401600302525DEE240F126E
:1053700053E160128E828F83A3A3A3A3A3E06405ED
:105380007002A3E0600479088002793EEEFAEFFB38
:105390001208D8790180A5E02410F8A3E034FFF9C1
:1053A0007A717B0212127088088909EE242E125439
:1053B00045C3E50898E5099950030252F680C7F500
:1053C00008EF3400F50922F50AEF3400F50B850AE1
:1053D00082F58322EE247CF582EF12540122EE2422
:1053E000671253E522F582EF3400F583E022125371
:1053F000E5F50CA3E0F50D221253FEE4F022F58250
:10540000EF3400F5832212580CF0223400F985089D
:10541000828509832275F004A4C8AAF02AF974EEE3
:1054200028FE740339FFEE221253FEE8F0A3E9F0E0
:1054300022F8A3E03400F98882898322E028F8A3C7
:10544000E039F9E8221253FE12544C22E0F8A3E0AE
:10545000F92212544CEE22E0FCA3E0FD2212544C3F
:105460008510828511832212546E121B6C228E824B
:105470008F83E02402FAA3E03400FB22F98C828DB2
:1054800083E028F0A3E039F022F582EF125401E026
:10549000FAA3E0FB2212544C850882850983E8F0C8
:1054A000A3E9F0EE2274E8121352EAFEEBFFEE24B9
:1054B000DFF510EF3400F511EE24E0F50EEF3400C7
:1054C000F50FEE2462F516EF3400F517EE2483F5A0
:1054D0000CEF3400F50DEE241DF512EF3400F5133A
:1054E000EE2404F50AEF3400F50BEE246A1253BFE4
:1054F00080399003C8E07003025742EEFAEFFB12C6
:1055000008A8EE24A4F514EF3400F515781412154C
:1055100065EE249CFCEF3400FD850A82850B83E058
:10552000FA7B001206687402121311EE246F1253F4
:10553000E1606AEE246B1253E124FE602F24FE60CA
:105540006014607414700302566A1470030257F6F4
:1055500024FE700302575924FE70030256D61470BD
:105560000302578014700302571980BF8508828593
:105570000983E0640170179003C7E070030257428B
:105580007916EEFAEFFB1208D87901024EDFEEFA37
:10559000EFFB120896E9850882850983F07900807F
:1055A000EA850882850983E0640170030254F2EE03
:1055B000FAEFFB12086C80DD850882850983E064C0
:1055C0000170479003C8E06027850C82850D8374C5
:1055D00001F09091481211E9EE24D51253D712111F
:1055E000F59091481211E9EE24D91253D71211F512
:1055F000851082851183E0640160030257427906B9
:10560000EEFAEFFB1208AE02552BEE24D312581F10
:10561000701CEEFAEFFB120872E964016003025598
:105620009D851082851183E412582502559CEE2435
:10563000D41253E1700302559DEE24B3F514EF34F8
:1056400000F5157814121565EE248CFCEF3400FD7E
:10565000EE24C3FAEF3400FB120932740212131164
:10566000EE24D3125808F002552B85088285098351
:10567000E0640170579003C8E0700302574212586B
:1056800057EEFAEFFB1208A885168285178374017E
:10569000125832850A82850B83E0FA7B00EE24DD06
:1056A00012581F7007790012067480077C01790078
:1056B00012066EEE24DD1253F8EE24E11253D7E405
:1056C00012582AF0851082851183809AEEFAEFFB3A
:1056D000120878025595850882850983E064017077
:1056E00015850E82850F83E064017056EEFAEFFB9C
:1056F0001208A802552BEEFAEFFB12087EE96401AE
:10570000600302559D850E82850F83E4F0850C822F
:10571000850D83125825025666850882850983E027
:105720006401702B9003C8E06012850C82850D83A4
:10573000E4F0851682851783041258329003C7E07F
:1057400070AA12586C600302559D7922025582EEB0
:10575000FAEFFB120884025595850882850983E0DB
:10576000640170129003C8E060D8EE24E21254067F
:105770001258570256ECEEFAEFFB12088A025595C2
:10578000850882850983E06401705C12581C702DC5
:10579000EE24EC12581F60030256ECEE24F1125373
:1057A000D712157CEE24EF1253D712157C125845F0
:1057B000790012066274041213110256EC12586C2E
:1057C000600302559DEE24F11253D712157CEE248E
:1057D000EF1253D712157C125845792212066274C3
:1057E0000412131102574AEE24ED125816FAEFFB79
:1057F000120890025595EEFAEFFB12089CE964013D
:10580000600302559D0256EC12580C22F582EF34CB
:1058100000F58374012212580CF0EE22EE24EB12F4
:1058200053E5640122124E740422F0850E82850F26
:1058300083221258397401F022F0EE2468F582EFC9
:105840003400F58322EE24EE1253E5FC850A8285AE
:105850000B83E0FA7B0022EE24201253FE12544CFC
:10586000851282851383E8F0A3E9F022EE2472F812
:10587000EF3400F988828983E024FFF0A3E034FF4D
:10588000F08882898312544CE84922C082C0838AFE
:10589000828B83A3A3A3A3A3A3A3125448EA240B3C
:1058A000F582EB12548CC3EA98EB995014E8C39A32
:1058B000F8E99BF9C3E894AAE9941050147901809F
:1058C00012EAC398F8EB99F9C3E894ABE994105045
:1058D000EC7900D083D082020122740E1213117F62
:1058E0000402142474F012135274CC1212FB8C0AAA
:1058F0008D0B7444121346E0FE7420121346AC82E2
:10590000AD837583907582EE740612120E742012A8
:105910001346AC82AD83120DB8E9F508C3940A4072
:1059200003025A4875F006E9A4F5097426121346D5
:10593000AC82AD837A0E7420250912646D700974EF
:1059400032121346E0FF80027F009009F9E0640202
:10595000700474018001E4F50D780D121569EEFDF7
:10596000EFFCA908AA0AAB0B120E36740112131130
:105970007C147D007900740C121346AA82AB83124A
:105980000CB6740C121346AC82AD837A10742425C5
:105990000912646D70377C1079FF740C1213461273
:1059A000619A7029741C121346AC82AD837A047418
:1059B000252509F9120F86740C121346AC82AD83AB
:1059C000EFA2E0E433F9AA0AAB0B12039885188220
:1059D000851983AC82AD837A0C7470250812646DCE
:1059E0007055851882851983AA82AB83120DE275E2
:1059F0000800E50875F003A4F8A9F0851882851958
:105A000083E58228F8E5831261D6125FEBEC4D60E6
:105A10001D88828983A3A3E0F50E750F00780E120E
:105A20001565AA0AAB0B120578740212131105084A
:105A3000E508C3940440BBEFA2E1500C900775E069
:105A4000F9AA0AAB0B12057E74046E702A9009F94C
:105A5000E064027022900789E060047A0180027A93
:105A600000900776E06004780480027800E84AF944
:105A7000AA0AAB0B12041C790074341213117F08AC
:105A800002142474F0121352EAFEEBFF8C088D0905
:105A9000750A0AE9600C14600914602E14607F0214
:105AA0005B29120DF4E9F50AC3940A507CE5084518
:105AB000096076750E06750F00780E121565EEFCFE
:105AC000EFFD1263B1121311805F750B00750E06A6
:105AD000750F00780E121565EEFCEFFDE50B75F005
:105AE0000EA4F8A9F0749728FA740739FB120CB0C9
:105AF0007402121311E9601B850B0AE50AC3940AAC
:105B00005027E50845096021AA08AB09A90A120D2A
:105B1000EE8016050BE50BC3940A500D80AF120DF5
:105B2000FAE9F50AC3940A40D9A90A025A7E74F424
:105B3000121352890875091574FF6A700374FF6B9C
